:020000040800F2
:10000000202F00205D020008352700082523000866
:10001000FF260008BD0C0008D93F000800000000C2
:10002000000000000000000000000000D52C0008C7
:1000300025180008000000006D290008750200085E
:1000400077020008770200087702000877020008AC
:10005000770200087702000877020008770200089C
:10006000770200087702000877020008770200088C
:1000700077020008B5100008A511000877020008F3
:10008000770200087702000877020008713E000836
:10009000AD3F0008770200087702000877020008E9
:1000A000770200087702000877020008770200084C
:1000B000770200087702000877020008770200083C
:1000C000770200087702000877020008770200082C
:1000D000770200087702000877020008770200081C
:1000E00077020008770200086D3A000877020008DE
:1000F00077020008770200087702000877020008FC
:1001000077020008770200087702000877020008EB
:1001100077020008770200087702000877020008DB
:1001200077020008770200087702000877020008CB
:1001300077020008770200087702000877020008BB
:1001400000000000000000000000000000000000AF
:10015000770200087702000877020008770200089B
:100160006903000877020008770200087702000898
:1001700077020008770200087702000800F002F812
:1001800000F05CF80AA090E8000C82448344AAF1D5
:100190000107DA4501D100F051F8AFF2090EBAE8D3
:1001A0000F0013F0010F18BFFB1A43F001031847AB
:1001B000E0420000004300000A444FF0000C10F839
:1001C000013B13F0070408BF10F8014B1D1108BFD5
:1001D00010F8015B641E05D010F8016B641E01F875
:1001E000016BF9D113F0080F1EBF10F8014BAD1CC5
:1001F0000C1B09D16D1E58BF01F801CBFAD505E0E3
:1002000014F8016B01F8016B6D1EF9D59142D6D33C
:10021000704700000023002400250026103A28BF64
:1002200078C1FBD8520728BF30C148BF0B60704768
:100230001FB504F09BF81FBD10B510BD00F031F8DC
:100240001146FFF7F5FF04F071F800F04FF803B422
:10025000FFF7F2FF03BC00F057F8000009488047A1
:1002600009480047FEE7FEE7FEE7FEE7FEE7FEE798
:10027000FEE7FEE7FEE7FEE704480549054A064BB0
:1002800070470000693800087D010008202900201F
:10029000202F0020202B0020202B002070477047AB
:1002A0007047754600F02CF8AE4605006946534687
:1002B00020F00700854618B020B5FFF7DDFFBDE848
:1002C00020404FF000064FF000074FF000084FF0BD
:1002D000000B21F00701AC46ACE8C009ACE8C0094E
:1002E000ACE8C009ACE8C0098D46704710B50446BB
:1002F000AFF300802046BDE81040FFF7A8BF000024
:1003000000487047BC28002001491820ABBEFEE71A
:100310002600020070470000012805D1074909683E
:1003200021F00101054A1160022805D1034909683D
:1003300021F00201014A116070470000005801409D
:10034000024A12680243014B1A6070470458014088
:1003500001460020034A12680A400AB1012000E069
:10036000002070470058014010B50120FFF7F0FF52
:10037000012801D1FFF7D0FF0220FFF7E9FF012894
:1003800002D10220FFF7C8FF10BD000029B1074AC3
:1003900012680243054B1A6006E0044A1268C34320
:1003A0009BB21A40014B1A6070470000045801408C
:1003B00001490860704700000C580140014908607D
:1003C0007047000010580140014908607047000064
:1003D0001458014038B504460B4951F82400012156
:1003E00002F036FB684601F0CBFE084830F81400F6
:1003F000ADF8000028208DF80300054951F82400CD
:10040000694601F077FB38BD5C01002058010020EF
:100410005001002010B501F007FA012000F070FA39
:10042000022000F06DFA032000F06AFA012000F0CB
:100430008BFA022000F088FA032000F085FA0020F1
:10044000FFF7C8FF0120FFF7C5FF10BD00B585B05D
:100450000121084602F0FCFA0121022001F0D6FB3E
:100460000121480502F0D4FA0121082002F0F0FA37
:100470004FF44070ADF8100002208DF812001C20DF
:100480008DF8130004A9114801F034FB104801F065
:100490006DFF0020ADF804004BF6FF70ADF80600CC
:1004A0000020ADF808004FF48060ADF80A000001AC
:1004B000ADF80C00074800906946054801F0B2FF0E
:1004C0000121034801F045FF05B000BD000C0140CB
:1004D00000540040400D030070B504466FF07F46A5
:1004E000002504E06D1CB54201D3012070BD2146FA
:1004F000034801F019FF0028F4D00020F6E70000BF
:100500000054004070B504460E4615464FF4FA609C
:1005100001F04CFF4FF400311D4801F065FF08B1B8
:10052000012070BD01211A4801F046FF1948FFF76C
:10053000D3FF08B10120F4E700222146144801F05E
:10054000E5FF1548FFF7C8FF08B10120E9E731468C
:100550000F4801F0E4FF1048801CFFF7BDFF08B111
:100560000120DEE729460A4801F0D9FF0A48801C2D
:10057000FFF7B2FF08B10120D3E70121044801F0E1
:1005800027FF4FF4FA5001F011FF0020C9E70000E7
:100590000054004001000300820007000148D0F829
:1005A000400270471825002001488068704700000D
:1005B000A00100200349D1F8840F0022C1F8842F44
:1005C0007047000048130020F0B502461346134858
:1005D000B0F8800F124F07EB40044E10002518E0D2
:1005E0000E48B0F8800FB0F5F06F04DB00270B4821
:1005F000A0F8807F0A4C33F8020B24F8020B07485E
:10060000B0F8800F401C87B20448A0F8807F681CB7
:1006100085B2B542E4DB0020F0BD000048130020A5
:10062000480300207CB504460D46684601F0A8FD4D
:10063000A8480461C56000694FF47A71B0FBF1F01D
:10064000A449C968C90848434000A249086008464F
:1006500000694FF47A71B0FBF1F09E49C968C9088E
:10066000484340009B49886000209B49C1F84002F4
:100670009A49C1F8400200219948A0F8821FA0F8C9
:10068000801F0121042002F0E3F901208DF802000F
:1006900004208DF803003020ADF800006946914831
:1006A00001F028FA18208DF803008020ADF8000032
:1006B00069468C4801F01EFA0121080302F0C8F9CE
:1006C000894802F0CDFA894801F02BFF8148006982
:1006D0004BF68031884202D18449886003E04FF4B0
:1006E0007A50824988600020804948808881794812
:1006F000C068182802D10320888002E000207B49CE
:10070000888000207949C8800880774801F020FF60
:1007100001220221744802F099FA0121724801F085
:100720000AFF0121084602F063F9714800F0D0FD8C
:100730006848006840086F49C860102088606648B3
:1007400048604FF48060C8618020486100200862E2
:10075000886265480C300860801588610020086157
:100760004FF400504862624800F093FD01220221DC
:100770005F4800F085FD01215D4800F051FD022039
:1007800002F012F80D208DF8040001208DF807000A
:1007900000208DF805008DF8060001A801F0CCFFBF
:1007A0000121082002F054F901208DF802000420F4
:1007B0008DF803004FF44050ADF8000069464E48F4
:1007C00001F098F918208DF803004FF40040ADF8BF
:1007D00000006946484801F08DF90121880302F0C4
:1007E00017F9464802F03CFA404801F09AFE3948B1
:1007F00000694BF68031884202D13C49886003E0B1
:100800004FF47A50394988600020384948808881FF
:100810003048C068182802D10320888002E00020F8
:100820003249888000203149C8804FF480700880A8
:10083000324801F08DFE01221146304802F006FADE
:1008400001212E4801F077FE0121084602F0D0F880
:100850002748143000F03CFD1E48806840082549B8
:10086000C860002088601D4848604FF48060C861FF
:100870008020486100200862886220480C300860AF
:1008800080158861002008614FF4005048621848C4
:10089000143000F0FEFC012202211548143000F053
:1008A000EFFC01211248143000F0BAFC022001F0E4
:1008B0007BFF0E208DF8040001208DF80700022038
:1008C0008DF8050000208DF8060001A801F034FF26
:1008D0007CBD0000A0010020D022002018250020AF
:1008E000481300200008014000300140602700202C
:1008F0003000024070270020000C0140003800400A
:1009000038B504460D4951F82400012102F0A0F841
:10091000684601F035FC0A4830F81400ADF80000D4
:1009200010208DF8030002208DF80200054951F8CF
:100930002400694601F0DEF838BD000040010020C7
:100940003801002028010020032800DD70470649F7
:1009500031F8101031B1044931F81010034A52F83F
:100960002020116100BFF1E738010020280100209C
:10097000032800DD7047094931F8101059B10849C2
:1009800051F82010C968054A32F810205140044A35
:1009900052F82020D16000BFECE7000038010020B1
:1009A0002801002010B5044600215A4801F0C3FD7B
:1009B0000021594800F034FC0021584801F0BBFDEB
:1009C00000215548143000F02BFC554804610069A3
:1009D0004FF47A71B0FBF1F05149C968C908484336
:1009E00040004F490860084600694FF47A71B0FB37
:1009F000F1F04B49C968C90848434000484988603C
:100A0000444802F02DF9454802F02AF94BF68030AF
:100A1000844202D14349886003E04FF47A5041494F
:100A2000886000203F4908803A4801F091FD01228A
:100A30000221384802F00AF90121364801F07BFD15
:100A40004FF4807037490880344801F081FD01225D
:100A50001146324802F0FAF80121304801F06BFDEE
:100A60002D4800F035FC2E48006840082E49C8602B
:100A7000102088602D4848604FF48060C861802055
:100A8000486100200862886222480C3008608015A6
:100A90008861002008614FF4005048621E4800F051
:100AA000F8FB012202211C4800F0EAFB01211A4850
:100AB00000F0B6FB1848143000F00AFC18488068B3
:100AC00040081949C86000208860194848604FF400
:100AD0008060C861802048610020086288620F48F9
:100AE0000C30086080158861002008614FF40050C8
:100AF00048620948143000F0CCFB0122022106486C
:100B0000143000F0BDFB01210348143000F088FBD5
:100B100010BD0000003001403000024000380040AD
:100B2000A00100206027002070270020D022002094
:100B30001825002008B50121042001F089FF68462E
:100B400001F01EFB4FF4C050ADF8000010208DF8EE
:100B5000030002208DF802006946044800F0CAFF35
:100B60004FF48051014801F009FB08BD0008014025
:100B700010B503F0A9FA10BD10B503F0A9FA10BD25
:100B800010B52DED048BFFF715FD400009EE100A9E
:100B90002A48006880004FF47A71B0FBF1F000023F
:100BA00008EE900A254890ED000AF8EE400AB0EEF3
:100BB000490AB8EE400A60EE800AB0EE680AB8EE64
:100BC000400A80EE801AB0EE418AB6EE000A38EE96
:100BD000000AB0EE408ABCEEC80A10EE104A084681
:100BE000B4FBF0F000EB4001C1EBC010A4EBC0007F
:100BF000F02101EA0010124908704FF47A70B4FB3A
:100C0000F0F0C02101EA80104FF47A71B4FBF1F1E9
:100C100001EB4102C2EBC111A4EBC101C1F305110B
:100C20000843074948704FF47A70B4FBF0F0C0F302
:100C3000870088700846BDEC048B10BD20010020A1
:100C40002401002070B504460D460548046029467D
:100C5000204603F041FA08B1012070BD0020FCE7F6
:100C60002001002070B504460D460348046020466C
:100C700003F02AFB70BD00002001002010B50446DF
:100C8000204603F001FB10BD10B50446204603F0DA
:100C90000BFB10BD10B50446204603F0FDFA10BD55
:100CA00010B50446204603F007FB10BD70B504469E
:100CB0000D462946204603F031FB70BD00BFFEE71C
:100CC0000146CAB20B1243EA0220704710B5002455
:100CD0004DE047F6FF702B4908602B48008800F074
:100CE0000F002A4908700846007800B910BD27484F
:100CF0000078274901EB8000D0F8000C84B204F49E
:100D00000040C8B12148007801EB8000D0F8000C09
:100D1000C0F30E0048F68F7108401C4909781C4A40
:100D200002EB8101C1F8000C18490978491E194AE3
:100D300052F8210080471AE004F08000B8B113484F
:100D40000078134901EB8000D0F8000C48F60F71D1
:100D500008400E4909780E4A02EB8101C1F8000CE7
:100D60000A490978491E0C4A52F821008047054873
:100D7000006880B20449088000F400400028A8D12F
:100D800000BFB3E7445C0040200000207401002055
:100D900000500040400000202400002008B5002042
:100DA000009022E19748008800F00F0096490870F3
:100DB0000846007800287CD194480068944908804F
:100DC0000846008800F0300092490880904800886A
:100DD00000F440508E4908808C4909684BF6BF7278
:100DE00001EA020080F4005080F0200040F400414D
:100DF00041F08001854A11608248008800F01000AF
:100E000090BB1046006848F60F7108401146086014
:100E100001F01EFC7D4909684BF6BF7201EA020031
:100E20007B49098801F4805109B180F480507849E8
:100E3000098801F4005109B180F40050754909880E
:100E400001F0100109B180F010007249098801F029
:100E5000200109B180F0200081B241F4004141F04D
:100E600080016A4A116008BDFFE76848006880B2E7
:100E70000090BDF8000000F40060B0B36348006863
:100E8000C0F30E0048F68F7108406049086002F018
:100E90002FFA5E4909684BF6BF7201EA02005C490D
:100EA000098801F4805109B180F4805058490988BB
:100EB00000E056E001F4005109B180F400505549BA
:100EC000098801F0100109B180F01000514909882A
:100ED00001F0200109B180F0200081B241F400410D
:100EE00041F08001494A1160BDE7FFE7BDF800000D
:100EF00000F40040002878D044480068C0F30E0099
:100F000048F68F7108404149086001F0F3FC3F4901
:100F100009684BF6BF7201EA02003D49098801F4F5
:100F2000805109B180F480503949098801F4005199
:100F300009B180F400503749098801F0100109B166
:100F400080F010003349098801F0200109B180F0D8
:100F5000200081B241F4004141F080012B4A116030
:100F600081E7294800782C4901EB8000D0F8000C7B
:100F700080B20090BDF8000000F40040C0B12248EB
:100F8000007801EB8000D0F8000CC0F30E0048F6AA
:100F90008F7108401C4909781F4A02EB8101C1F892
:100FA000000C19490978491E1C4A52F82100804753
:100FB000BDF8000000F08000B8B113480078164971
:100FC00001EB8000D0F8000C48F60F7108400E4984
:100FD0000978114A02EB8101C1F8000C0A4909782D
:100FE000491E0F4A52F821008047084844300068E3
:100FF00080B20449088000F4004000287FF4D2AE9B
:1010000000BF30E72000002074010020005C004099
:10101000880100208A01002000500040400000208C
:10102000240000200B4A02EB8001D1F8001C01F4DF
:10103000804171B102EB8001D1F8001C48F68F723B
:1010400011404CF280021143024B03EB8002C2F8C4
:10105000001C7047005000400B4A02EB8001D1F8A1
:10106000001C01F0400171B102EB8001D1F8001CBD
:1010700048F68F72114048F2C0021143024B03EB55
:101080008002C2F8001C704700500040084A02EB82
:101090008001D1F8001C48F68F62114048F28002AE
:1010A0001143034B03EB8002C2F8001C70470000A1
:1010B0000050004010B50124600200F0CBF8012878
:1010C00066D10021334800F0ABF8600200F0B4F8BC
:1010D0003148B0F8801FB0F8820F814210DD2E48F1
:1010E000B0F8820F401C2C49B1F8801F88421BDDEC
:1010F0002948B0F8801FB0F8820F081A84B213E0B4
:101100002548B0F8821FB0F8800F81420CDD2248DC
:10111000B0F8820F401CB0F5F06F05DD1E48B0F846
:10112000820FC0F5F06084B21B48B0F8801FB0F8A1
:10113000820F814204D1194816493039C86319E039
:101140001548B0F8820F164901EB400011493039BB
:10115000C8631148B0F8820F204481B20E48A0F84D
:10116000821FB0F8820FB0F5F06F03DB00210A4850
:10117000A0F8821F0848D0F8840F01190648C0F86B
:10118000841F0448303844630121024800F048F8C5
:1011900010BD000030000240481300209C270020B2
:1011A0004803002010B54FF4005000F053F8012818
:1011B0002FD1400300F040F80021164800F030F82D
:1011C000154890F8440268B90120134981F8440297
:1011D00001F590700F49443908650F480146C1F880
:1011E00040020CE000200C4981F8440208460949FD
:1011F0004439086500F590700749C1F84002074876
:10120000806840080349443988640121014800F09E
:1012100007F810BD4400024018250020A00100205E
:1012200021B1026842F00102026004E002684FF658
:10123000FE731A400260704700F0805111B10349FB
:10124000086001E002494860704700000404024061
:101250000000024001460020002201F0805313B13B
:10126000054B1A6801E0054B1A6802EA01030BB14D
:10127000012000E00020704700040240000002400E
:101280001AB103680B43036002E003688B430360F9
:10129000704710B50022026847F6F0739A430C6A53
:1012A0008B6823430C6923434C6923438C69234394
:1012B000CC6923434C6A23438C6A23431A4302605C
:1012C000CB6843600B6883604B68C36010BD00004F
:1012D00001684FF6FE72114001600021016041601B
:1012E0008160C1604B49884208D14A490839496840
:1012F00041F00F01474A083A51608AE045491431EC
:10130000884208D143490839496841F0F001414A0F
:10131000083A51607DE03F492831884208D13D4973
:101320000839496841F470613A4A083A516070E0FE
:1013300038493C31884208D136490839496841F476
:101340007041344A083A516063E032495031884272
:1013500008D130490839496841F470212D4A083ACA
:10136000516056E02B496431884208D12949083937
:10137000496841F47001274A083A516049E025491B
:101380007831884208D123490839496841F07061B1
:10139000204A083A51603CE01F49884206D1011FAB
:1013A000096841F00F01021F116032E01A4914313F
:1013B000884208D11849091F096841F0F001164A0E
:1013C000121F116025E014492831884208D11249C2
:1013D000091F096841F470610F4A121F116018E07B
:1013E0000D493C31884208D10B49091F096841F475
:1013F0007041094A121F11600BE0074950318842C1
:1014000007D10549091F096841F47021024A121FDA
:101410001160704708000240080402402DE9F047BF
:101420002848006800F110052E8826480068077AD1
:10143000DEB9042F19D124480078012810D10021E9
:101440002248006880B2801C214A126842F81010BD
:1014500030202049088000BF00201B49087003E0AD
:10146000072710201B49088027E0AC88A64201D836
:10147000042000E002200746B44200D93446A0B25E
:10148000A96888478046002000F0C2FE8146A2B2CB
:101490004946404602F0A2FDA1B2002001F0BAFD8B
:1014A0002888001B288068882044688030200949EB
:1014B000088000020849088000BF024909680F72CD
:1014C000BDE8F0877801002070010020505C0040EA
:1014D0008C0100208A010020880100202DE9F041C4
:1014E0002548006800F110042688A068C0B1BEB18C
:1014F000A588B54200D93546A8B2A16888470746F5
:101500002088401B2080608828446080002000F0F4
:101510006DFE8046AAB24146384601F013FA00BF7C
:10152000208818B14FF44050144908802088A188C1
:10153000884204DB032010490968087219E02088FA
:10154000002804DD05200C490968087211E0208894
:1015500078B906200849096808720021084800681F
:1015600080B2801C074A126842F8101030200649E9
:101570000880BDE8F081000078010020880100208B
:10158000505C00408C0100208A0100202DE9F84FBA
:101590009B48006845780027BA46062D1BD198481D
:1015A0000068007800F07F00002813D19449096892
:1015B0008878012803D193490968CF690AE0022895
:1015C00003D1904909680F6A04E0032802D18D49CC
:1015D00009684F6A94E0002D64D18948006840880A
:1015E00000285FD186480068C08802285AD1844804
:1015F00000680079002855D181480068007800F023
:101600007F0028B97E480068808808B97E4F77E05F
:101610007B480068007800F07F00012810D17849ED
:1016200009684879774909688A6900219047002844
:1016300066D173480068807A002861D0724F5FE0FD
:101640006F480068007800F07F00022858D16C488D
:101650000068407900F00F0669480068407900F0A2
:10166000700967480068407900F0800038B1674928
:1016700001EB8600D0F8000C00F0300806E063496A
:1016800001EB8600D0F8000C00F440586048007868
:10169000B04235D9B9F1000F32D1B8F1000F2FD0D7
:1016A000594F2DE0082D07D155480068007800F00B
:1016B0007F0028BB574F23E00A2D21D150480068F6
:1016C000007800F07F0001281AD14D480068807A28
:1016D000B0B14B480068408890B94948006800792B
:1016E00070B947480068C088012809D14449096891
:1016F0004879444909688A690021904700B9464FF2
:1017000057B13F480068A0F812A03D4800688761C3
:101710000020B84700240FE0394A12685078394A4F
:101720001268116988470446032C05D10920344901
:1017300009680872BDE8F88F31480068008A4FF6E2
:10174000FF71884204D109202D4909680872F1E728
:10175000022C03D02A480068008A20B908202849B2
:1017600009680872E6E726480068007800F0800003
:10177000E0B323480068C088009021480068008AD0
:101780000099884204D91E4900980968088223E01C
:101790001B480068008A1A490968C98888421BDA10
:1017A00017480068008A1749096891F82C10884288
:1017B00003DA0020194908700EE011480068008A19
:1017C0001049096891F82C1090FBF1F201FB12000E
:1017D00010B90120114908700A48006890F82C10CF
:1017E000074800688182FFF719FE07E0FFE7032042
:1017F00003490968087200030949088000BF99E796
:10180000780100207C010020953500080050004040
:1018100060000020193500086935000870010020BB
:10182000880100207047000010B56FF0040002F03E
:1018300007F80B4890ED000AB8EE400ADFED090A00
:1018400080EE201A084880ED001A90ED000ADFEDC6
:10185000070A20EE200A064880ED000A10BD0000AD
:101860000C0100200024F44A6401002000007A44A6
:101870006801002043E0B0F5FA7F11DD214A92EDC6
:10188000000ADFED210A20EE200ABCEEC00A10EEAD
:10189000102A4FF0E0235A61A0F5FA7290B210E0DE
:1018A00000EE100AB8EE400A164AD2ED000A20EE09
:1018B000200ABCEEC00A10EE102A4FF0E0235A6155
:1018C000002000224FF0E0239A611A46126942F08C
:1018D00001021A6100BF4FF0E022116901F001021C
:1018E0001AB101F48032002AF5D04FF0E0221269DB
:1018F00022F001024FF0E0231A6100229A610028D1
:10190000B9D17047680100200000FA4370B5FFF7B5
:101910002FF90546FFF730F9044605B970BD0120DF
:1019200000F036FC00F4804058B1A2B24FF40871C8
:10193000284602F053FBA2B20221012001F0F4F983
:101940000AE0A2B24FF40871284602F047FBA2B2A7
:101950000221012001F01EFA0221012000F0A0F86E
:1019600000BFDBE710B5022000F012FC00F480405D
:1019700048B1022000F016FC04462246A0210B4884
:1019800000F0E0FF09E0022000F01EFC04462246C1
:101990004FF4B071054800F0D5FF21460348FFF72A
:1019A00085F90121022000F07BF810BD0C02002017
:1019B00070B5FFF7E5F805460324032000F0E8FBC7
:1019C00000F4804058B1A2B24FF43871284602F0BA
:1019D00005FBA2B20221032001F0A6F90AE0A2B29F
:1019E0004FF43871284602F0F9FAA2B2022103201E
:1019F00001F0D0F90221032000F052F870BD000080
:101A00000149086070470000140401400021234987
:101A10008279002A3AD00A46126803689A430B4634
:101A20001A600A1D126803689A430B1D1A60027936
:101A300011440A6803681A430A60184A0832126897
:101A400003689A43154B08331A601A1D126803681D
:101A50009A43124B0C331A604279102A0ED11A1F86
:101A6000126803681A430D4B08331A601A1D126876
:101A700003681A43094B0C331A600DE00749427999
:101A800011440A6803681A430A6005E002791144A8
:101A90000A6803689A430A60704700000004014026
:101AA00010B5012910D1124B03EB8002D2F8002CA3
:101AB00048F68F731A4048F2C0031A430C4C04EBEB
:101AC0008003C3F8002C11E002290FD1084B03EB6F
:101AD0008002D2F8002C48F68F731A404CF2800333
:101AE0001A43034C04EB8003C3F8002C10BD000024
:101AF000005000402DE9F04102460025002600205C
:101B000000230024002791F803C00CF00F0591F882
:101B100003C00CF0100CBCF1000F03D091F802C010
:101B20004CEA050591F800C0BCF1000F31D01468F3
:101B300000202BE04FF0010C0CFA00F3B1F800C0CC
:101B40000CEA03069E4220D183004FF00F0C0CFAE2
:101B500003F7BC4305FA03FC4CEA040491F803C004
:101B6000BCF1280F06D14FF0010C0CFA00FCC2F8B2
:101B700014C00AE091F803C0BCF1480F05D14FF042
:101B8000010C0CFA00FCC2F810C0401C0828D1D38C
:101B90001460B1F800C0BCF1FF0F34DD54680020C0
:101BA0002EE000F1080C4FF0010808FA0CF3B1F830
:101BB00000C00CEA03069E4221D183004FF00F0CB7
:101BC0000CFA03F7BC4305FA03FC4CEA040491F851
:101BD00003C0BCF1280F05D100F1080C08FA0CF87D
:101BE000C2F8148091F803C0BCF1480F07D100F18E
:101BF000080C4FF0010808FA0CF8C2F81080401CDD
:101C00000828CED35460BDE8F0810000F0B503464B
:101C1000B3F1004F71D90025002223F00044E509FB
:101C200004F07F04220904F00F04970004FA07F679
:101C3000062D15D2DFE805F00305080B0E11F84854
:101C40000FE0F748001D0CE0F548083009E0F448C3
:101C50000C3006E0F248103003E0F148143000E0A8
:101C600000BF00BF22B9076827F00F0707603DE0FB
:101C7000012A12D1012D0BD1042C04D9076827F0B9
:101C8000C007076032E0076827F0300707602DE0E3
:101C9000076827F0F007076028E0022A04D10768E8
:101CA00027F47067076021E0032A04D1076827F44E
:101CB000704707601AE0042A04D1076827F47027E8
:101CC000076013E0052A04D1076827F4700707604E
:101CD0000CE0062A04D1076827F07067076005E06A
:101CE000072A03D1076827F070470760012902D14E
:101CF0000768374307603EE2FFE7B3F5802F6FD0F8
:101D000037DCB3F5007F6CD015DC102B6AD008DC13
:101D1000012B68D0022B7BD0042B7AD0082B72D1F8
:101D20007CE0302B70D0402B6FD0C02B6ED0B3F541
:101D3000807FF4D1E4E0B3F5804F68D00CDCB3F5DC
:101D4000407F7CD0B3F5006F7AD0B3F5406F78D088
:101D5000B3F5805FE3D162E0B3F5C04F72D0B3F565
:101D6000004F57D0B3F5803F55D0B3F5003FD6D1E3
:101D700052E0B3F1005F76D01DDCB3F5000F73D0F5
:101D80000CDCB3F5002F4BD0B3F5801F49D0B3F571
:101D9000001F6AD0B3F5800FC1D18FE1B3F1807F0E
:101DA00074D0B3F1007F72D0B3F1806F70D0B3F113
:101DB000805FB4D166E19B4A981A934269D014DCE3
:101DC000B3F1804F76D0A3F180402038002872D044
:101DD000B0F5787F70D0944A104400289FD18BE1F1
:101DE0001BE09DE042E02EE012E0B0F5802F74D0C1
:101DF000B0F5402F72D0B0F5A01F70D0B0F5E01F45
:101E00008DD17BE105E0B4E144E056E068E0C7E055
:101E100000BF00BF00BF00BF00BF00BF00BF00BFCA
:101E200000BF7F482038406898437D4A203A506080
:101E3000012903D110464068184350609AE17FE0C1
:101E40008EE09DE0BCE0764820384068774A10403C
:101E5000734A203A5060012904D11046406840F08E
:101E60000100506086E1FFE01AE135E16C4820385E
:101E7000406820F030006A4A203A5060012904D1BD
:101E80001046406840F01000506073E1A8E0B7E0F1
:101E9000CEE032E162482038406820F03000604AED
:101EA000203A5060012904D11046406840F03000CB
:101EB00050605FE1CAE01DE11DE1594820384068EB
:101EC00020F0C000564A203A5060012904D1104643
:101ED000406840F0400050604CE120E12DE13AE1E3
:101EE0004F482038406820F0C0004D4A203A5060EA
:101EF000012904D11046406840F0C000506039E12B
:101F000047482038406820F44070454A203A5060E5
:101F1000012904D11046406840F48070506029E1E6
:101F20003F482038406820F440703D4A203A5060D5
:101F3000012904D11046406840F40070506019E156
:101F400037482038406820F44070354A203A5060C5
:101F5000012904D11046406840F44070506009E106
:101F60002F482038406820F440602D4A203A5060C5
:101F7000012904D11046406840F400605060F9E047
:101F800027482038406820F44060254A203A5060B5
:101F9000012904D11046406840F440605060E9E0F7
:101FA0001F482038406820F4C0401D4A203A506045
:101FB000012904D11046406840F480405060D9E0C7
:101FC00017482038406820F4C040154A203A506035
:101FD000012904D11046406840F4C0405060C9E077
:101FE0000F482038406820F0E0600D4A203A5060E9
:101FF000012904D11046406840F080705060B9E07B
:1020000007482038406820F0E060054A203A5060D8
:10201000012904D11046406840F000705060A9E0EA
:1020200020000140000004402000FEFFFEFFFF7F73
:102030005148406820F0E0604F4A5060012904D1C7
:102040001046406840F08060506093E04A48406825
:1020500020F08040484A5060012904D11046406871
:1020600040F08040506085E04348406820F00050D8
:10207000414A5060012904D11046406840F00050A8
:10208000506077E03C48406820F080503A4A506009
:10209000012904D11046406840F08050506069E04A
:1020A0003548406820F40000334A5060012904D1CB
:1020B0001046406840F4000050605BE02E484068E5
:1020C00020F480002C4A5060012904D11046406859
:1020D00040F4800050604DE02748406820F4001034
:1020E000254A5060012904D11046406840F4001090
:1020F00050603FE000BF00BF00BF00BF1E48C06986
:10210000C3F3150290431C4AD061012906D1104641
:10211000C069C3F315021043174AD0612AE016487C
:10212000C06920F4C010144AD061012904D11046BE
:10213000C06940F40020D0611CE00F48C06920F461
:10214000C0100D4AD061012904D11046C06940F485
:102150008010D0610EE00848C06920F4C010064A23
:10216000D061012904D11046C06940F4C010D0618B
:1021700000E000BF00BFF0BD0000014041617047BA
:102180004FF6FF710180022181700421C1707047F8
:102190000146034A02EB8100D0F8000C80B2704780
:1021A0000050004001460648006880B200EBC100C4
:1021B000801C044A126832F81000C0F3090070470E
:1021C000505C00408C01002001460648006880B247
:1021D00000EBC100801D044A126832F81000C0F301
:1021E00009007047505C00408C0100200146064801
:1021F000006880B200EBC100001D044A126832F88A
:10220000100080B270470000505C00408C0100203C
:1022100001460548006880B200EBC100034A12681D
:1022200032F8100080B27047505C00408C010020F2
:10223000014639B908480068C088074A1268108208
:102240000020704705484078052802D10348801DCA
:10225000F7E702480830F4E778010020E8000020A2
:10226000014639B908480068C088074A12681082D8
:102270000020704705484078052802D103481230F5
:10228000F7E702481830F4E778010020E800002062
:10229000014639B908480068C088074A12681082A8
:1022A0000020704705484078052802D103481030C7
:1022B000F7E702481630F4E778010020E800002034
:1022C000014639B908480068C088074A1268108278
:1022D0000020704705484078052802D10348143093
:1022E000F7E702481A30F4E778010020E800002000
:1022F00070B50A480468001D0568001D066834446E
:1023000054B108220649204600F0DAF904220449B3
:102310001031284600F0D4F970BD0000E8F7FF1F27
:102320000600002000BFFEE770B50246002400252D
:1023300000230020958A138B1B0445EA030626F030
:102340007F4404EA01068E4201D1012000E0002012
:1023500070BD21B1028842F00102028004E00288CF
:102360004FF6FE731A4002807047000010B5044615
:102370000C48844209D10121480500F059FB002195
:102380004FF4001000F054FB0BE00748844208D1E2
:102390000121880500F04CFB00214FF4800000F083
:1023A00047FB10BD0054004000580040002100E0F1
:1023B000491C8142FCD3704721B1028842F48072EB
:1023C000028004E002884FF6FF631A4002807047E3
:1023D00021B1028842F40072028004E002884FF6C4
:1023E000FF531A40028070470CB5024600200023BC
:1023F0000193009300920B0F019321F07F41019B09
:102400001BB1009B1433009303E0090C009B1833AD
:102410000093009B1B680B400BB1012000E00020E3
:102420000CBD00002DE9F04385B004460D460026A2
:10243000B1460427DFF8C880A68806F47F466846C0
:1024400000F026FBDDF808802E48B8FBF0F01FFAFC
:1024500080F946EA0906A68020884FF6FE710840FA
:10246000208000262849286888420CD82868400027
:10247000B8FBF0F087B2042F00DA04273E4309F1DD
:102480000100208427E0E8884BF6FF71884206D1DE
:10249000286800EB4000B8FBF0F087B209E028683C
:1024A00000EBC00101EB0010B8FBF0F087B247F47D
:1024B0008047C7F30B0008B947F0010747F4004015
:1024C00006434FF4967009FB00F04FF47A7190FBCD
:1024D000F1F0401C2084A683208840F00100208079
:1024E00026884FF6F5300640A888698908430643D8
:1024F0002680A88929890843208105B0BDE8F0839A
:1025000000127A0040420F00A086010012B141F093
:10251000010102E04FF6FE7319400182704701820B
:1025200070470021018041808180C180022181604B
:1025300000218181704721B1828B42F480628283C5
:1025400004E0828B4FF6FF331A408283704700000D
:102550002DE9F04F85B005460C464FF000090226E4
:102560004FF000084FF0010B00274FF0000AA88B36
:102570004FF240010840A88302202884B5F81C903F
:10258000A068022801D100BF38E0A08810B94FF040
:10259000010B01E04FF0020B2C48854200D100E016
:1025A00000BF684600F074FADDF800A0E088B0F5DE
:1025B000007F0AD14FEA1A2000EB80004000A1689A
:1025C000B0FBF1F0401D87B20BE04FEA4B10BAFBB5
:1025D000F0F000EB80004000A168B0FBF1F0401D7E
:1025E00087B20A20B7FBF0F707F00108A7EB080055
:1025F000C0F34F064FF6FF7000EA0828022E02DBF8
:10260000B6F5806F03DB02264FF0000808E006F401
:10261000407028B106F4407046EA800626F4407601
:10262000E08840EA080030432884A088A189084354
:10263000618808432188084340F4006040EA0909A2
:10264000A5F81C9005B0BDE8F08F000000380040F0
:1026500010B518480068047A022C01D0042C05D16A
:10266000FEF7DCFE13480068047A1CE0062C19D142
:1026700010480068407805280ED10E4800680078A0
:1026800000F07F0040B90B490968C87800F024FBCE
:1026900009490968086A80470849096888688047C5
:1026A000082400E00824034909680C7200F060F96E
:1026B00010BD000078010020840100207C01002072
:1026C00030B50B46002100BF16E00A24B4EB107FA2
:1026D00005D9302404EB107403F8114005E04124BF
:1026E00004EB10740A3C03F81140000100254C0073
:1026F000641C1D554C1CE1B29142E6DB30BD00BFAD
:10270000FEE70000014639B908480068C088074A5A
:10271000126810820020704705484078052802D1D1
:102720000348C01CF7E70248001DF4E778010020C9
:10273000E80000207047704770B5002100230F2289
:10274000C47804B3154C246804F4E064C4F5E06470
:10275000210AC1F10403CA40447804FA03F18478E1
:102760001440214309010E4C0678A155047804F069
:102770001F050124AC4005786D11AD0005F1E02581
:10278000C5F8004109E0047804F01F050124AC40BD
:10279000044D0678761145F8264070BD0CED00E03A
:1027A00000E400E080E100E002490143024A1160D8
:1027B000704700000000FA050CED00E070B502263D
:1027C00047480068447846480068007800F07F0079
:1027D000002844D1092C03D100F05CFF06465FE0DD
:1027E000052C14D13E480068C0787F280BDC3C489B
:1027F0000068807838B93A480068808818B9384845
:102800000068807A08B1082566E0002648E0032CBD
:102810000ED133480068C078012807D130480068DD
:10282000808818B900F05AFF064639E0022637E0E2
:10283000012C35D12A480068C07801280DD12848DC
:102840000068808848B926480068407A00F0200077
:1028500018B100F0ABFD064622E0022620E0204839
:102860000068007800F07F00012805D10B2C17D1FB
:1028700000F0B0FF064613E019480068007800F049
:102880007F0002280BD1012C03D100F08FFD0646FA
:1028900006E0032C04D100F035FF064600E00226D6
:1028A0004EB1E0B20F4A1268516988470646032EBE
:1028B00001D1092510E00EB108250DE00625002103
:1028C0000948006880B2801C084A126842F810105B
:1028D00030200749088000BF014909680D7270BDAA
:1028E000780100207C010020505C00408C01002019
:1028F0008A01002010B511480068047A022C01D02A
:10290000042C01D1082412E0032C01D0052C05D1A0
:10291000FEF7E4FD09480068047A08E0072C05D1B9
:1029200007490968C8688047082400E0082403496B
:1029300009680C7200F01CF810BD0000780100203E
:102940007C010020F0B5561C7510074E366806EB6A
:1029500041042B4605E034F8047B20F8017B401C41
:102960005B1E002BF7D1F0BD8C01002070470000EA
:1029700010B50D4890F82C10002000F0D7FA0B4845
:102980000068007A082805D1400209490880102013
:102990000849088005480068007A092801D101200B
:1029A00010BD0020FCE7000064000020780100203A
:1029B000880100208A01002001210B4801600020CD
:1029C0000A4A108010460088074A10600020121D35
:1029D00010604FF4E050054A108010460088024A0B
:1029E0001060002070470000405C00408201002021
:1029F00029B1064A52690243044B5A6104E0034A72
:102A000052698243014B5A61704700000010024036
:102A100029B1064AD2690243044BDA6104E0034A51
:102A2000D2698243014BDA61704700000010024016
:102A300029B1064A12690243044B1A6104E0034AB1
:102A400012698243014B1A61704700000010024076
:102A500029B1064A92690243044B9A6104E0034A91
:102A600092698243014B9A61704700000010024056
:102A700029B1064AD2680243044BDA6004E0034AF3
:102A8000D2688243014BDA607047000000100240B8
:102A9000F0B50022002100240023484D6D6805F0A8
:102AA0000C0222B1042A05D0082A3ED105E0444D8B
:102AB00005603DE0424D05603AE0404D6D68414E95
:102AC00005EA06013D4D6D6805F4803401F0C0450E
:102AD00035B901F47015B5F5701F01D0022500E07D
:102AE000012501F0C046C1F3834747EA5666A9199C
:102AF0001CB9354D4D4305600BE0304D6D6805F454
:102B000000351DB1304D4D43056002E02C4D4D4365
:102B100005602A4D6D6805F000452DB92B4E0568FE
:102B2000B54201D93546056002E0254D056000BF7C
:102B300000BF224D6D68C5F30212204D6D6805F08F
:102B4000800515B1224DAD5C00E000252B460568DF
:102B5000DD404560194D6D68C5F30122174D6D6864
:102B600005F4806515B11A4DAD5C00E000252B46DB
:102B70004568DD408560114D6D68C5F3C1220F4D7C
:102B80006D6805F4005515B1114DAD5C00E00025F0
:102B90002B464568DD40C560084D6D68C5F3813240
:102BA000064D6D6805F080550DB142F00402094DE7
:102BB000AB5CC568B5FBF3F50561F0BD00100240E4
:102BC00000127A0000003C6000093D0000A24A04A7
:102BD000900100209801002001280BD10B49096BBE
:102BE00041F00071094A11631146496D41F4807149
:102BF00051650AE00549096B21F00071034A116330
:102C00001146496D21F480715165704700100240F2
:102C1000012806D10649496D41F03001044A516549
:102C200005E00349496D21F03001014A51657047C3
:102C30000010024001460020034A506820F00C605A
:102C40000843506070470000001002401AB18388AA
:102C50000B43838002E083888B43838070470000AE
:102C600010B504461848844208D101218014FFF7AA
:102C7000FFFE0021A014FFF7FBFE23E0134884426F
:102C800008D101210014FFF7D3FE00212014FFF723
:102C9000CFFE17E00E48844208D10121C013FFF790
:102CA000C7FE0021E013FFF7C3FE0BE0B4F1402F95
:102CB00008D101210804FFF7BBFE00214FF480304A
:102CC000FFF7B6FE10BD00000030014000380040A4
:102CD000003C00407047000030B501460F4B1A78A9
:102CE000002014E003060E4C04EB9353D3F8003C91
:102CF00048F68F74234048F280042343C4B2234330
:102D00000406074D05EB9454C4F8003C401C904267
:102D1000E8D341F08003034C236030BD6000002005
:102D2000005000404C5C004030B50346012920D1E2
:102D30001648006880B200EBC300801C144D2D685B
:102D400005EB40043E2A0BDD501102F01F050DB9C2
:102D5000451EA8B24FF4004545EA8025256007E0EE
:102D6000501002F001050DB1451CA8B28502256086
:102D70000BE0022909D10548006880B200EBC300CE
:102D8000801C034C246844F8102030BD505C004087
:102D90008C01002030B50346012920D11648006877
:102DA00080B200EBC300801D144D2D6805EB40047C
:102DB0003E2A0BDD501102F01F050DB9451EA8B2C9
:102DC0004FF4004545EA8025256007E0501002F0E9
:102DD00001050DB1451CA8B2850225600BE0022952
:102DE00009D10548006880B200EBC300801D034C88
:102DF000246844F8102030BD505C00408C01002055
:102E000030B54B105C000B4B1B689BB203EBC0034F
:102E1000094D2D6845F8134053105C00054B1B68A5
:102E20009BB203EBC0031B1D034D2D6845F81340F7
:102E300030BD0000505C00408C01002030B50B46D6
:102E4000012B20D12E49096889B201EBC001891CF0
:102E50002C4D2D6805EB41043E2A0BDD511102F08B
:102E60001F050DB94D1EA9B24FF4004545EA812555
:102E7000256007E0511002F001050DB14D1CA9B20B
:102E80008D0225600BE0022B09D11D49096889B22A
:102E900001EBC001891C1B4C246844F81120012B54
:102EA00020D11749096889B201EBC001891D154D70
:102EB0002D6805EB41043E2A0BDD511102F01F0580
:102EC0000DB94D1EA9B24FF4004545EA8125256094
:102ED00007E0511002F001050DB14D1CA9B28D02A1
:102EE00025600BE0022B09D10549096889B201EB85
:102EF000C001891D034C246844F8112030BD000036
:102F0000505C00408C01002010B54A105300054A67
:102F1000126892B202EBC002121D034C246844F8FE
:102F2000123010BD505C00408C01002010B50246EC
:102F30001048006880B200EBC200801D0E4C24686F
:102F400004EB40033E290BDD481101F01F040CB9CE
:102F5000441EA0B24FF4004444EA80241C6007E001
:102F6000481001F001040CB1441CA0B284021C60A2
:102F700010BD0000505C00408C01002030B50E4CAC
:102F800004EB8003D3F8003C4BF68F7403EA040291
:102F900001F480530BB182F4805201F400530BB161
:102FA00082F4005242F4004343F08003024D05EBEB
:102FB0008004C4F8003C30BD0050004010B50B4BFD
:102FC00003EB8002D2F8002C4BF68F7302EA030168
:102FD00081F4805181F4005141F4004242F08002BA
:102FE000024C04EB8003C3F8002C10BD00500040DD
:102FF00010B54A105300054A126892B202EBC002A3
:10300000034C246844F8123010BD0000505C0040AE
:103010008C010020054A126892B202EBC002921C99
:10302000034B1B6843F8121070470000505C0040CF
:103030008C01002030B50E4C04EB8003D3F8003C2B
:1030400048F6BF7403EA040201F010030BB182F0EA
:10305000100201F020030BB182F0200242F4004381
:1030600043F08003024D05EB8004C4F8003C30BD02
:103070000050004010B5074B03EB8002D2F8002C43
:1030800048F68F131A400A43024C04EB8003C3F83E
:10309000002C10BD0050004010B500F001F810BD2C
:1030A0001CB50020019000903548006840F4803045
:1030B0003349086000BF3248006800F400300090D7
:1030C0000198401C0190009818B90198B0F5405F34
:1030D000F1D12B48006800F4003010B101200090BD
:1030E00001E0002000900098012847D12448406862
:1030F000234948600846406820F46050486008460C
:10310000406840F4005048600846406820F4E060A1
:1031100048600846406840F480604860084640685F
:10312000184908401649486008464068164908434F
:10313000134948600846006840F08070086000BF8E
:103140000F48006800F000700028F9D00120FFF758
:103150005FFD0B48406820F00300094948600846BD
:10316000406840F00200486000BF0548406800F039
:103170000C000828F9D10020FFF74AFD1CBD000013
:1031800000100240FFFFC01F00001DA0014639B91A
:1031900004480068C088034A126810820020704703
:1031A0000148FCE778010020F40000200448006B8F
:1031B00040F0807002490863024803490860704784
:1031C00000100240007800408C01002010B5044639
:1031D000012C3DD135480068354A811A904221D0F2
:1031E00009DC3449084478B14FEA6101084480B1F0
:1031F000084458BB11E030480844C0B12E49084487
:10320000D0B1084410BB1CE04FF48000FFF712FD62
:103210001DE00020FFF70EFD19E04FF44000FFF71E
:1032200009FD14E04FF40000FFF704FD0FE04FF03C
:103230000460FFF7FFFC0AE04FF00060FFF7FAFCC4
:1032400005E04FF00860FFF7F5FC00E000BF28E064
:10325000022C26D101218805FFF7FAFB012120204D
:10326000FDF794F801211020FDF790F84FF4FA5083
:103270001249086009880A3988B2FDF799F80F49A0
:10328000098888B2FDF79AF80C4909880A3188B292
:10329000FDF79AF801210320FDF752F80120FFF70E
:1032A0009BFC0121C805FFF7B3FB10BD0C010020FA
:1032B000000E2707009423FD00CA91FE00000020A5
:1032C000014639B908480068C088074A1268108268
:1032D0000020704705484078052802D10348801D2A
:1032E000F7E702480830F4E778010020E800002002
:1032F00038B501242A48006880B2001D29490968B0
:1033000031F8100080B22749096801EB40000090B5
:1033100025480068007A092832D0009800782249B0
:10332000096808700098401C0090009800781E49B9
:10333000096848700098401C0090009800EB440019
:103340000090009931F8020B0091FDF7B9FC164985
:1033500009684880009800EB44000090009931F81B
:10336000020B0091FDF7ACFC0F49096888800098BA
:1033700000EB44000090009800880B490968C88061
:10338000012009490968087207480068C08810B917
:10339000FFF714FA01E0FEF7F9F8FFF7E9FA38BD94
:1033A000505C00408C010020780100202DE9F0479E
:1033B00054480068007800F07F08B8F1000F0AD187
:1033C00050480068407A00F0DF004E4909684872B2
:1033D0000020BDE8F087B8F1020F7CD149480068B1
:1033E000408818B947480068007908B10220F0E722
:1033F000DFF8149143480068477927F080052C4690
:1034000040480068407900F0800038B13F4901EB46
:103410008400D0F8000C00F0300606E03B4901EBD8
:103420008400D0F8000C00F4405699F80000A8423F
:1034300004D91EB133480068807A08B90220C8E771
:1034400007F0800080B1314901EB8400D0F8000C16
:1034500000F0300010284BD1E0B2FDF7FDFDE0B2E6
:103460003021FFF7E7FD43E0284901EB8400D0F865
:10347000000C00F44050B0F5805F39D1E4B9244A23
:1034800092F82C10E0B2FFF751FD204A02EB8401C4
:10349000D1F8001C4BF68F7201EA020080F48050D4
:1034A00080F4005040F4004141F08001174B03EBE1
:1034B0008402C2F8001C1BE0E0B2FDF7B3FD134A22
:1034C00002EB8401D1F8001C4BF68F7201EA020076
:1034D00080F4805000E011E080F4005040F400419E
:1034E00041F08001094B03EB8402C2F8001C00BFCD
:1034F000084909684869804700206AE700BF022040
:1035000067E70000780100206000002000500040C4
:10351000640000208401002010B504462CB901206D
:10352000064909680882002010BD05490968086835
:103530008047024800680A30F6E700007801002062
:103540008401002010B5024606480068438A32B95B
:103550008888C01A034C24682082002010BD0868A7
:103560001844FBE77801002010B504462CB901206F
:10357000064909680882002010BD05490968886865
:103580008047024800680C30F6E700007801002010
:103590008401002010B504462CB90220394909687D
:1035A0000882002010BD0020374908803548006897
:1035B000007800F07F0018BB32490968487A00F0B3
:1035C000200131B13049097841F002012E4A1170D1
:1035D00005E02D49097801F0FD012B4A117000F03A
:1035E000400131B12849097841F00101264A1170A2
:1035F00005E02549097801F0FE01234A11703AE0FF
:1036000020480068007800F07F00012801D11E48A2
:10361000C8E71C480068007800F07F00022828D125
:10362000184A1268517901F00F0001F080027AB156
:10363000164B03EB8002D2F8002C02F03002102A65
:1036400016D1114A127842F001020F4B1A700FE0A6
:103650000E4B03EB8002D2F8002C02F44052B2F57C
:10366000805F05D1084A127842F00102064B1A70B9
:1036700001E0002096E7064909680869804702488A
:1036800090E70000780100206E010020005000400B
:103690008401002010B50E480068C0780D494978B3
:1036A000884213DC0A480068807878B908480068C6
:1036B000808858B906480068C0780549096888724A
:1036C0000549096848688047002010BD0220FCE7D2
:1036D00078010020600000208401002010B5074818
:1036E0000068407A40F020000449096848720449A3
:1036F0000968C8698047002010BD000078010020DB
:10370000840100202DE9F0412E480068467926F01A
:1037100080073C462B480068407900F0800038B1B3
:10372000294901EB8400D0F8000C00F0300506E0D8
:10373000254901EB8400D0F8000C00F440552348E3
:103740000078A04208D91F480068408820B91DB100
:103750001C480068807A10B90220BDE8F08106F0AC
:103760008000A0B1184A02EB8401D1F8001C48F691
:10377000BF7201EA020080F0100040F4004141F005
:103780008001114B03EB8402C2F8001C14E00E4AC6
:1037900002EB8401D1F8001C4BF68F7201EA0200A3
:1037A00080F4805040F4004141F08001064B03EB6F
:1037B0008402C2F8001C00BF054909688869804777
:1037C0000020CAE77801002000500040600000207F
:1037D0008401002010B5174B1B68D978154B1B6866
:1037E0005879154B1B689A69904704461148006840
:1037F000807AE8B13CB90F480068007918B90D48E3
:103800000068807808B1022010BD8CB90B490968A6
:10381000C868804707480068407906490968C87247
:1038200004480068C0780349096808730020EBE782
:103830000220E9E7780100207C01002084010020BB
:10384000042808D14FF0E021096941F004014FF04C
:10385000E022116107E04FF0E021096921F0040145
:103860004FF0E0221161704710B51A48006840F42B
:103870007000184908601848006840F001001649B7
:1038800008600846406815490840134948600846E2
:10389000006813490840104908600846006820F491
:1038A00080200860084640680E4908400A49486080
:1038B0000846006B0C490840074908634FF41F0095
:1038C0008860FFF7E9FB4FF000600249803908602B
:1038D00010BD000088ED00E0001002400C00FFE881
:1038E000FFFFF6FEFFFF001700FFFEFE21B102887A
:1038F00042F00102028004E002884FF6FE731A4093
:103900000280704731B1B0F8442042F40042A0F880
:10391000442005E0B0F84420C2F30E02A0F8442091
:10392000704770B5002400220023058C4FF6FE7608
:1039300035400584028C8388048B4FF68F752C40AC
:10394000B51E2C400D882C43751E2A408D892A43B4
:103950004D882A43F51F2A40CD892A43F51E2A4067
:103960008D882A434FF6FF652B404FF6FF552B40BD
:103970000D8A2B434D8A2B43838004838D684563D6
:10398000028470BD0A460021018B4FF6F77319407F
:103990001143018370470021018041808180816053
:1039A0008181C1810182418270470000002202882A
:1039B000104B98420ED0B0F1804F0BD00E4B984276
:1039C00008D00E4B984205D00D4B984202D00D4BBB
:1039D000984205D14FF68F731A408B8813439AB2E1
:1039E00002808B68C3620B8803858B7B038601236F
:1039F00083827047002C01400034014000040040E5
:103A000000080040000C00404FF6FF71816000216B
:103A1000018081814160817370470000084A02EB98
:103A20008001D1F8001C48F68F7211404CF28002E0
:103A30001143034B03EB8002C2F8001C70470000E7
:103A400000500040084A02EB8001D1F8001C48F603
:103A50008F72114048F2C0021143034B03EB800206
:103A6000C2F8001C704700000050004010B54FF431
:103A70008020FDF7C5FF10BD70B5044600252D4818
:103A8000006800792C494870012C25D100208870ED
:103A900028480068007800F00300012802D00228BE
:103AA00019D113E0234800688078012804D1234D00
:103AB00002202149887008E01E48006880780228AA
:103AC00003D11F4D03201C49887004E01D4D0120C7
:103AD0001949887000BF21E016480068007800F09E
:103AE0000300012818D1822C01D1174D16E0832C38
:103AF00001D1164D12E0842C01D1154D0EE0812C20
:103B000008D10C4800688078012801D10B4D05E0F0
:103B1000104D03E0022070BD0220FCE7054800685C
:103B2000856100210348006841820020A8470020E9
:103B3000F1E7000078010020E800002005270008D8
:103B4000C13200088D31000891220008612200086E
:103B5000C12200083122000810B50446024920465F
:103B6000FFF7F0FC10BD0000C000002010B50446B7
:103B700002492046FFF7E6FC10BD0000B800002017
:103B800070B5054606480068C478042C01DD0020A5
:103B900070BD044800EBC4012846FFF7D3FCF7E7EB
:103BA00078010020C80000200246022901DD022021
:103BB0007047022A01DD0220FAE70020F8E70146FB
:103BC0000220704710B500204B49096888724B48A5
:103BD000C079494909684872002049490860491577
:103BE000FFF748FA20210020FFF724FA20210020C7
:103BF000FFF78AF9434890F82C100020FFF796F958
:103C000060210020FFF7F4F90020FDF73FFA0020C3
:103C1000FFF7D4F94FF480610120FFF72BFA4FF43E
:103C2000087211460120FFF7EBF84FF49072022161
:103C30000120FFF703F90120FDF7F4F90120FDF75A
:103C40000BFA0120FFF7EAFE00210120FFF796F9A9
:103C500030210120FFF7EEF94FF480610220FFF7D9
:103C600009FA4FF4B072A0210220FFF7C9F84FF40F
:103C7000907201210220FFF7E1F80220FDF7D2F94E
:103C80000220FDF7E9F90220FFF7DCFE4FF4405176
:103C90000220FFF773F900210220FFF7CBF94FF460
:103CA00080610320FFF7E6F94FF4387211460320D4
:103CB000FFF7A6F84FF4907202210320FFF7BEF839
:103CC0000320FDF7AFF90320FDF7C6F90320FFF746
:103CD000A5FE00210320FFF751F900210320FFF783
:103CE000A9F90020FFF76AF90020FEF7F5FF01208F
:103CF0000549086010BD00007801002088430008D5
:103D0000505C0040640000200401002010B50D4C00
:103D1000A07AB0B105200C49086003224FF4387135
:103D20000A4800F05BF9032202211046FFF732F83F
:103D3000032202211046FEF7F7FF30210320FFF790
:103D400079F910BD2C03002004010020240100207B
:103D500004200149086070470401002070470000FA
:103D600010B52DED028B9FED330AB0EE408A32483C
:103D70008078012853D0022840D0032855D12E48FE
:103D8000407805281AD12C48C08800EE100AF8EEB9
:103D9000400A2948408A00EE100AB8EE401A80EE28
:103DA000810ADFED260A20EE200AB0EE408ABCEE42
:103DB000C80A10EE101A88B2FCF772FF1E4840784D
:103DC00002281AD11C48008900EE100AF8EE400AB9
:103DD0001948008B00EE100AB8EE401A80EE810AF6
:103DE000DFED170A20EE200AB0EE408ABCEEC80ACA
:103DF00010EE101A88B2FCF74DFF17E00E4840781D
:103E0000052803D10C49C878FCF73EFF0A484078E2
:103E1000022803D108490879FCF730FF06E0064A7A
:103E20005178D068FCF71EFF00E000BF00BFBDEC7A
:103E3000028B10BD00000000E80000200000FE42E0
:103E4000000048437047000010B5FEF751FA00200B
:103E5000054909688872FEF7AFFD00F0ABF8002055
:103E60000249086010BD0000780100200401002014
:103E700010B5FCF72BFF10BD10B5084808490860C5
:103E8000022009680872074807490860074808497E
:103E90000860054909680868804710BD2C030020A8
:103EA00078010020640000207C01002094000020A4
:103EB000840100200EB54FF48020FDF7A1FD4FF4E2
:103EC0008020009000208DF8040008208DF8050067
:103ED00001208DF806006846FDF798FD4FF4A060BC
:103EE000FEF762FC14208DF8080002208DF809000E
:103EF0008DF80A0001208DF80B0002A8FEF71CFCCB
:103F000013208DF8080001208DF8090000208DF89D
:103F10000A0001208DF80B0002A8FEF70DFC2A20F4
:103F20008DF8080002208DF8090003208DF80A00A2
:103F300001208DF80B0002A8FEF7FEFB48208DF84B
:103F4000080000208DF8090001208DF80A008DF886
:103F50000B0002A8FEF7F0FB0EBD000010B50F48E5
:103F600000680F4908800846008800F480600D4909
:103F70000988084030B14FF6FF30084908600A4907
:103F8000486880470648008800F4004005490988D1
:103F9000084008B1FCF702FF10BD0000445C00407F
:103FA00020000020820100206400002010B5FFF7EF
:103FB000D5FF10BD0020064908604FF404400549B4
:103FC0000880084600880249091F086000207047E1
:103FD000445C00408201002000BFFEE7F0B51446BB
:103FE00004F1010C4FEA6C07DFF828C0DCF800C0D0
:103FF0000CEB41033D460AE00678401C90F800C0F7
:1040000046EA0C2223F8022B9B1C401C6D1E002D3F
:10401000F2D1F0BD8C01002010B58AB0012401213D
:104020000520FEF715FD0121C802FEF711FD200253
:10403000ADF8240018208DF8270002208DF8260006
:1040400009A91D48FDF756FD05A8FFF7DDFC0794FB
:104050001A4800681A49B0FBF1F0401E80B2ADF872
:1040600014000020ADF82000069005A91548FFF7C0
:104070009DFC6846FFF78FFC6020ADF80000012032
:10408000ADF80200601C00EBD071491002910020D5
:10409000ADF80C0069460B48FFF743FC08210948BE
:1040A000FFF770FC01210748FFF720FC01210548BC
:1040B000FFF728FC0AB010BD000801400C010020E9
:1040C00000366E01002C014010B5FCF767FA10BDF8
:1040D00010B5FCF769FA10BD2DE9F04105460E4612
:1040E00000241D27FCF7B2F94BF68030854205D13C
:1040F00041F2810019490968088004E041F2950005
:10410000164909680880182E05D140F64A601449FE
:104110000968088004E040F6426011490968088097
:104120001048056000240EE00F4810F8142030F805
:10413000140001123420FCF7E5F910B10120BDE8AC
:10414000F081601CC4B2BC42EEDBFFF765FF314674
:104150002846FCF767FA0020F1E70000F001002094
:10416000F401002008020020B401002070B53E4890
:1041700000883E49098888421BD04FF4A0644FF460
:10418000E06539480088394908800846007800F021
:104190007F0004430846007800F07F000543E2B248
:1041A00021123420FCF7AEF9EAB229123420FCF7D0
:1041B000A9F92F4800882F490988884217D02C4830
:1041C00000882C4908804FF42C544FF4345508468D
:1041D00000780443084600780543E2B2210A3420FF
:1041E000FCF790F9EAB2290A3420FCF78BF922484F
:1041F00000882249098888421FD01F4800881F492B
:1042000008804FF42C544FF4345508460088012898
:1042100009D11648007800F07F0004431348007865
:1042200000F07F000543E2B2210A3420FCF76AF96E
:10423000EAB2290A3420FCF765F9114800881149CF
:10424000098888420FD00E4800880E490880084629
:10425000008840F6062141EAC00086B2F2B231126F
:104260003420FCF74FF970BDFC010020FE01002056
:10427000F8010020FA0100200002002002020020C4
:1042800004020020060200200146024801800020AE
:104290007047000000020020014602480180002013
:1042A00070470000F801002001460248018000200C
:1042B00070470000040200200146024801800020EF
:1042C00070470000FC01002010B50446114800684A
:1042D000A04201D1002010BD0E48046000210E480C
:1042E000FFF704FB4BF68030844205D18122102178
:1042F0003420FCF707F904E0952210213420FCF764
:1043000001F92046FCF74EFB01210348FFF7EEFAC6
:104310000020E0E708020020002C014070B50446B0
:104320000D4629462046FCF74FF970BDFCF772F8A0
:10433000FCF700FCFFF7BEFD0120FEF747FF102150
:104340004FF47A50FCF77EFC10B10120FCF710FB13
:10435000FEF72CFFFFF790FD07E00320FCF708FBBA
:10436000FFF704FFC820FDF785FAF6E74FF040702D
:10437000E1EE100A704712010002000000403C2EDE
:1043800030570002010203010902C900030100C005
:10439000320904000000010100000A240100014666
:1043A000000202010C2402010102000203000000CD
:1043B000092406020101010200092403030101008E
:1043C00002000C2402040101000203000000092481
:1043D000060504010102000924030601030005008B
:1043E00009040100000102000009040101010102A9
:1043F0000000072401030101000B24020102021046
:1044000001803E000905810520010100000725010A
:10441000010000000904020000010200000904027A
:10442000010201020000072401040101000B240223
:104430000102021001803E00090502052001010071
:10444000830725010100000009058311030001080D
:104450000004030904240341007200740065007223
:10446000007900200054006500630068006E006F52
:10447000006C006F006700790016034100540033A0
:10448000003200200041007500640069006F0000E8
:10449000B0440008000000200C020000B801000831
:1044A000BC4500080C020020142D00001402000876
:1044B00041141A034112541233021732130D191406
:1044C0000837275B08B108E9040A15651841230479
:1044D0000113493E1408C53B1408613D1B08450CF7
:1044E00013793A1B08BF101AA9041A6D041A59044B
:1044F0001A8104413240293C1A0D2C29085A5D08C2
:10450000A9041A51141376433308121A880832C9C1
:104510001351443308041A550832241A79082A160C
:104520008021A3201AB2142A141D59061119A7219B
:1045300084B0710B600901020304060708093923DE
:10454000192C7B014004195819AD42809A2004119E
:104550001A081C1C100140502A2036B21039640180
:104560001C12606A4078280902040608020C081030
:10457000692944A3803E10172F012F03790579077D
:10458000060A420E9510FF15FF170F180F1A100894
:1045900020C32BC32DC22E123012361A3E9C20147B
:1045A00042524550465248504BFF51FF5308867CBB
:0C45B00033F83513C0011B20BE040114B9
:040000050800017D71
:00000001FF
