:020000040800F2
:1000000090C60120910100081915000895100008FC
:1000100015150008C1020008091E000800000000B4
:100020000000000000000000000000000F1C00089D
:10003000C502000800000000B1180008811D00087A
:10004000AB010008AB010008AB010008AB010008E0
:10005000AB010008AB010008AB0100087D030008FC
:1000600029040008C1040008AB010008AB01000826
:10007000AB010008AB010008AB010008AB010008B0
:10008000AB010008AB010008AB010008AB010008A0
:10009000AB010008AB010008AB010008AB01000890
:1000A000AB010008AB010008AB010008AB01000880
:1000B000AB010008AB010008AB010008AB01000870
:1000C000AB010008AB010008AB010008AB01000860
:1000D000AB010008AB010008AB010008AB01000850
:1000E000AB010008AB010008AB010008AB01000840
:1000F000AB010008AB010008AB010008AB01000830
:10010000AB010008AB010008AB010008AB0100081F
:10011000AB010008AB010008AB010008AB0100080F
:10012000AB010008AB010008AB010008AB010008FF
:10013000AB010008AB010008AB010008AB010008EF
:1001400000000000000000000000000000000000AF
:10015000AB010008AB010008AB010008AB010008CF
:10016000AB010008AB010008AB010008AB010008BF
:10017000AB010008AB010008AB010008DFF80CD0B0
:1001800000F018F8004800473D1F000890C6012005
:100190000648804706480047FEE7FEE7FEE7FEE721
:1001A000FEE7FEE7FEE7FEE7FEE7FEE7851D000847
:1001B0007D010008064C074D06E0E06840F00103B1
:1001C00094E8070098471034AC42F6D3FFF7DAFF03
:1001D000C0230008E023000838B504460B4951F855
:1001E0002400012101F066FB684600F04BFF08483F
:1001F00030F81400ADF8000028208DF80300054900
:1002000051F82400694600F00FFB38BD540000206F
:10021000500000204800002010B500F055F80120E3
:1002200000F016F8022000F013F8032000F010F898
:10023000012000F031F8022000F02EF8032000F039
:100240002BF80020FFF7C8FF0120FFF7C5FF10BD06
:1002500038B504460D4951F82400012101F02AFB6C
:10026000684600F00FFF0A4830F81400ADF80000AF
:1002700010208DF8030002208DF80200054951F886
:100280002400694600F0D0FA38BD00003800002094
:100290003000002020000020032800DD70470649C0
:1002A00031F8101031B1044931F81010034A52F8F6
:1002B0002020116100BFF1E7300000202000002065
:1002C00000BFFEE77047000010B56FF0040001F0BA
:1002D00019FD0B4890ED000AB8EE400ADFED090A5F
:1002E00080EE201A084880ED001A90ED000ADFED3C
:1002F000070A20EE200A064880ED000A10BD000023
:10030000680000200024F44A5C00002000007A44C9
:100310006000002010B50121042001F0CBFA02207A
:10032000124908804820C870114800F07DFA012168
:10033000084601F0BFFA0121002000F019FA02205E
:100340000C4908600020087108204871012088715C
:10035000084600F08BF90720074908700120487013
:100360008870C870084601F0D9F810BD0000002060
:1003700000080140040000200C00002010B50220FD
:1003800000F024F980B101200849087000200849D4
:10039000087008490880084908800021084601F0D3
:1003A00027F8022000F000F910BD0000180000201E
:1003B00019000020160000201400002010B50121B3
:1003C000042001F077FA0420134908804820C870FF
:1003D000124800F029FA0121084601F06BFA0221C7
:1003E000002000F0C5F904200D49086000200871C4
:1003F0000820487101208871084600F037F908206C
:100400000849087001204870022088700120C870D7
:10041000084601F083F810BD0000002000080140EC
:10042000040000200C00002010B5042000F0CEF8DD
:1004300040B10120044908700020044908800420CC
:1004400000F0B2F810BD00001900002014000020D8
:1004500010B50121042001F02DFA0820144908806C
:100460004820C87002208870124800F0DDF9012190
:10047000084601F01FFA0321002000F079F9082056
:100480000D4908600020087108204871012088711A
:10049000084600F0EBF80920084908700120487070
:1004A000032088700020C870084601F037F810BD9E
:1004B0000000002000080140040000200C00002083
:1004C00010B5082000F082F800284CD026480078AB
:1004D000012845D125480078012841D124480068E9
:1004E0002449098801EB8101234A126802EB81113A
:1004F000224A1288885401202149086180024861FB
:100500001C49098801EB81011B4A126802EB811129
:100510001A4A1288885C01F04FFD1A4908600220CF
:100520001749486108614002086114480088401C6E
:100530001249088008460088B0F5A07F10DB002033
:1005400008800A4908700B480088401C0949088047
:1005500008460088F02803DB002008800249087064
:10056000082000F021F810BD18000020190000201C
:100570000814014016000020100000201400002084
:10058000001001400C18014010B509200549087001
:1005900001204870032088700120C870084600F0D0
:1005A000BDFF10BD0C00002010B50446200D000555
:1005B00008B904B103E0F421024801F036FC024816
:1005C000046010BDF42200081404014070B5044614
:1005D00000250026012C31D0022C2FD0042C2DD048
:1005E000082C2BD0102C29D0202C27D0402C25D003
:1005F000802C23D0B4F5807F20D0B4F5007F1DD0AF
:10060000B4F5806F1AD0B4F5006F17D0B4F5805FE1
:1006100014D0B4F5005F11D0B4F5804F0ED0B4F50E
:10062000004F0BD0B4F5803F08D0B4F5003F05D0A3
:10063000B4F5802F02D0B4F5002F00D103E0DB2108
:10064000084801F0F2FB0848006800EA0406064882
:1006500014300068204010B10EB1012500E00025E3
:10066000284670BDF42200080004014070B504461D
:100670000025207910B12079042800D103E05F2102
:10068000354801F0D2FB6079082805D060790C2844
:1006900002D06079102800D103E060212E4801F0DB
:1006A000C4FB20686FF3130010B9206800B103E0A9
:1006B0006121294801F0B9FBA07910B1A079012886
:1006C00000D103E06221244801F0AFFB234DA07963
:1006D00090B3284600682168884329460860081DB1
:1006E000006821688843291D08602079054428682E
:1006F0002168084328601948083000682168884349
:10070000164908310860081D0068216888431349AC
:100710000C310860607910280FD1081F006821682B
:1007200008430E4908310860081D00682168084325
:100730000A490C3108600EE007E0084D6079054475
:10074000286821680843286005E020790544286866
:1007500021688843286070BDF4220008000401402D
:100760000021016001710C214171002181717047EC
:1007700070B505460C4600265DB1012D09D0022D4D
:1007800007D0032D05D0042D03D0052D01D0062D53
:1007900000D104E040F26A41214801F046FBECB18F
:1007A000012C1BD0022C19D0032C17D0042C15D0EF
:1007B000052C13D0062C11D0072C0FD0082C0DD0EF
:1007C000092C0BD00A2C09D00B2C07D00C2C05D0EF
:1007D0000D2C03D00E2C01D00F2C00D104E040F2E0
:1007E0006B410F4801F021FBA007010F0F2000FA19
:1007F00001F60C48A11050F82100B0430949A2109D
:1008000041F822000846A11050F82100A107090F65
:1008100005FA01F108430349A21041F8220070BD16
:1008200038230008080001402DE9F05F05460C461A
:100830004FF00009CA4600260027B046B346564886
:1008400085420BD05548854208D05548854205D091
:100850005448854202D05448854200D103E0AC217F
:10086000524801F0E2FAE078A0B1E078042811D013
:10087000E07828280ED0E07848280BD0E0781428BB
:1008800008D0E078102805D0E0781C2802D0E07865
:10089000182800D103E0AD21444801F0C6FA002039
:1008A00010B9208800B103E0AE21404801F0BDFA44
:1008B000E07800F00F09E07800F0100080B1A07837
:1008C000012805D0A078022802D0A078022800D103
:1008D00003E0B621354801F0A8FAA07840EA0909FA
:1008E000207838B3D5F8008000261FE0012000FAF8
:1008F00006F7208800EA070ABA4516D1B7000F208C
:1009000000FA07FB28EA0B0809FA07F040EA080892
:10091000E078282803D10120B040686105E0E07844
:10092000482802D10120B0402861761C082EDDD372
:10093000C5F800802088FF282BDDD5F8048000262C
:1009400023E006F10800012101FA00F7208800EAFF
:10095000070ABA4518D1B7000F2000FA07FB28EAAA
:100960000B0809FA07F040EA0808E078282803D1C4
:1009700006F1080081406961E078482804D106F159
:100980000800012181402961761C082ED9D3C5F8C1
:100990000480BDE8F09F000000080140000C014009
:1009A00000100140001401400018014038230008E5
:1009B0002DE9F04104460D46B4F1004F71D90023F2
:1009C000002124F00042D30902F07F02110902F055
:1009D0000F028F0002FA07F6062B15D2DFE803F0AC
:1009E0000305080B0E11FE480FE0FD48001D0CE04A
:1009F000FB48083009E0FA480C3006E0F8481030AF
:100A000003E0F748143000E000BF00BF21B90768D9
:100A100027F00F0707603DE0012912D1012B0BD110
:100A2000042A04D9076827F0C007076032E0076886
:100A300027F0300707602DE0076827F0F007076010
:100A400028E0022904D1076827F47067076021E0D5
:100A5000032904D1076827F4704707601AE00429C6
:100A600004D1076827F47027076013E0052904D133
:100A7000076827F4700707600CE0062904D10768AF
:100A800027F07067076005E0072903D1076827F0A2
:100A900070470760012D02D1076837430760BCE249
:100AA000FFE7012C6AD0022C68D0042C66D0082CF9
:100AB00064D0102C62D0302C60D0402C5ED0C02C82
:100AC0005CD0B4F5807F59D0B4F5007F56D0B4F532
:100AD000407F53D0B4F5006F50D0B4F5406F4DD087
:100AE000B4F5805F4AD0B4F5804F47D0B4F5C04F1D
:100AF00044D0B4F5004F41D0B4F5803F3ED0B4F5BA
:100B0000003F3BD0B4F5802F38D0B4F5002F35D05E
:100B1000B4F5801F32D0B4F1807F2FD0B4F1007FC4
:100B20002CD0B4F1806F29D0AE48844226D0B4F1E5
:100B3000804F23D0B4F1005F20D0B4F1805F1DD08E
:100B4000B4F5000F1AD0B4F5800F17D0B4F5001F1C
:100B500014D0A548844211D0A44884420ED0A448A1
:100B600084420BD0A348844208D0A348844205D0D5
:100B7000A248844202D0A248844200D104E04FF44B
:100B80003971A04801F051F90DB1012D00D104E0F7
:100B900040F2E5219B4801F048F9B4F5802F6FD071
:100BA00037DCB4F5007F6CD015DC102C6AD008DC83
:100BB000012C68D0022C7BD0042C7AD0082C72D166
:100BC0007CE0302C70D0402C6FD0C02C6ED0B4F5AF
:100BD000807FF4D1E4E0B4F5804F68D00CDCB4F54C
:100BE000407F7CD0B4F5006F7AD0B4F5406F78D0F8
:100BF000B4F5805FE3D162E0B4F5C04F72D0B4F5D4
:100C0000004F57D0B4F5803F55D0B4F5003FD6D152
:100C100052E0B4F1005F76D01DDCB4F5000F73D064
:100C20000CDCB4F5002F4BD0B4F5801F49D0B4F5DF
:100C3000001F6AD0B4F5800FC1D191E1B4F1807F7B
:100C400074D0B4F1007F72D0B4F1806F70D0B4F181
:100C5000805FB4D168E16749601A8C4269D014DCC6
:100C6000B4F1804F76D0A4F180402038002872D0B3
:100C7000B0F5787F70D06449084400289FD18DE199
:100C80001BE09DE042E02EE012E0B0F5802F74D032
:100C9000B0F5402F72D0B0F5A01F70D0B0F5E01FB6
:100CA0008DD17DE105E0B6E144E056E068E0D9E0B1
:100CB00000BF00BF00BF00BF00BF00BF00BF00BF3C
:100CC00000BF474820384068A04345492039486064
:100CD000012D03D108464068204348609CE197E01D
:100CE000A4E0B1E0CCE03E482038406847490840E5
:100CF0003B4920394860012D04D10846406840F046
:100D00000100486088E101E11CE137E13448203806
:100D1000406820F03000324920394860012D04D16C
:100D20000846406840F01000486075E1B6E0C3E056
:100D3000D0E034E12A482038406820F030002849CB
:100D400020394860012D04D10846406840F0300049
:100D5000486061E1CCE01FE11FE121482038406894
:100D600020F0C0001E4920394860012D04D10846FA
:100D7000406840F0400048604EE122E12FE13CE154
:100D800017482038406820F0C000154920394860D5
:100D9000012D04D10846406840F0C00048603BE1A6
:100DA0000F482038406820F440700D4920394860D1
:100DB000012D04D10846406840F4807048602BE162
:100DC00007482038406820F44070054920394860C1
:100DD000012D04D10846406840F4007048601BE1D2
:100DE000200001400000204020000040000400409E
:100DF00000000240000004400000084000001040D5
:100E000000001840382300082000FEFFFEFFFF7F8F
:100E10008348406820F4407081494860012D04D126
:100E20000846406840F440704860F5E07C484068FF
:100E300020F440607A494860012D04D1084640689A
:100E400040F400604860E7E07548406820F4406086
:100E500073494860012D04D10846406840F4406061
:100E60004860D9E06E48406820F4C0406C49486052
:100E7000012D04D10846406840F480404860CBE032
:100E80006748406820F4C04065494860012D04D19E
:100E90000846406840F4C0404860BDE06048406893
:100EA00020F0E0605E494860012D04D108464068AA
:100EB00040F080704860AFE05948406820F0E06042
:100EC00057494860012D04D10846406840F0007041
:100ED0004860A1E05248406820F0E0605049486016
:100EE000012D04D10846406840F08060486093E0DE
:100EF0004B48406820F0804049494860012D04D1AA
:100F00000846406840F08040486085E044484068BA
:100F100020F0005042494860012D04D10846406845
:100F200040F00050486077E03D48406820F0805035
:100F30003B494860012D04D10846406840F080508C
:100F4000486069E03648406820F400003449486051
:100F5000012D04D10846406840F4000048605BE081
:100F60002F48406820F480002D494860012D04D1AD
:100F70000846406840F4800048604DE028484068DA
:100F800020F4001026494860012D04D1084640682D
:100F900040F4001048603FE000BF00BF00BF00BF4A
:100FA0001F48C069C4F3150188431D49C861012D5C
:100FB00006D10846C069C4F3150108431849C86141
:100FC0002AE01748C06920F4C0101549C861012DF6
:100FD00004D10846C06940F40020C8611CE01048F4
:100FE000C06920F4C0100E49C861012D04D1084623
:100FF000C06940F48010C8610EE00948C06920F45F
:10100000C0100749C861012D04D10846C06940F4E9
:10101000C010C86100E000BF00BFBDE8F081000063
:101020000000014070B504460D46104884420BD0C4
:101030000F48844208D00F48844205D00E488442AD
:1010400002D00E48844200D104E040F271110C48F5
:1010500000F0EBFE002008B905B104E04FF4B971CF
:10106000074800F0E2FE256170BD00000008014065
:10107000000C014000100140001401400018014024
:10108000382300084FF6FF7101800221817004218E
:10109000C170704700BFFEE708B50121512000F084
:1010A00009FC01214806FFF783FC40F22F40ADF810
:1010B000000010208DF8030001208DF80200694621
:1010C0000A48FFF7B1FB40F22F410848FFF7AAFF9B
:1010D0004FF6FF70ADF8000069460548FFF7A4FB26
:1010E0004FF6FF710248FFF79DFF08BD0010014059
:1010F0000018014010B5FFF7CFFF00F069F9D320C9
:1011000000F0E4F900F034F900F032F900F030F9C1
:1011100095498880084680884FF6FF7101EA0020D3
:101120009149888000F024F98F49898808438E49C5
:101130008880CF2000F0CAF9002000F0B5F9C12066
:1011400000F0B2F9302000F0AFF9ED2000F0BEF968
:10115000642000F0A9F9032000F0A6F9122000F0A5
:10116000A3F9812000F0A0F9E82000F0AFF9852074
:1011700000F09AF9102000F097F97A2000F094F925
:10118000CB2000F0A3F9392000F08EF92C2000F0DC
:101190008BF9002000F088F9342000F085F9022056
:1011A00000F082F9F72000F091F9202000F07CF99E
:1011B000EA2000F08BF9002000F076F9002000F022
:1011C00073F9C02000F082F91B2000F06DF9C120F6
:1011D00000F07CF9012000F067F9C52000F076F9F5
:1011E000302000F061F9302000F05EF9C72000F0F7
:1011F0006DF9B72000F058F9362000F067F9482063
:1012000000F052F93A2000F061F9552000F04CF955
:10121000B12000F05BF9002000F046F91A2000F040
:1012200043F9B62000F052F90A2000F03DF9A2205F
:1012300000F03AF9F22000F049F9002000F034F90A
:10124000262000F043F9012000F02EF9E02000F004
:101250003DF90F2000F028F92A2000F025F9282078
:1012600000F022F9082000F01FF90E2000F01CF910
:10127000082000F019F9542000F016F9A92000F018
:1012800013F9432000F010F90A2000F00DF90F20A7
:1012900000F00AF9002000F007F9002000F004F93E
:1012A000002000F001F9002000F0FEF8E12000F03D
:1012B0000DF9002000F0F8F8152000F0F5F81720DF
:1012C00000F0F2F8072000F0EFF8112000F0ECF841
:1012D000062000F0E9F82B2000F0E6F8562000F098
:1012E000E3F83C2000F0E0F8052000F0DDF81020E5
:1012F00000F0DAF80F2000F0D7F83F2000F0D4F823
:101300003F2000F0D1F80F2000F0CEF82B2000F0A5
:10131000DDF8002000F0C8F8002000F0C5F801203A
:1013200000F0C2F83F2000F0BFF82A2000F0CEF80D
:10133000002000F0B9F8002000F0B6F8002000F01E
:10134000B3F8EF2000F0B0F8112000F0BFF87820DB
:1013500000F08CFD292000F0B9F800F065F80120BC
:101360000249086010BD00007C0000209401224268
:1013700010B54FF0883014490860091D086000203E
:1013800011490C3108600120104908618002486150
:1013900004204861022000F085FD0B4808300068F9
:1013A00084B2042009490861000208614FF033301B
:1013B00005490860091D08604FF6FF7002490C31AD
:1013C0000860204610BD00000018014000100140D8
:1013D00010B5082005494861642000F047FD082049
:1013E00002490861322000F041FD10BD00100140AB
:1013F00010B503460C460B49887A00F067F81812BE
:1014000000F052F8D8B200F04FF80649087B00F01F
:101410005DF8201200F048F8E0B200F045F800F066
:1014200067F810BD7C00002000B52C200849088119
:10143000012088714FF4A0700880F02048802A2095
:1014400048812B2088816C21362000F059F800BD9E
:101450007C00002070B504460D4616461149887A76
:1014600000F034F8201200F01FF8E0B200F01CF891
:10147000301200F019F8F0B200F016F80949087BB4
:1014800000F024F8281200F00FF8E8B200F00CF891
:10149000181200F009F8D8B200F006F800F028F8A9
:1014A00070BD00007C0000200121064A1161890204
:1014B00051610549086002215161116149021161C0
:1014C00070470000001001400C1801400121064A3D
:1014D0005161890251610549086002215161116120
:1014E0004902116170470000001001400C180140D2
:1014F00000B50249087AFFF7E9FF00BD7C00002033
:1015000010B504460B462046FFF7E0FF1846FFF7EC
:10151000CBFF10BD00BFFEE7704700002DE9F04192
:101520000446002500270F26E07810B1E078012856
:1015300000D103E0692121A000F077FC6078102839
:1015400000DA03E06A211DA000F06FFCA0781028EB
:1015500000DA03E06B2119A000F067FCE07800B32B
:101560002548006800F4E060C0F5E060050AC5F1B8
:101570000407EE40607800FA07F5A0783040054394
:101580002D011E4822788554207800F01F0101208B
:10159000884021784911890001F1E021C1F800015A
:1015A00009E0207800F01F010120884014492278CA
:1015B000521141F82200BDE8F08100002E2E5C2E71
:1015C0002E5C2E2E5C2E2E5C4C69627261726965F7
:1015D000735C41543332463478785F537464506599
:1015E000726970685F4472697665725C7372635C7D
:1015F0006D6973632E6300000CED00E000E400E011
:1016000080E100E010B50446B4F5E06F0BD0B4F50E
:10161000C06F08D0B4F5A06F05D0B4F5806F02D0CC
:10162000B4F5407F00D103E0572104A000F0FDFB9A
:10163000114820431149086010BD00002E2E5C2E79
:101640002E5C2E2E5C2E2E5C4C6962726172696576
:10165000735C41543332463478785F537464506518
:10166000726970685F4472697665725C7372635CFC
:101670006D6973632E6300000000FA050CED00E055
:1016800038B500250121392000F014F90220ADF809
:10169000000048208DF8030069465448FFF7C4F85D
:1016A00002215248FFF7BEFC0420ADF8000048209C
:1016B0008DF8030069464D48FFF7B6F804214B4802
:1016C000FFF7B0FC0820ADF8000048208DF80300BB
:1016D00002208DF8020069464448FFF7A5F808216A
:1016E0004248FFF79FFC8020ADF8000010208DF8E5
:1016F000030069463E48FFF797F880213C48FFF712
:1017000091FCFF20ADF8000048208DF803006946E9
:101710003848FFF789F84FF40040ADF8000010207A
:101720008DF8030069463448FFF77EF84FF4004116
:101730003148FFF777FC0020304908603049C1F894
:10174000BC01142000F092FB01202E49086000F03B
:10175000FBF80121FF2000F03BFA8021122000F06D
:1017600037FA642000F082FB1C2000F07FF9044669
:101770004FF6FF7000EA04241D2000F077F90443BF
:1017800047F6A270844201D0012038BD0A2000F043
:101790006DF904464FF6FF7000EA04240B2000F0B8
:1017A00065F9044342F24260844201D00220ECE732
:1017B00000250AE0144A02EB45025178124A12F859
:1017C000150000F005FA681C85B2B22DF2D34FF473
:1017D000FA7000F04BFB00F061F8F0214FF4A070BC
:1017E00000F014F800F0D6FB0020CEE7000801401E
:1017F0000010014000140140000C01409C012242F5
:1018000000802142BC812142CA1F00082DE9F0411D
:1018100004460D46E11704EB91718910A4EB810198
:1018200011B10120BDE8F081E91705EB9171891034
:10183000A5EB810109B10220F4E72046E11704EB92
:101840009171C1F38F072846E91705EB9171C1F338
:101850008F060021FF2000F0BBF90421E02000F0FA
:10186000B7F98921502000F0B3F9F9B25A2000F0FD
:10187000AFF9F1B25B2000F0ABF9C7F30128042007
:1018800000EAA61040EA080841465C2000F0A0F9F2
:101890000021E02000F09CF90020C3E710B50021F2
:1018A000FF2000F095F90121DA2000F091F910BD38
:1018B0007047000070B504460D461048204008B936
:1018C00004B104E040F25D310D4800F0AEFA0DB114
:1018D000012D00D104E040F25E31094800F0A5FA84
:1018E0002DB10848806920430649886104E0054815
:1018F0008069A0430349886170BD0000820107F838
:101900007C2300080010024010B504460CB1012CE5
:1019100000D104E04FF4A261094800F086FA012CDE
:1019200006D10848406D40F030000649486505E0A2
:101930000448406D20F030000249486510BD0000A9
:101940007C2300080010024008B501210820FFF7A1
:10195000B1FF4FF48050ADF8000048208DF803002F
:1019600002208DF8020069461248FEF75DFF4FF431
:1019700080511048FFF756FB4FF40070ADF800009F
:1019800010208DF8030069460A48FEF74DFF4FF41A
:1019900000710848FFF746FB0648001D006820F468
:1019A00070200449091D08600846006840F4403072
:1019B000086008BD000C014010B5322000F072FA3A
:1019C00001200B4908600B49C1F8A401322000F046
:1019D00069FA002006490C390860322000F062FAEA
:1019E00000200449C1F8B001322000F05BFA10BDBC
:1019F000B08121420080214270B50024184800685F
:101A000020F47020164908600846006840F4002061
:101A10000860082515E0322000F044FA0120114941
:101A200008606006040E1048D0F8300108B1601C50
:101A3000C4B2322000F036FA00200A490860681E5D
:101A4000C5B2002DE7DC0648006820F47020044988
:101A500008600846006840F440300860204670BDC9
:101A6000040C0140A48121420080214270B504464B
:101A7000002500F023F8602000F054F8642000F006
:101A800011FA204600F04EF8642000F00BFA00F046
:101A90002FF8642000F006FA00F010F8612000F042
:101AA00041F8642000F0FEF9FFF7A6FF0546FFF7B6
:101AB00083FF00F01DF8284670BD000010B501201E
:101AC000094908600949C1F8A401322000F0EAF987
:101AD000002005490860322000F0E4F900200349A5
:101AE000C1F8A40110BD0000B08121420080214254
:101AF00010B5002009490860322000F0D3F9012018
:101B00000749C1F8A401322000F0CCF901200349B3
:101B10000860322000F0C6F910BD0000B0812142FB
:101B20000080214270B5044600261BE004F08000CE
:101B300018B101202349086002E000202149086013
:101B40006006040E322000F0ADF901201D490C3969
:101B50000860322000F0A6F900201B49C1F8A4015A
:101B6000701CC6B2082EE1DB1848006820F4702013
:101B7000164908600846006840F4002008603220DA
:101B800000F090F901200F490C390860322000F074
:101B900089F90D48D0F8300108B1012500E0002591
:101BA000002008490C3908600848006820F47020BB
:101BB000064908600846006840F44030086028463E
:101BC00070BD0000B081214200802142040C014020
:101BD00070B505460C460026FFF770FF6020FFF742
:101BE000A1FF00B10126642000F05CF92846FFF750
:101BF00099FF00B10126642000F054F92046FFF758
:101C000091FF00B10126FFF773FF304670BD7047AA
:101C100010B500F001F810BD1CB500200190009037
:101C20003548006840F480303349086000BF3248CE
:101C3000006800F4003000900198401C019000986A
:101C400018B90198B0F5405FF1D12B48006800F455
:101C5000003010B10120009001E0002000900098B9
:101C6000012847D124484068234948600846406815
:101C700020F4605048600846406840F400504860D6
:101C80000846406820F4E06048600846406840F438
:101C90008060486008464068184908401649486016
:101CA00008464068164908431349486008460068DA
:101CB00040F08070086000BF0F48006800F00070BE
:101CC0000028F9D00120FFF71FFE0B48406820F0E4
:101CD0000300094948600846406840F00200486037
:101CE00000BF0548406800F00C000828F9D100202A
:101CF000FFF70AFE1CBD000000100240FFFFC01FDE
:101D0000000035A010B50446042C01D0601D00B9B8
:101D100003E0BE210BA000F088F8042C08D14FF09E
:101D2000E020006940F004004FF0E021086107E086
:101D30004FF0E020006920F004004FF0E02108613E
:101D400010BD00002E2E5C2E2E5C2E2E5C2E2E5CE6
:101D50004C69627261726965735C41543332463416
:101D600078785F5374645065726970685F44726913
:101D70007665725C7372635C6D6973632E630000D9
:101D80007047000010B51A48006840F47000184908
:101D900008601848006840F00100164908600846CD
:101DA00040681549084013494860084600681349CF
:101DB0000840104908600846006820F48020086048
:101DC000084640680E4908400A4948600846006BCA
:101DD0000C490840074908634FF41F008860FFF76B
:101DE00017FF4FF0006002498039086010BD000005
:101DF00088ED00E0001002400C00FFE8FFFFF6FE57
:101E0000FFFF001700FFFEFE00BFFEE702E008C86C
:101E1000121F08C1002AFAD170477047002001E064
:101E200001C1121F002AFBD1704700BFFEE700006E
:101E300010B504466FF00400FFF764FFE11704EBF0
:101E40005171C1F3C701074A11701046007800EBC9
:101E50004001C1EBC0104FF6FF7101EAC00002491A
:101E6000088010BD1C0000201E00002070B5044634
:101E70004FF4077094FBF0F0C6B24FF4077094FB78
:101E8000F0F100FB114085B205E04FF4077000F05F
:101E90002FF8701EC6B2002EF7D115B1284600F0FB
:101EA00027F870BD0146114A12784A434FF0E023EB
:101EB0005A6100229A611A46126942F001021A61BF
:101EC00000BF4FF0E022106900F001021AB100F4E7
:101ED0008032002AF5D04FF0E022126922F0010290
:101EE0004FF0E0231A6100229A6170471C00002025
:101EF0000146114A12884A434FF0E0235A610022FA
:101F00009A611A46126942F001021A6100BF4FF04D
:101F1000E022106900F001021AB100F48032002AB8
:101F2000F5D04FF0E022126922F001024FF0E023D9
:101F30001A6100229A6170471E000020F020FFF70E
:101F400077FF1248FFF79EF81148FEF709FC4FF49F
:101F5000C060FFF757FBFEF75FF9FEF7DBF9FEF70E
:101F60002DFAFEF775FAFFF7C5F8EF2340F23F129E
:101F700000210846FFF76EFA6420FFF777FFFFF7AE
:101F80007FFBFEF701FB00BFFEE700000000002022
:101F90000400002010B50021FF20FFF719FE0F21DB
:101FA000D320FFF715FE0121FF20FFF711FE0321CB
:101FB0001120FFF70DFE10BD0146CA10D2028B1092
:101FC00042EA431242EAE1007047FF002CFF2EDF95
:101FD000FF013C321100090204D813E514482C0C0F
:101FE00033783A333BFB3E0043111610399235DA11
:101FF000221A37C3230034C0361A068807C00D875B
:102000000E414C0048005B0042034A812199244064
:10201000253826825C00630046000C3C61706280BB
:102020007C05208028306C006D806E0070027194F9
:1020300073C13D345A5712001711187519011A97B8
:102040003236030F37404FCA50A85A236D006D38FF
:10205000FF00E57FF9C04124E01476FF33A0422061
:1020600043184C0087D5883FD703D910D382C808BE
:10207000C9807C007D007C037D487D487C087D20F4
:102080007D107D0E9000910E911A9131915A9169B7
:102090009175917E9188918F919691A391AF91C402
:1020A00091D791E891209200930693E393059305CD
:1020B0009300930493009300930093009300930084
:1020C00093009600970897199702970C97249730DA
:1020D0009728972697029798978097009700C3EFC5
:1020E000A400A800C511C651BF80C710B666B8A528
:1020F000B764B97CB3AFB497B5FFB0C5B194B20FB4
:10210000C45CC0C8C1968C00863D50005190522CD2
:102110005300540055885A905B2C5C05D302C3EDE4
:102120007F00DA09E51FE167E000DD7F0500FF00C1
:102130002CFF2EDFFF013C321100090204D813E509
:1021400014482C0C33783A333BFB3E0043111610F5
:10215000399235DA221A37C3230034C0361A06887A
:1021600007C00D870E414C0048005B0042034A81C6
:1021700021992440253826825C00630046220C3CCD
:10218000617062807C05208028306C006D806E005C
:102190007002719473C13D345A571240171118439D
:1021A00019001A4B320937C04FCA50A85A236D0084
:1021B0003D38FF00E57FF9C04124E01476FF33A0ED
:1021C000422043184C0087D5883FD703D910D382CB
:1021D000C808C9807C007D007C037D487D487C0860
:1021E0007D207D107D0E9000910E911A9131915AB3
:1021F00091699175917E9188918F919691A391AFFC
:1022000091C491D791E891209200930693E39305AE
:10221000930593009304930093009300930093001D
:10222000930093009600970897199702970C9724AC
:10223000973097289726970297989780970097004E
:10224000C3EDA400A800C511C651BF80C710B66673
:10225000B8A5B764B97CB3AFB497B5FFB0C5B194B6
:10226000B20FC45CC064C14B8C00863D500051C8A5
:1022700052965300540055005AC85B965C00D30236
:10228000C3ED7F00DA09E51FE167E000DD7F0500AF
:10229000FF00DA10D703DF0033803C40E177000015
:1022A000FF01E014E177E51FD703DA10E000FF003B
:1022B000DA09D703DF0233A03C00E167FF01E00049
:1022C000E100E500D700DA00E000FF012420251836
:1022D0002660FF012434251C2600FF01243E2538FA
:1022E0002681FF01244825402681FF0124582550DE
:1022F000269200002E2E5C2E2E5C2E2E5C2E2E5C46
:102300004C69627261726965735C41543332463460
:1023100078785F5374645065726970685F4472695D
:102320007665725C7372635C61743332663478789C
:102330005F657874692E63002E2E5C2E2E5C2E2E27
:102340005C2E2E5C4C69627261726965735C4154EB
:102350003332463478785F537464506572697068BC
:102360005F4472697665725C7372635C6174333268
:10237000663478785F6770696F2E63002E2E5C2E4E
:102380002E5C2E2E5C2E2E5C4C6962726172696529
:10239000735C41543332463478785F5374645065CB
:1023A000726970685F4472697665725C7372635CAF
:1023B00061743332663478785F7263632E63000031
:1023C000E0230008000000207C0000000C1E000834
:1023D0005C2400087C00002014C601001C1E0008BC
:1023E00000000000000000000000000000000000ED
:1023F0008A00002000000000000000000000000033
:1024000000000000001401400014014000140140CD
:1024100000000020004000800000000020000000BC
:1024200020000000200000000008014000100140D2
:102430000100002004000000100000000000000067
:102440000000000001000000001C4E0E0000000013
:0C24500000000000010203040607080958
:040000050800017D71
:00000001FF
