:020000040800F2
:10000000C0620120910100086D160008F515000876
:100010006916000839040008B53600080000000021
:10002000000000000000000000000000372300086E
:10003000390C000800000000ED1B0008D52E000858
:10004000AB010008AB010008AB010008AB010008E0
:10005000AB010008AB010008AB010008F50D00087A
:10006000F90E0008950F0008AB010008AB0100086D
:10007000AB010008AB010008AB010008AB010008B0
:10008000AB010008AB010008AB01000831340008E7
:1000900065350008AB010008AB010008AB010008A2
:1000A000AB010008AB010008AB010008AB01000880
:1000B000AB010008AB010008AB010008AB01000870
:1000C000AB010008AB010008AB010008AB01000860
:1000D000AB010008AB010008AB010008AB01000850
:1000E000AB010008AB01000825340008AB01000893
:1000F000AB010008AB010008AB010008AB01000830
:10010000AB010008AB010008AB010008AB0100081F
:10011000AB010008AB010008AB010008AB0100080F
:10012000AB010008AB010008AB010008AB010008FF
:10013000AB010008AB010008AB010008AB010008EF
:1001400000000000000000000000000000000000AF
:10015000AB010008AB010008AB010008AB010008CF
:1001600081020008AB010008AB010008AB010008E8
:10017000AB010008AB010008AB010008DFF80CD0B0
:1001800000F018F8004800477D390008C0620120DF
:100190000648804706480047FEE7FEE7FEE7FEE721
:1001A000FEE7FEE7FEE7FEE7FEE7FEE7D92E0008E2
:1001B0007D010008064C074D06E0E06840F00103B1
:1001C00094E8070098471034AC42F6D3FFF7DAFF03
:1001D000783E0008983E000870B58C1810F8015B56
:1001E00015F0070301D110F8013B2A1106D110F8D0
:1001F000012B03E010F8016B01F8016B5B1EF9D1D4
:100200002B0705D40023521E0DD401F8013BFAE759
:1002100010F8013BCB1A921C03E013F8015B01F8C4
:10022000015B521EF9D5A142D8D3002070BD000059
:10023000012805D10749096821F00101054A11602B
:10024000022805D10349096821F00201014A116021
:100250007047000000580140024A12680243014BF7
:100260001A6070470458014001460020034A126892
:100270000A400AB1012000E0002070470058014008
:1002800010B50120FFF7F0FF012801D1FFF7D0FFE3
:100290000220FFF7E9FF012802D10220FFF7C8FF83
:1002A00010BD000029B1074A12680243054B1A60CD
:1002B00006E0044A1268C3439BB21A40014B1A601D
:1002C0007047000004580140014908607047000071
:1002D0000C58014001490860704700001058014067
:1002E00001490860704700001458014038B50446C1
:1002F0000B4951F82400012101F002FD684601F08C
:100300002BF9084830F81400ADF8000028208DF8CB
:100310000300054951F82400694600F09FFF38BDED
:100320009C010020980100209001002010B500F0F1
:1003300085FC012000F016F8022000F013F80320DD
:1003400000F010F8012000F031F8022000F02EF843
:10035000032000F02BF80020FFF7C8FF0120FFF773
:10036000C5FF10BD38B504460D4951F824000121E0
:1003700001F0C6FC684601F0EFF80A4830F81400B6
:10038000ADF8000010208DF8030002208DF8020067
:10039000054951F82400694600F060FF38BD0000AF
:1003A000800100207801002068010020032800DD82
:1003B0007047064931F8101031B1044931F8101076
:1003C000034A52F82020116100BFF1E778010020B4
:1003D00068010020032800DD7047064931F810103D
:1003E00031B1044931F81010034A52F8202051610C
:1003F00000BFF1E7780100206801002008B5012165
:10040000042001F07DFC684601F0A6F84FF4C050CE
:10041000ADF8000010208DF8030002208DF80200D6
:100420006946044800F01AFF4FF48051014800F07B
:10043000F7FF08BD0008014000BFFEE70146CAB251
:100440000B1243EA0220704710B500244DE047F636
:10045000FF702B4908602B48008800F00F002A49E4
:1004600008700846007800B910BD27480078274971
:1004700001EB8000D0F8000C84B204F40040C8B155
:100480002148007801EB8000D0F8000CC0F30E008A
:1004900048F68F7108401C4909781C4A02EB81011B
:1004A000C1F8000C18490978491E194A52F8210070
:1004B00080471AE004F08000B8B11348007813496F
:1004C00001EB8000D0F8000C48F60F7108400E498F
:1004D00009780E4A02EB8101C1F8000C0A4909783B
:1004E000491E0C4A52F8210080470548006880B236
:1004F0000449088000F400400028A8D100BFB3E7F9
:10050000445C004054000020D8010020005000400E
:10051000740000205800002008B50020009022E15F
:100520009748008800F00F00964908700846007848
:1005300000287CD1944800689449088008460088C7
:1005400000F03000924908809048008800F4405044
:100550008E4908808C4909684BF6BF7201EA020097
:1005600080F4005080F0200040F4004141F0800110
:10057000854A11608248008800F0100090BB104648
:10058000006848F60F7108401146086001F034F821
:100590007D4909684BF6BF7201EA02007B49098870
:1005A00001F4805109B180F480507849098801F440
:1005B000005109B180F400507549098801F010011B
:1005C00009B180F010007249098801F0200109B1D9
:1005D00080F0200081B241F4004141F080016A4A7C
:1005E000116008BDFFE76848006880B20090BDF860
:1005F000000000F40060B0B363480068C0F30E0070
:1006000048F68F7108406049086002F07FF95E4942
:1006100009684BF6BF7201EA02005C49098801F4DF
:10062000805109B180F480505849098800E056E0B3
:1006300001F4005109B180F400505549098801F0D6
:10064000100109B180F010005149098801F0200122
:1006500009B180F0200081B241F4004141F08001F5
:10066000494A1160BDE7FFE7BDF8000000F4004013
:10067000002878D044480068C0F30E0048F68F7117
:1006800008404149086001F075FA3F4909684BF696
:10069000BF7201EA02003D49098801F4805109B1A5
:1006A00080F480503949098801F4005109B180F47F
:1006B00000503749098801F0100109B180F010009D
:1006C0003349098801F0200109B180F0200081B28E
:1006D00041F4004141F080012B4A116081E7294833
:1006E00000782C4901EB8000D0F8000C80B200901B
:1006F000BDF8000000F40040C0B12248007801EBD2
:100700008000D0F8000CC0F30E0048F68F7108404E
:100710001C4909781F4A02EB8101C1F8000C1949F4
:100720000978491E1C4A52F821008047BDF8000094
:1007300000F08000B8B113480078164901EB800042
:10074000D0F8000C48F60F7108400E490978114A9C
:1007500002EB8101C1F8000C0A490978491E0F4AD1
:1007600052F82100804708484430006880B20449AC
:10077000088000F4004000287FF4D2AE00BF30E7CC
:1007800054000020D8010020005C0040EC01002053
:10079000EE010020005000407400002058000020AE
:1007A0000B4A02EB8001D1F8001C01F4804171B1C9
:1007B00002EB8001D1F8001C48F68F7211404CF218
:1007C00080021143024B03EB8002C2F8001C704709
:1007D000005000400B4A02EB8001D1F8001C01F0F0
:1007E000400171B102EB8001D1F8001C48F68F7214
:1007F000114048F2C0021143024B03EB8002C2F8E1
:10080000001C704700500040084A02EB8001D1F8FC
:10081000001C48F68F62114048F280021143034BDE
:1008200003EB8002C2F8001C70470000005000403B
:100830002DE9F0472848006800F110052E88264869
:100840000068077ADEB9042F19D1244800780128FE
:1008500010D100212248006880B2801C214A126811
:1008600042F8101030202049088000BF00201B49AA
:10087000087003E0072710201B49088027E0AC8898
:10088000A64201D8042000E002200746B44200D965
:100890003446A0B2A96888478046002000F076FE62
:1008A0008146A2B24946404603F010F8A1B20020AA
:1008B00001F0F6FE2888001B2880688820446880A4
:1008C00030200949088000020849088000BF024919
:1008D00009680F72BDE8F087DC010020D601002016
:1008E000505C0040F0010020EE010020EC010020EF
:1008F0002DE9F0412548006800F110042688A06821
:10090000C0B1BEB1A588B54200D93546A8B2A1682C
:10091000884707462088401B2080608828446080E4
:10092000002000F021FE8046AAB24146384601F080
:1009300049F900BF208818B14FF44050144908808D
:100940002088A188884204DB0320104909680872C6
:1009500019E02088002804DD05200C490968087288
:1009600011E0208878B9062008490968087200213A
:100970000848006880B2801C074A126842F81010CC
:10098000302006490880BDE8F0810000DC0100202D
:10099000EC010020505C0040F0010020EE0100203E
:1009A0002DE9F84F9B48006845780027BA46062D88
:1009B0001BD198480068007800F07F00002813D110
:1009C000944909688878012803D193490968CF6957
:1009D0000AE0022803D1904909680F6A04E003285D
:1009E00002D18D4909684F6A94E0002D64D189488D
:1009F0000068408800285FD186480068C0880228C7
:100A00005AD1844800680079002855D1814800688F
:100A1000007800F07F0028B97E480068808808B917
:100A20007E4F77E07B480068007800F07F00012867
:100A300010D1784909684879774909688A6900219D
:100A40009047002866D173480068807A002861D0FA
:100A5000724F5FE06F480068007800F07F00022866
:100A600058D16C480068407900F00F06694800686A
:100A7000407900F0700967480068407900F0800014
:100A800038B1674901EB8600D0F8000C00F030085F
:100A900006E0634901EB8600D0F8000C00F44058F2
:100AA00060480078B04235D9B9F1000F32D1B8F1C1
:100AB000000F2FD0594F2DE0082D07D15548006861
:100AC000007800F07F0028BB574F23E00A2D21D18A
:100AD00050480068007800F07F0001281AD14D4886
:100AE0000068807AB0B14B480068408890B94948A6
:100AF0000068007970B947480068C088012809D1AA
:100B0000444909684879444909688A69002190473D
:100B100000B9464F57B13F480068A0F812A03D48C1
:100B2000006887610020B84700240FE0394A126846
:100B30005078394A1268116988470446032C05D158
:100B40000920344909680872BDE8F88F3148006807
:100B5000008A4FF6FF71884204D109202D490968A7
:100B60000872F1E7022C03D02A480068008A20B9F5
:100B70000820284909680872E6E7264800680078D6
:100B800000F08000E0B323480068C088009021484E
:100B90000068008A0099884204D91E4900980968B3
:100BA000088223E01B480068008A1A490968C9883E
:100BB00088421BDA17480068008A1749096891F8CB
:100BC0002C10884203DA0020194908700EE0114801
:100BD0000068008A1049096891F82C1090FBF1F226
:100BE00001FB120010B90120114908700A48006881
:100BF00090F82C10074800688182FFF719FE07E083
:100C0000FFE70320034909680872000309490880C7
:100C100000BF99E7DC010020E0010020B12B0008B3
:100C200000500040D4000020352B0008852B000820
:100C3000D6010020EC0100207047000010B56FF0D5
:100C4000040002F00BF90B4890ED000AB8EE400AE0
:100C5000DFED090A80EE201A084880ED001A90EDB9
:100C6000000ADFED070A20EE200A064880ED000AA0
:100C700010BD0000B00100200024F44AA4010020AF
:100C800000007A44A801002043E0B0F5FA7F11DDAE
:100C9000214A92ED000ADFED210A20EE200ABCEE87
:100CA000C00A10EE102A4FF0E0235A61A0F5FA7244
:100CB00090B210E000EE100AB8EE400A164AD2EDEB
:100CC000000A20EE200ABCEEC00A10EE102A4FF0F7
:100CD000E0235A61002000224FF0E0239A611A4677
:100CE000126942F001021A6100BF4FF0E02211695F
:100CF00001F001021AB101F48032002AF5D04FF060
:100D0000E022126922F001024FF0E0231A61002272
:100D10009A610028B9D17047A80100200000FA4369
:100D200000EE100AB8EE400A144AD2ED000A20EE96
:100D3000200ABCEEC00A10EE102A4FF0E0235A61E0
:100D400000229A611A46126942F001021A6100BF3C
:100D50004FF0E022116901F001021AB101F4803272
:100D6000002AF5D04FF0E022126922F001024FF084
:100D7000E0231A6100229A6170470000A40100205C
:100D800010B502F0F3FB10BD10B50121042000F0F6
:100D9000B7FF0220134908804820C87002208870DD
:100DA000114800F05BFA0121084600F0A9FF01217B
:100DB000002000F0D9F902200C49086000200871D9
:100DC0001020487101208871084600F02DF9072095
:100DD00007490870002048708870C870084600F005
:100DE00047FC10BD00000020000801400400002066
:100DF0000C00002010B51B480068012803D1000238
:100E00001949086029E01948006830B3184800788B
:100E100058B1002016490870144800681549086048
:100E2000154800681549086014E04FF480700E49B9
:100E30008031086040004FF0E021C1F880010120BE
:100E40000B490870094800680D4908600D480068A2
:100E50000A490860002005490860022000F0B4F843
:100E600010BD00000401214200E100E0300000203C
:100E70002000002028000020100000201C0000207E
:100E8000240000201400002010B50121042000F0EF
:100E900037FF0420144908804820C8700220887059
:100EA000124800F0DBF90121084600F029FF022179
:100EB000002000F059F904200D4908600020087155
:100EC0001020487101208871084600F0ADF8082014
:100ED0000849087000204870012088700020C87000
:100EE000084600F0C5FB10BD0000002000080140CE
:100EF000040000200C00002010B5084800680128FC
:100F000003D140020649086004E04FF40070044930
:100F100080310860042000F057F810BD080121421C
:100F200000E100E010B50121042000F0E9FE0820F6
:100F3000144908804820C87002208870124800F0C8
:100F40008DF90121084600F0DBFE0321002000F0AE
:100F50000BF908200D49086000200871082048712D
:100F600001208871084600F05FF8092008490870E0
:100F700000204870022088700020C870084600F0E9
:100F800077FB10BD00000020000801400400002095
:100F90000C00002010B5094800680949096808706C
:100FA00007480068401C0649086006480068401C65
:100FB00004490860082000F007F810BD081401403B
:100FC0001C0000203000002010B50446200D000554
:100FD00008B904B103E0F42102A002F0C4FC1148F6
:100FE000046010BD2E2E5C2E2E5C4C696272617204
:100FF0006965735C41543332463478785F53746466
:101000005065726970685F4472697665725C73726C
:10101000635C61743332663478785F657874692E06
:10102000630000001404014070B5044600252079D7
:1010300010B12079042800D103E05F2135A002F02F
:1010400092FC6079082805D060790C2802D060797C
:10105000102800D103E060212EA002F084FC20685B
:101060006FF3130010B9206800B103E0612129A0DB
:1010700002F079FCA07910B1A079012800D103E039
:10108000622124A002F06FFC324DA07990B3284673
:1010900000682168884329460860081D00682168A7
:1010A0008843291D08602079054428682168084381
:1010B000286028480830006821688843254908319D
:1010C0000860081D00682168884322490C310860C7
:1010D000607910280FD1081F0068216808431D4956
:1010E00008310860081D00682168084319490C315F
:1010F00008600EE007E0174D607905442868216814
:101100000843286005E02079054428682168884361
:10111000286070BD2E2E5C2E2E5C4C69627261724E
:101120006965735C41543332463478785F53746434
:101130005065726970685F4472697665725C73723B
:10114000635C61743332663478785F657874692ED5
:1011500063000000000401400021016001710C21C6
:10116000417100218171704770B505460C4600261B
:101170005DB1012D09D0022D07D0032D05D0042D1E
:1011800003D0052D01D0062D00D104E040F26A41C4
:1011900021A002F0E8FBECB1012C1BD0022C19D0ED
:1011A000032C17D0042C15D0052C13D0062C11D0ED
:1011B000072C0FD0082C0DD0092C0BD00A2C09D0ED
:1011C0000B2C07D00C2C05D00D2C03D00E2C01D0ED
:1011D0000F2C00D104E040F26B410FA002F0C3FBE2
:1011E000A007010F0F2000FA01F61B48A11050F8CC
:1011F0002100B0431849A21041F822000846A1106E
:1012000050F82100A107090F05FA01F1084312491E
:10121000A21041F8220070BD2E2E5C2E2E5C4C696F
:10122000627261726965735C415433324634787816
:101230005F5374645065726970685F447269766563
:10124000725C7372635C61743332663478785F67A2
:1012500070696F2E63000000080001402DE9F05F07
:1012600005460C464FF00009CA4600260027B04646
:10127000B346564885420BD05548854208D055485C
:10128000854205D05448854202D05448854200D159
:1012900003E0AC2152A002F066FBE078A0B1E07858
:1012A000042811D0E07828280ED0E07848280BD008
:1012B000E078142808D0E078102805D0E0781C28C1
:1012C00002D0E078182800D103E0AD2144A002F05C
:1012D0004AFB002010B9208800B103E0AE2140A0F5
:1012E00002F041FBE07800F00F09E07800F0100018
:1012F00080B1A078012805D0A078022802D0A0787B
:10130000022800D103E0B62135A002F02CFBA07822
:1013100040EA0909207838B3D5F8008000261FE09C
:10132000012000FA06F7208800EA070ABA4516D11C
:10133000B7000F2000FA07FB28EA0B0809FA07F0AC
:1013400040EA0808E078282803D10120B04068610D
:1013500005E0E078482802D10120B0402861761CE1
:10136000082EDDD3C5F800802088FF282BDDD5F8B6
:101370000480002623E006F10800012101FA00F7AD
:10138000208800EA070ABA4518D1B7000F2000FAF2
:1013900007FB28EA0B0809FA07F040EA0808E0789A
:1013A000282803D106F1080081406961E0784828C7
:1013B00004D106F10800012181402961761C082E24
:1013C000D9D3C5F80480BDE8F09F000000080140B3
:1013D000000C0140001001400014014000180140C1
:1013E0002E2E5C2E2E5C4C69627261726965735C94
:1013F00041543332463478785F537464506572696F
:1014000070685F4472697665725C7372635C617464
:101410003332663478785F6770696F2E630000003E
:1014200070B504460D46104884420BD00F488442E4
:1014300008D00F48844205D00E48844202D00E489E
:10144000844200D104E040F281110CA002F08BFA3A
:10145000002008B905B104E04FF4C17107A002F003
:1014600082FA656170BD000000080140000C014077
:101470000010014000140140001801402E2E5C2E87
:101480002E5C4C69627261726965735C41543332DF
:10149000463478785F5374645065726970685F444D
:1014A00072697665725C7372635C61743332663440
:1014B00078785F6770696F2E6300000070B504462E
:1014C0000D46104884420BD00F48844208D00F4884
:1014D000844205D00E48844202D00E48844200D196
:1014E00004E040F271110CA002F03DFA002008B9AE
:1014F00005B104E04FF4B97107A002F034FA256198
:1015000070BD000000080140000C014000100140C7
:1015100000140140001801402E2E5C2E2E5C4C69F8
:10152000627261726965735C415433324634787813
:101530005F5374645065726970685F447269766560
:10154000725C7372635C61743332663478785F679F
:1015500070696F2E630000004FF6FF710180022159
:1015600081700421C170704701460648006880B24E
:1015700000EBC100001D044A126832F8100080B26E
:1015800070470000505C0040F00100200146054813
:10159000006880B200EBC100034A126832F8100004
:1015A00080B27047505C0040F001002010B50F4B36
:1015B00018681B1D1A681B1D19680844A8B10C4C3B
:1015C000A070030A2371030CA371030E2372A2728D
:1015D000130A2373130CA373130E2374A1740B0A41
:1015E00023750B0CA3750B0E237610BDE8F7FF1FB8
:1015F0003800002000BFFEE710B518480068047AE4
:10160000022C01D0042C05D1FFF712F91348006811
:10161000047A1CE0062C19D110480068407805288F
:101620000ED10E480068007800F07F0040B90B49E9
:101630000968C87800F080FE09490968086A80478F
:101640000849096888688047082400E0082403499D
:1016500009680C7200F0CCFA10BD0000DC0100201B
:10166000E8010020E001002000BFFEE7704770475E
:101670002DE9F0410446002500270F26E07810B13F
:10168000E078012800D103E0692121A002F06BF984
:101690006078102800DA03E06A211DA002F063F9E7
:1016A000A078102800DA03E06B2119A002F05BF9A2
:1016B000E07800B32448006800F4E060C0F5E06022
:1016C000050AC5F10407EE40607800FA07F5A07836
:1016D000304005432D011D4822788554207800F0C4
:1016E0001F010120884021784911890001F1E02182
:1016F000C1F8000109E0207800F01F0101208840B6
:1017000013492278521141F82200BDE8F08100000F
:101710002E2E5C2E2E5C4C69627261726965735C60
:1017200041543332463478785F537464506572693B
:1017300070685F4472697665725C7372635C6D6930
:1017400073632E63000000000CED00E000E400E095
:1017500080E100E010B50446B4F5E06F0BD0B4F5BD
:10176000C06F08D0B4F5A06F05D0B4F5806F02D07B
:10177000B4F5407F00D103E0572104A002F0F3F854
:10178000104820431049086010BD00002E2E5C2E2A
:101790002E5C4C69627261726965735C41543332CC
:1017A000463478785F5374645065726970685F443A
:1017B00072697665725C7372635C6D6973632E63C4
:1017C000000000000000FA050CED00E070B50226F4
:1017D00047480068447846480068007800F07F0079
:1017E000002844D1092C03D101F062FA06465FE0DB
:1017F000052C14D13E480068C0787F280BDC3C489B
:101800000068807838B93A480068808818B9384844
:101810000068807A08B1082566E0002648E0032CBD
:101820000ED133480068C078012807D130480068DD
:10183000808818B901F060FA064639E0022637E0E0
:10184000012C35D12A480068C07801280DD12848DC
:101850000068808848B926480068407A00F0200077
:1018600018B101F0B1F8064622E0022620E0204837
:101870000068007800F07F00012805D10B2C17D1FB
:1018800001F0B6FA064613E019480068007800F047
:101890007F0002280BD1012C03D101F095F80646F8
:1018A00006E0032C04D101F03BFA064600E00226D4
:1018B0004EB1E0B20F4A1268516988470646032EBE
:1018C00001D1092510E00EB108250DE00625002103
:1018D0000948006880B2801C084A126842F810105B
:1018E00030200749088000BF014909680D7270BDAA
:1018F000DC010020E0010020505C0040F0010020ED
:10190000EE01002038B500250121392000F0F8F95A
:101910000220ADF8000048208DF8030069465648C3
:10192000FFF79CFC02215448FFF7C8FD0420ADF8E6
:10193000000048208DF8030069464F48FFF78EFCF1
:1019400004214D48FFF7BAFD0820ADF800004820FB
:101950008DF8030002208DF8020069464648FFF723
:101960007DFC08214448FFF7A9FD8020ADF8000068
:1019700010208DF8030069464048FFF76FFC802176
:101980003E48FFF79BFDFF20ADF8000048208DF892
:10199000030002208DF8020069463948FFF75EFC1B
:1019A0004FF40040ADF8000010208DF803006946A8
:1019B0003448FFF753FC4FF400413248FFF77EFDF7
:1019C0000020314908603149C1F8BC011420FFF7FB
:1019D0005BF901202E49086000F04AFB0121FF203D
:1019E00000F08AFC8021122000F086FC6420FFF7C2
:1019F0004BF91C2000F0CEFB04464FF6FF7000EAC6
:101A000004241D2000F0C6FB044347F6A270844264
:101A100001D0012038BD0A2000F0BCFB04464FF67F
:101A2000FF7000EA04240B2000F0B4FB044342F2F0
:101A30004260844201D00220ECE700250AE0154A0A
:101A400002EB45025178134A12F8150000F054FCDD
:101A5000681C85B2B22DF2D34FF4FA70FFF714F977
:101A600000F01AF84FF4F0714FF4207000F03AF8DB
:101A700001F0D8FF0020CDE7000801400010014030
:101A800000140140000C01409C01224200802142D0
:101A9000BC812142483A000810B5002400BF0AE08A
:101AA0000E4A02EB440251780C4A12F8140000F07E
:101AB00023FC601C84B2082CF2D300240AE0084AFC
:101AC00002EB44025178064A12F8140000F014FCAC
:101AD000601C84B2072CF2D310BD00000E3D00083C
:101AE0001E3D00082DE9F04104460D46E11704EBC8
:101AF00091718910A4EB810111B10120BDE8F08141
:101B0000E91705EB91718910A5EB810109B102205C
:101B1000F4E72046E11704EB9171C1F38F072846E3
:101B2000E91705EB9171C1F38F060021FF2000F04A
:101B3000E3FB0421E02000F0DFFB8921502000F0CE
:101B4000DBFBF9B25A2000F0D7FBF1B25B2000F0CA
:101B5000D3FBC7F30128042000EAA61040EA0808D6
:101B600041465C2000F0C8FB0021E02000F0C4FBEF
:101B70000020C3E710B511480068047A022C01D098
:101B8000042C01D1082412E0032C01D0052C05D12E
:101B9000FEF7AEFE09480068047A08E0072C05D17C
:101BA00007490968C8688047082400E008240349F9
:101BB00009680C7200F01CF810BD0000DC01002068
:101BC000E0010020F0B5561C7510074E366806EB94
:101BD00041042B4605E034F8047B20F8017B401CCF
:101BE0005B1E002BF7D1F0BDF00100207047000014
:101BF00010B50D4890F82C10002000F0DDFC0B48CB
:101C00000068007A082805D14002094908801020A0
:101C10000849088005480068007A092801D1012098
:101C200010BD0020FCE70000D8000020DC010020EF
:101C3000EC010020EE01002001210B480160002092
:101C40000A4A108010460088074A10600020121DC2
:101C500010604FF4E050054A108010460088024A98
:101C60001060002070470000405C0040E60100204A
:101C700070B504460D461048204008B904B104E090
:101C800040F27E310DA001F06EFE0DB1012D00D1AC
:101C900004E040F27F3109A001F065FE2DB1174844
:101CA000C06920431549C86104E01448C069A043D5
:101CB0001249C86170BD0000003600C12E2E5C2E96
:101CC0002E5C4C69627261726965735C4154333297
:101CD000463478785F5374645065726970685F4405
:101CE00072697665725C7372635C617433326634F8
:101CF00078785F7263632E6300000000001002407A
:101D000070B504460D461048204008B904B104E0FF
:101D100040F25D310DA001F026FE0DB1012D00D184
:101D200004E040F25E3109A001F01DFE2DB117481C
:101D3000806920431549886104E014488069A04304
:101D40001249886170BD0000820107F82E2E5C2EBA
:101D50002E5C4C69627261726965735C4154333206
:101D6000463478785F5374645065726970685F4474
:101D700072697665725C7372635C61743332663467
:101D800078785F7263632E630000000000100240E9
:101D9000F0B50022002100240023484D6D6805F0B5
:101DA0000C0222B1042A05D0082A3ED105E0444D98
:101DB00005603DE0424D05603AE0404D6D68414EA2
:101DC00005EA06013D4D6D6805F4803401F0C0451B
:101DD00035B901F47015B5F5701F01D0022500E08A
:101DE000012501F0C046C1F3834747EA5666A919A9
:101DF0001CB9354D4D4305600BE0304D6D6805F461
:101E000000351DB1304D4D43056002E02C4D4D4372
:101E100005602A4D6D6805F000452DB92B4E05680B
:101E2000B54201D93546056002E0254D056000BF89
:101E300000BF224D6D68C5F30212204D6D6805F09C
:101E4000800515B1224DAD5C00E000252B460568EC
:101E5000DD404560194D6D68C5F30122174D6D6871
:101E600005F4806515B11A4DAD5C00E000252B46E8
:101E70004568DD408560114D6D68C5F3C1220F4D89
:101E80006D6805F4005515B1114DAD5C00E00025FD
:101E90002B464568DD40C560084D6D68C5F381324D
:101EA000064D6D6805F080550DB142F00402094DF4
:101EB000AB5CC568B5FBF3F50561F0BD00100240F1
:101EC00000127A0000003C6000093D0000A24A04B4
:101ED000C4010020CC01002010B504460CB1012C37
:101EE00000D104E040F224510EA001F03CFD012C91
:101EF0000BD11C48006B40F000701A49086308467B
:101F0000406D40F4807048650AE01648006B20F090
:101F10000070144908630846406D20F480704865DD
:101F200010BD00002E2E5C2E2E5C4C696272617218
:101F30006965735C41543332463478785F53746416
:101F40005065726970685F4472697665725C73721D
:101F5000635C61743332663478785F7263632E63D6
:101F6000000000000010024010B504460CB1012C26
:101F700000D104E04FF4A26109A001F0F4FC012CAF
:101F800006D11748406D40F030001549486505E01E
:101F90001348406D20F030001149486510BD000025
:101FA0002E2E5C2E2E5C4C69627261726965735CC8
:101FB00041543332463478785F53746450657269A3
:101FC00070685F4472697665725C7372635C617499
:101FD0003332663478785F7263632E6300000000EA
:101FE0000010024070B5044600258CB1B4F5800F96
:101FF0000ED0B4F5000F0BD0B4F5400F08D0B4F1FB
:10200000006F05D0B4F1046F02D0B4F1086F00D1B5
:1020100004E040F2192105A001F0A5FC1348456831
:1020200025F00C652543456070BD00002E2E5C2E0A
:102030002E5C4C69627261726965735C4154333223
:10204000463478785F5374645065726970685F4491
:1020500072697665725C7372635C61743332663484
:1020600078785F7263632E63000000000010024006
:1020700008B501210820FFF743FE4FF48050ADF86A
:10208000000048208DF8030002208DF80200694608
:102090001248FFF7E3F84FF480511048FFF70EFAAB
:1020A0004FF40070ADF8000010208DF80300694671
:1020B0000A48FFF7D3F84FF400710848FFF7FEF91C
:1020C0000648001D006820F470200449091D0860BE
:1020D0000846006840F44030086008BD000C01402C
:1020E00010B53220FEF71CFE01200B4908600B4999
:1020F000C1F8A4013220FEF713FE002006490C3976
:1021000008603220FEF70CFE00200449C1F8B0013F
:102110003220FEF705FE10BDB08121420080214231
:1021200070B500241848006820F470201649086033
:102130000846006840F400200860082515E03220B9
:10214000FEF7EEFD0120114908606006040E1048FC
:10215000D0F8300108B1601CC4B23220FEF7E0FDB7
:1021600000200A490860681EC5B2002DE7DC064859
:10217000006820F47020044908600846006840F4B4
:1021800040300860204670BD040C0140A48121420B
:102190000080214270B50446002500F023F860203D
:1021A00000F054F86420FEF7BBFD204600F04EF826
:1021B0006420FEF7B5FD00F02FF86420FEF7B0FDB7
:1021C00000F010F8612000F041F86420FEF7A8FD4F
:1021D000FFF7A6FF0546FFF783FF00F01DF828462E
:1021E00070BD000010B50120094908600949C1F817
:1021F000A4013220FEF794FD00200549086032203A
:10220000FEF78EFD00200349C1F8A40110BD0000B7
:10221000B08121420080214210B5002009490860A8
:102220003220FEF77DFD01200749C1F8A4013220CC
:10223000FEF776FD0120034908603220FEF770FDAD
:1022400010BD0000B08121420080214270B50446DB
:1022500000261BE004F0800018B10120234908602B
:1022600002E00020214908606006040E3220FEF7DB
:1022700057FD01201D490C3908603220FEF750FD42
:1022800000201B49C1F8A401701CC6B2082EE1DB76
:102290001848006820F47020164908600846006855
:1022A00040F4002008603220FEF73AFD01200F497B
:1022B0000C3908603220FEF733FD0D48D0F83001AC
:1022C00008B1012500E00025002008490C3908600C
:1022D0000848006820F47020064908600846006835
:1022E00040F440300860284670BD0000B0812142B3
:1022F00000802142040C014070B505460C460026C2
:10230000FFF770FF6020FFF7A1FF00B101266420F6
:10231000FEF706FD2846FFF799FF00B1012664206D
:10232000FEF7FEFC2046FFF791FF00B10126FFF704
:1023300073FF304670BD704730B501460F4B1A78B9
:10234000002014E003060E4C04EB9353D3F8003C3A
:1023500048F68F74234048F280042343C4B22343D9
:102360000406074D05EB9454C4F8003C401C904211
:10237000E8D341F08003034C236030BDD40000203B
:10238000005000404C5C004030B50346012920D18C
:102390001648006880B200EBC300801C144D2D6805
:1023A00005EB40043E2A0BDD501102F01F050DB96C
:1023B000451EA8B24FF4004545EA8025256007E098
:1023C000501002F001050DB1451CA8B28502256030
:1023D0000BE0022909D10548006880B200EBC30078
:1023E000801C034C246844F8102030BD505C004031
:1023F000F001002030B50346012920D116480068BD
:1024000080B200EBC300801D144D2D6805EB400425
:102410003E2A0BDD501102F01F050DB9451EA8B272
:102420004FF4004545EA8025256007E0501002F092
:1024300001050DB1451CA8B2850225600BE00229FB
:1024400009D10548006880B200EBC300801D034C31
:10245000246844F8102030BD505C0040F00100209A
:1024600030B54B105C000B4B1B689BB203EBC003F9
:10247000094D2D6845F8134053105C00054B1B684F
:102480009BB203EBC0031B1D034D2D6845F81340A1
:1024900030BD0000505C0040F001002030B50B461C
:1024A000012B20D12E49096889B201EBC001891C9A
:1024B0002C4D2D6805EB41043E2A0BDD511102F035
:1024C0001F050DB94D1EA9B24FF4004545EA8125FF
:1024D000256007E0511002F001050DB14D1CA9B2B5
:1024E0008D0225600BE0022B09D11D49096889B2D4
:1024F00001EBC001891C1B4C246844F81120012BFE
:1025000020D11749096889B201EBC001891D154D19
:102510002D6805EB41043E2A0BDD511102F01F0529
:102520000DB94D1EA9B24FF4004545EA812525603D
:1025300007E0511002F001050DB14D1CA9B28D024A
:1025400025600BE0022B09D10549096889B201EB2E
:10255000C001891D034C246844F8112030BD0000DF
:10256000505C0040F0010020094A02EB8001D1F8E4
:10257000001C41F4807148F68F72114048F28002CD
:102580001143034B03EB8002C2F8001C70470000AC
:102590000050004010B54A105300054A126892B22C
:1025A00002EBC002121D034C246844F8123010BD27
:1025B000505C0040F001002010B502461048006851
:1025C00080B200EBC200801D0E4C246804EB400377
:1025D0003E290BDD481101F01F040CB9441EA0B2C6
:1025E0004FF4004444EA80241C6007E0481001F0E6
:1025F00001040CB1441CA0B284021C6010BD000098
:10260000505C0040F001002030B50E4C04EB80031C
:10261000D3F8003C4BF68F7403EA040201F48053B4
:102620000BB182F4805201F400530BB182F40052DA
:1026300042F4004343F08003024D05EB8004C4F8EC
:10264000003C30BD0050004010B50B4B03EB800246
:10265000D2F8002C4BF68F7302EA030181F480510B
:1026600081F4005141F4004242F08002024C04EB3C
:102670008003C3F8002C10BD0050004010B54A1074
:102680005300054A126892B202EBC002034C246860
:1026900044F8123010BD0000505C0040F0010020F2
:1026A000054A126892B202EBC002921C034B1B68EF
:1026B00043F8121070470000505C0040F001002009
:1026C00030B50E4C04EB8003D3F8003C48F6BF74E1
:1026D00003EA040201F010030BB182F0100201F0D2
:1026E00020030BB182F0200242F4004343F0800348
:1026F000024D05EB8004C4F8003C30BD00500040A2
:1027000010B5074B03EB8002D2F8002C48F68F136C
:102710001A400A43024C04EB8003C3F8002C10BD9E
:102720000050004010B500F001F810BD1CB50020AD
:10273000019000903548006840F4803033490860CB
:1027400000BF3248006800F4003000900198401C3F
:102750000190009818B90198B0F5405FF1D12B486D
:10276000006800F4003010B10120009001E000206A
:1027700000900098012847D12448406823494860C8
:102780000846406820F4605048600846406840F4BD
:10279000005048600846406820F4E0604860084601
:1027A000406840F480604860084640681849084026
:1027B000164948600846406816490843134948606E
:1027C0000846006840F08070086000BF0F4800684D
:1027D00000F000700028F9D00120FFF7C5FB0B487E
:1027E000406820F00300094948600846406840F00E
:1027F0000200486000BF0548406800F00C0008284F
:10280000F9D10020FFF7B0FB1CBD00000010024012
:10281000FFFFC01F00001DA010B50446012C3DD1D4
:1028200035480068354A811A904221D009DC344984
:10283000084478B14FEA6101084480B1084458BBAC
:1028400011E030480844C0B12E490844D0B10844D2
:1028500010BB1CE04FF48000FFF7C4FB1DE000201C
:10286000FFF7C0FB19E04FF44000FFF7BBFB14E09B
:102870004FF40000FFF7B6FB0FE04FF00460FFF7E6
:10288000B1FB0AE04FF00060FFF7ACFB05E04FF052
:102890000860FFF7A7FB00E000BF28E0022C26D16C
:1028A00001218805FFF72CFA01212020FDF7FAFC11
:1028B00001211020FDF7F6FC4FF4FA501249086090
:1028C00009880A3988B2FDF7FFFC0F49098888B2E8
:1028D000FDF700FD0C4909880A3188B2FDF700FDBB
:1028E00001210320FDF7B8FC0120FFF7F5FA0121D3
:1028F000C805FFF7BDF910BDB0010020000E270785
:10290000009423FD00CA91FE3400002038B5012454
:102910002A48006880B2001D2949096831F8100072
:1029200080B22749096801EB400000902548006803
:10293000007A092832D00098007822490968087086
:102940000098401C0090009800781E490968487063
:102950000098401C0090009800EB44000090009903
:1029600031F8020B0091FDF769FD164909684880AE
:10297000009800EB44000090009931F8020B0091A0
:10298000FDF75CFD0F4909688880009800EB440062
:102990000090009800880B490968C8800120094907
:1029A0000968087207480068C08810B9FEF70EFF72
:1029B00001E0FDF7F5FFFFF71BF938BD505C004063
:1029C000F0010020DC0100202DE9F04754480068A8
:1029D000007800F07F08B8F1000F0AD15048006875
:1029E000407A00F0DF004E49096848720020BDE8D7
:1029F000F087B8F1020F7CD149480068408818B9C7
:102A000047480068007908B10220F0E7DFF8149128
:102A100043480068477927F080052C464048006805
:102A2000407900F0800038B13F4901EB8400D0F8D4
:102A3000000C00F0300606E03B4901EB8400D0F8C2
:102A4000000C00F4405699F80000A84204D91EB1C9
:102A500033480068807A08B90220C8E707F0800090
:102A600080B1314901EB8400D0F8000C00F0300057
:102A700010284BD1E0B2FDF7ADFEE0B23021FFF7F8
:102A80001FFE43E0284901EB8400D0F8000C00F45D
:102A90004050B0F5805F39D1E4B9244A92F82C1047
:102AA000E0B2FFF789FD204A02EB8401D1F8001C57
:102AB0004BF68F7201EA020080F4805080F40050DF
:102AC00040F4004141F08001174B03EB8402C2F84F
:102AD000001C1BE0E0B2FDF763FE134A02EB840129
:102AE000D1F8001C4BF68F7201EA020080F480508E
:102AF00000E011E080F4005040F4004141F080011A
:102B0000094B03EB8402C2F8001C00BF08490968A6
:102B10004869804700206AE700BF022067E700009D
:102B2000DC010020D400002000500040D80000202C
:102B3000E801002010B504462CB9012006490968B7
:102B40000882002010BD05490968086880470248CE
:102B500000680A30F6E70000DC010020E8010020F0
:102B600010B5024606480068438A32B98888C01A00
:102B7000034C24682082002010BD08681844FBE73D
:102B8000DC01002010B504462CB901200649096873
:102B90000882002010BD05490968886880470248FE
:102BA00000680C30F6E70000DC010020E80100209E
:102BB00010B504462CB90220394909680882002062
:102BC00010BD00203749088035480068007800F0C3
:102BD0007F0018BB32490968487A00F0200131B102
:102BE0003049097841F002012E4A117005E02D4963
:102BF000097801F0FD012B4A117000F0400131B15C
:102C00002849097841F00101264A117005E025495B
:102C1000097801F0FE01234A11703AE0204800686B
:102C2000007800F07F00012801D11E48C8E71C4849
:102C30000068007800F07F00022828D1184A126846
:102C4000517901F00F0001F080027AB1164B03EBCD
:102C50008002D2F8002C02F03002102A16D1114A5C
:102C6000127842F001020F4B1A700FE00E4B03EB8B
:102C70008002D2F8002C02F44052B2F5805F05D1F8
:102C8000084A127842F00102064B1A7001E0002057
:102C900096E70649096808698047024890E70000FE
:102CA000DC010020D401002000500040E801002099
:102CB00010B50E480068C0780D494978884213DC89
:102CC0000A480068807878B908480068808858B950
:102CD00006480068C078054909688872054909688E
:102CE00048688047002010BD0220FCE7DC0100207E
:102CF000D4000020E801002010B507480068407AA1
:102D000040F0200004490968487204490968C8690C
:102D10008047002010BD0000DC010020E8010020F9
:102D20002DE9F0412E480068467926F080073C46A0
:102D30002B480068407900F0800038B1294901EB48
:102D40008400D0F8000C00F0300506E0254901EBC6
:102D50008400D0F8000C00F4405523480078A042CD
:102D600008D91F480068408820B91DB11C48006878
:102D7000807A10B90220BDE8F08106F08000A0B191
:102D8000184A02EB8401D1F8001C48F6BF7201EA30
:102D9000020080F0100040F4004141F08001114B2E
:102DA00003EB8402C2F8001C14E00E4A02EB84011B
:102DB000D1F8001C4BF68F7201EA020080F48050BB
:102DC00040F4004141F08001064B03EB8402C2F85D
:102DD000001C00BF05490968886980470020CAE7D0
:102DE000DC01002000500040D4000020E801002059
:102DF00010B5174B1B68D978154B1B685879154BC4
:102E00001B689A699047044611480068807AE8B1C7
:102E10003CB90F480068007918B90D4800688078FF
:102E200008B1022010BD8CB90B490968C8688047F9
:102E300007480068407906490968C8720448006874
:102E4000C0780349096808730020EBE70220E9E72E
:102E5000DC010020E0010020E801002010B504465C
:102E6000042C01D0601D00B903E0BE210BA000F0CE
:102E70007AFD042C08D14FF0E020006940F00400F6
:102E80004FF0E021086107E04FF0E020006920F0FA
:102E900004004FF0E021086110BD00002E2E5C2ED2
:102EA0002E5C4C69627261726965735C41543332A5
:102EB000463478785F5374645065726970685F4413
:102EC00072697665725C7372635C6D6973632E639D
:102ED000000000007047000010B51A48006840F478
:102EE0007000184908601848006840F00100164951
:102EF000086008464068154908401349486008467C
:102F0000006813490840104908600846006820F42A
:102F100080200860084640680E4908400A49486019
:102F20000846006B0C490840074908634FF41F002E
:102F30008860FFF7F7FB4FF00060024980390860B6
:102F400010BD000088ED00E0001002400C00FFE81A
:102F5000FFFFF6FEFFFF001700FFFEFE10B586B074
:102F6000044601210420FEF7CBFE01218803FEF771
:102F7000C7FE05A8FEF7F0FA4FF40070ADF8140094
:102F800002208DF8160018208DF8170005A91748A3
:102F9000FEF764F94FF48060ADF8140004208DF85A
:102FA000170005A91148FEF759F901A800F02EFAFB
:102FB00001940020ADF80800ADF80A00ADF80C004F
:102FC000ADF810000C20ADF80E0001A9084800F083
:102FD0000FF9012240F22551054800F063F8012164
:102FE000034800F007F806B010BD000000080140DB
:102FF0000038014070B504460D46154884420BD098
:103000001448844208D01448844205D013488442AE
:1030100002D01348844200D104E040F2571111A0BD
:1030200000F0A1FC0DB1012D00D104E04FF4AC7112
:103030000CA000F098FC25B1A08940F40050A081BC
:1030400004E0A0894DF6FF710840A08170BD00002A
:10305000003801400044004000480040004C00405F
:10306000005000402E2E5C2E2E5C4C696272617204
:103070006965735C41543332463478785F537464C5
:103080005065726970685F4472697665725C7372CC
:10309000635C61743332663478785F75736172741F
:1030A0002E6300002DE9F04705460C4617464FF009
:1030B0000008C246C1460026384885420BD0384831
:1030C000854208D03748854205D03748854202D02E
:1030D0003648854200D104E04FF4BF7134A000F0BF
:1030E00042FC282C19D040F22770844215D040F2BF
:1030F0002660844211D040F2255084420DD040F227
:103100002440844209D040F64600844205D040F66F
:103110006A10844201D0602C00D104E040F27F119B
:1031200023A000F020FC0FB1012F00D104E04FF4E8
:10313000C0711FA000F017FC40F66A1084420ED147
:103140001648854205D01648854202D0154885426A
:1031500000D104E040F2851115A000F004FC2E46D9
:10316000C4F3421804F01F0A012000FA0AF9B8F16A
:10317000010F01D10C3605E0B8F1020F01D1103674
:1031800000E0143627B1306840EA0900306003E0FF
:10319000306820EA09003060BDE8F087003801405F
:1031A0000044004000480040004C004000500040F7
:1031B0002E2E5C2E2E5C4C69627261726965735CA6
:1031C00041543332463478785F5374645065726981
:1031D00070685F4472697665725C7372635C617477
:1031E0003332663478785F75736172742E630000D1
:1031F0002DE9F04786B005460C460026B24600BFD2
:10320000B14600276B4885420BD06B48854208D0F9
:103210006A48854205D06A48854202D0694885429D
:1032200000D103E0AA2168A000F09DFB206820B136
:1032300075492068884200D203E0AB2162A000F00B
:1032400092FBA08818B1A088B0F5805F00D103E0A0
:10325000AC215DA000F087FBE08858B1E088B0F5B4
:10326000805F07D0E088B0F5005F03D0E088B0F55C
:10327000405F00D103E0AD2153A000F074FB208932
:1032800038B12089B0F5806F03D02089B0F5C06FC8
:1032900000D103E0AE214CA000F065FB60894FF641
:1032A000F371084010B9608900B103E0AF2146A076
:1032B00000F059FBA08958B1A089B0F5807F07D0F4
:1032C000A089B0F5007F03D0A089B0F5407F00D180
:1032D00003E0B0213CA000F046FBA08968B135486E
:1032E000854205D03448854202D03448854200D119
:1032F00003E0B52134A000F036FB2F462E8A4CF6B1
:10330000FF700640E08806432E82AE894EF6F31029
:103310000640A08821890843618908430643AE819D
:10332000AE8A4FF6FF400640A0890643AE8201A850
:10333000FEF72EFD1F48874202D1DDF810A001E004
:10334000DDF80CA0A88900F4004040B10AEBCA00E7
:1033500000EB0A1021684900B0FBF1F807E00AEB26
:10336000CA0000EB0A1021688900B0FBF1F8642064
:10337000B8FBF0F006013009642101FB1089A8892F
:1033800000F4004040B1322000EBC900B0FBF1F086
:1033900000F00700064308E0322000EB091064212A
:1033A000B0FBF1F000F00F0006432E8106B0BDE83F
:1033B000F087000000380140004400400048004011
:1033C000004C0040005000402E2E5C2E2E5C4C69BC
:1033D000627261726965735C415433324634787845
:1033E0005F5374645065726970685F447269766592
:1033F000725C7372635C61743332663478785F75C3
:10340000736172742E63000021AA44004FF41651B8
:10341000016000218180C18001810C214181002156
:103420008181704710B54FF48020FDF7CDFD10BDB0
:1034300010B5FDF709F810BD10B508480849086037
:1034400002200968087207480749086007480849C8
:103450000860054909680868804710BDA44201203A
:10346000DC010020D8000020E0010020080100203D
:10347000E80100200EB54FF48020FDF7A5FD4FF4C4
:103480008020009000208DF8040008208DF80500B1
:1034900001208DF806006846FDF7C6FD14208DF862
:1034A000080002208DF809008DF80A0001208DF82F
:1034B0000B0002A8FEF7DCF813208DF808000120AD
:1034C0008DF8090000208DF80A0001208DF80B000E
:1034D00002A8FEF7CDF82A208DF8080002208DF80A
:1034E000090003208DF80A0001208DF80B0002A8C6
:1034F000FEF7BEF848208DF8080000208DF809007E
:1035000003208DF80A0001208DF80B0002A8FEF7B9
:10351000AFF80EBD10B50F4800680F490880084687
:10352000008800F480600D490988084030B14FF6EA
:10353000FF30084908600A49486880470648008803
:1035400000F4004005490988084008B1FCF7E4FF91
:1035500010BD0000445C004054000020E601002043
:10356000D800002010B5FFF7D5FF10BD70B50320BF
:10357000FCF730FF454D46480068464909688842D7
:1035800038D30020424908604348007840B143489E
:10359000006843490860434800683E49086007E006
:1035A000414800683E490860404800683949086061
:1035B00002203649891E08700846407800F0010054
:1035C00048700846407880F001004870AE243449C5
:1035D00009682F4A126888182246294600F0C5F962
:1035E000B0224FF4A0712948801E00F06FF92848DE
:1035F000046022E0AE24264800682044254909687A
:1036000088420CD32348006821490968441A1F489E
:10361000801E407840F002001C49891E48702049F5
:1036200009681B4A126888182246294600F09DF94D
:10363000174800682044164908601D48006800F4D7
:10364000804058B1B02290211048801E00F03EF911
:10365000B02202210120FEF797FE0BE0B0224FF4CA
:10366000A0710A48801E00F031F9B0220221012029
:10367000FEF7C0FE0E48006848F68F7108404CF215
:10368000800108430A49086070BD0000F64101202E
:10369000640100202C0000202000002010000020E9
:1036A0001800002024000020140000202800002022
:1036B000045C004000BFFEE770B504460025812C85
:1036C00005D0012C03D0822C01D0832C17D11248B5
:1036D00000688088B0F5807F0FD10F48006840886F
:1036E000012801D10D4D0CE00B48006840880228EC
:1036F00001D10B4D05E0022070BD0220FCE7022045
:10370000FAE70548006885610021034800684182A6
:103710000020A8470020EFE7DC010020293900083D
:103720000939000810B5044602492046FFF718FA87
:1037300010BD00003401002010B5044602492046A7
:10374000FFF70EFA10BD00002C01002070B50546F1
:1037500006480068C478042C01DD002070BD0448D0
:1037600000EBC4012846FFF7FBF9F7E7DC01002076
:103770003C0100200246012901DD02207047012A98
:1037800001DD0220FAE70020F8E701460220704739
:1037900010B500202D49096888722D48C0792B4941
:1037A0000968487200202B4908604915FEF7A8FFF8
:1037B00020210020FEF784FF10210020FEF7EAFE02
:1037C000254890F82C100020FEF7F6FE502100202E
:1037D000FEF754FF0020FDF717F80020FEF734FF36
:1037E0004FF480610120FEF78BFF0120FEF7BCFE45
:1037F0004FF4A07290210120FEF732FEB022022188
:103800000120FEF74BFE0120FCF7CAFF0120FCF768
:10381000E1FF002202210120FEF7B6FD0022022175
:103820000120FEF7E7FD00210120FEF7EDFE20213B
:103830000120FEF745FF0020FEF706FF0020FEF7FF
:103840007BFD01200549086010BD0000DC0100205F
:10385000823D0008505C0040D80000205C01002040
:103860000348817A11B10521024A116070470000B6
:10387000A44201205C010020042001490860704737
:103880005C0100207047704710B5FDF78FFE0020E7
:103890000A4909688872FEF7CFF9002008490860D4
:1038A0004FF4044007490880084600880449091F6E
:1038B000086000200449086010BD0000DC01002001
:1038C000445C0040E60100205C010020F0B5144695
:1038D00004F1010C4FEA6C07DFF828C0DCF800C0E7
:1038E0000CEB41033D460AE00678401C90F800C00E
:1038F00046EA0C2223F8022B9B1C401C6D1E002D57
:10390000F2D1F0BDF0010020014639B90448006849
:10391000C088034A12681082002070470148FCE703
:10392000DC01002090000020014639B904480068FD
:10393000C088034A12681082002070470148FCE7E3
:10394000DC010020B200002002E008C8121F08C1FC
:10395000002AFAD170477047002001E001C1121F10
:10396000002AFBD1704700BFFEE704E003780B702C
:10397000491C401C521E002AF8D170472248FDF70E
:10398000EBFD2248FDF7E8FB4FF4A060FDF7E2FEF7
:10399000FCF7CCFC4FF4E120FFF7E0FAFCF72EFD3A
:1039A000FFF768FD0120FEF737FFFFF745FDFDF744
:1039B000EBF9FDF769FAFDF7B5FAFDF7A3FF144837
:1039C00000681449086080201349086000BF13484C
:1039D00000780028FBD01249096848F6BF7201EA56
:1039E000020080F0100080F0200040F4004141F01F
:1039F00080010B4A116005E00320FCF7D7FC64202E
:103A0000FDF742F9F8E70000000000200400002064
:103A1000100000201C00002000E100E02000002039
:103A2000045C004010B50021FF20FEF765FC0F216B
:103A3000D320FEF761FC0121FF20FEF75DFC02218F
:103A40001120FEF759FC10BDFF002CFF2EDFFF01F7
:103A50003C321100090204D813E514482C0C3378C9
:103A60003A333BFB3E0043111610399235DA221AE5
:103A700037C3230034C0361A068807C00D870E41AD
:103A80004C0048005B0042034A81219924402538BC
:103A900026825C00630046000C3C617062807C05FD
:103AA000208028306C006D806E007002719473C1AC
:103AB0003D345A5712001711187519011A973236EA
:103AC000030F37404FCA50A85A236D006D38FF00CE
:103AD000E57FF9C04124E01476FF33A0422043186B
:103AE0004C0087D5883FD703D910D382C808C98036
:103AF0007C007D007C037D487D487C087D207D1016
:103B00007D0E9000910E911A9131915A91699175A3
:103B1000917E9188918F919691A391AF91C491D705
:103B200091E891209200930693E393059305930007
:103B300093049300930093009300930093009300E9
:103B40009600970897199702970C97249730972813
:103B5000972697029798978097009700C3EFA40045
:103B6000A800C511C651BF80C710B666B8A5B76416
:103B7000B97CB3AFB497B5FFB0C5B194B20FC45C14
:103B8000C0C8C1968C00863D50005190522C530005
:103B9000540055885A905B2C5C05D302C3ED7F001E
:103BA000DA09E51FE167E000DD7F0500FF002CFF7B
:103BB0002EDFFF013C321100090204D813E514483E
:103BC0002C0C33783A333BFB3E00431116103992EC
:103BD00035DA221A37C3230034C0361A068807C0E4
:103BE0000D870E414C0048005B0042034A81219939
:103BF0002440253826825C00630046220C3C61701C
:103C000062807C05208028306C006D806E00700220
:103C1000719473C13D345A5712401711184319005B
:103C20001A4B320937C04FCA50A85A236D003D388D
:103C3000FF00E57FF9C04124E01476FF33A0422065
:103C400043184C0087D5883FD703D910D382C808C2
:103C5000C9807C007D007C037D487D487C087D20F8
:103C60007D107D0E9000910E911A9131915A9169BB
:103C70009175917E9188918F919691A391AF91C406
:103C800091D791E891209200930693E393059305D1
:103C90009300930493009300930093009300930088
:103CA00093009600970897199702970C97249730DE
:103CB0009728972697029798978097009700C3EDCB
:103CC000A400A800C511C651BF80C710B666B8A52C
:103CD000B764B97CB3AFB497B5FFB0C5B194B20FB8
:103CE000C45CC064C14B8C00863D500051C85296E4
:103CF0005300540055005AC85B965C00D302C3EDD4
:103D00007F00DA09E51FE167E000DD7F0500FF00C5
:103D1000DA10D703DF0033803C40E1770000FF0179
:103D2000E014E177E51FD703DA10E000FF00DA09BD
:103D3000D703DF0233A03C00E167FF01E000E100B0
:103D4000E500D700DA00E000FF01242025182660F6
:103D5000FF012434251C2600FF01243E253826813E
:103D6000FF01244825402681FF0124582550269232
:103D700012010002EF020140202021210001010276
:103D800003010902990002010080FA080B00020EEB
:103D900003000209040000000E0100020D240100CE
:103DA000012700808D5B0001011124020101020046
:103DB00002000000000000020000092403030101CA
:103DC00000020009040100000E0200000E2401019F
:103DD0003F0081000300000001000B2406010101E7
:103DE000010000000026240701028002E00100809B
:103DF0000C0000800C000040010040420F00004019
:103E0000420F0040420F00000000000904010101C0
:103E10000E02000007058105B00001040309042615
:103E20000341005400330032002000200020002015
:103E30000020002000200020002000200020002082
:103E400000200020003203410054003300320020E3
:103E500000430061006D00650072006100200056A3
:103E60000031002E00300020002000200020002023
:103E70000020002000200000983E000800000020E4
:103E8000F4010000D80100085C3F0008F4010020A4
:103E9000CC60010058390008011013F4011420F41B
:103EA000A1022020141A034112541233123212318B
:103EB0000A11302F13810D0C30086F16041201C641
:103EC000010140420FD340010920221A030F138938
:103ED00038140891371B0885081A870413B9361B54
:103EE000088B101A75041A39041A25041A4D04395E
:103EF0003F31297C1A61280916981A791C13703DE4
:103F00003308121A82083299131B3E3308041A1F11
:103F10000832261A4508323222387B201AAEB17C8C
:103F2000140140041924197942809A2004111A08B6
:103F30001C2B1001D22A205CBA10FA317CB0710B14
:103F40001068080203040607080908A80802040606
:0C3F500008020C0833011212600200404D
:040000050800017D71
:00000001FF
