:020000040800F2
:10000000D00600201D020008CF070008C70700081F
:10001000CB0700081D040008450A00080000000086
:100020000000000000000000000000009D08000823
:10003000210400080000000055080008BD09000860
:1000400037020008370200083702000837020008AC
:100050003702000837020008D904000837020008F8
:10006000370200083702000837020008370200088C
:10007000370200083702000837020008370200087C
:10008000370200083702000837020008370200086C
:100090003702000837020008370200085D05000833
:1000A000370200083702000837020008370200084C
:1000B000370200083702000837020008370200083C
:1000C000370200083702000837020008370200082C
:1000D000370200083702000837020008370200081C
:1000E000370200083702000837020008370200080C
:1000F00037020008370200083702000837020008FC
:1001000037020008370200083702000837020008EB
:1001100037020008370200083702000837020008DB
:1001200037020008370200083702000837020008CB
:1001300037020008370200083702000837020008BB
:1001400000000000000000000000000000000000AF
:10015000370200083702000837020008370200089B
:10016000370200083702000837020008370200088B
:1001700037020008370200083702000800F002F8D2
:1001800000F03CF80AA090E8000C82448344AAF1F5
:100190000107DA4501D100F031F8AFF2090EBAE8F3
:1001A0000F0013F0010F18BFFB1A43F001031847AB
:1001B000E808000008090000103A24BF78C878C198
:1001C000FAD8520724BF30C830C144BF04680C605D
:1001D000704700000023002400250026103A28BFA5
:1001E00078C1FBD8520728BF30C148BF0B607047A9
:1001F0001FB500F04BFC1FBD10B510BD00F031F86D
:100200001146FFF7F5FF00F01FFC00F04FF803B4B4
:10021000FFF7F2FF03BC00F057F8000009488047E1
:1002200009480047FEE7FEE7FEE7FEE7FEE7FEE7D8
:10023000FEE7FEE7FEE7FEE704480549054A064BF0
:1002400070470000C10900087D010008D0000020AF
:10025000D0060020D0020020D00200207047704756
:100260007047754600F02CF8AE46050069465346C7
:1002700020F00700854618B020B5FFF7DDFFBDE888
:1002800020404FF000064FF000074FF000084FF0FD
:10029000000B21F00701AC46ACE8C009ACE8C0098E
:1002A000ACE8C009ACE8C0098D46704710B50446FB
:1002B000AFF300802046BDE81040FFF7A8BF000064
:1002C000004870476C00002001491820ABBEFEE7D3
:1002D000260002007047000038B504460B4951F86B
:1002E0002400012100F0B8FA684600F064FA0848DA
:1002F00030F81400ADF8000028208DF803000549FF
:1003000051F82400694600F0CBF938BD58000020B0
:10031000540000204C00002010B500F083F80120AC
:1003200000F016F8022000F013F8032000F010F897
:10033000012000F031F8022000F02EF8032000F038
:100340002BF80020FFF7C8FF0120FFF7C5FF10BD05
:1003500038B504460D4951F82400012100F07CFA1B
:10036000684600F028FA0A4830F81400ADF800009A
:1003700010208DF8030002208DF80200054951F885
:100380002400694600F08CF938BD00003C000020D4
:100390003400002024000020032800DD70470649B7
:1003A00031F8101031B1044931F81010034A52F8F5
:1003B0002020116100BFF1E734000020240000205C
:1003C000032800DD7047064931F8101031B10449A7
:1003D00031F81010034A52F82020516100BFF1E7B4
:1003E0003400002024000020032800DD7047094964
:1003F00031F8101059B1084951F82010C968054A60
:1004000032F810205140044A52F82020D16000BF39
:10041000ECE70000340000202400002000BFFEE7CD
:100420007047000010B56FF0040000F0B3FA0B48FD
:1004300090ED000AB8EE400ADFED090A80EE201ABE
:10044000084880ED001A90ED000ADFED070A20EE63
:10045000200A064880ED000A10BD000010000020B0
:100460000024F44A6000002000007A446400002068
:1004700010B50121042000F0EFF901201249088095
:100480002820C870114800F00BF90121084600F03F
:10049000E3F90021084600F0E3F801200C49086068
:1004A000002008710820487101208871084600F07A
:1004B00085F8062007490870012048708870C870C8
:1004C000084600F085F910BD00000020000801403A
:1004D000040000200C00002010B5012000F05AF8A4
:1004E00028B10220FFF780FF012000F045F810BD81
:1004F00010B50121082000F0AFF94FF40070134946
:1005000008804820C870124800F0CAF80121084647
:1005100000F0A2F90921012000F0A2F84FF40070C8
:100520000C490860002008710C2048710120887176
:10053000084600F043F8172007490870012048706A
:100540008870C870084600F043F910BD0000002014
:10055000000C0140040000200C00002010B54FF4F6
:10056000007000F017F830B10320FFF73DFF4FF4A3
:10057000007000F001F810BD0149086070470000EC
:1005800014040140024909680143014A116070479F
:1005900010040140014600200022074B1B6803EABB
:1005A0000102054B14331B680B4013B10AB1012043
:1005B00000E00020704700000004014000212349B2
:1005C0008279002A3AD00A46126803689A430B4699
:1005D0001A600A1D126803689A430B1D1A6002799B
:1005E00011440A6803681A430A60184A08321268FC
:1005F00003689A43154B08331A601A1D1268036882
:100600009A43124B0C331A604279102A0ED11A1FEA
:10061000126803681A430D4B08331A601A1D1268DA
:1006200003681A43094B0C331A600DE007494279FD
:1006300011440A6803681A430A6005E0027911440C
:100640000A6803689A430A6070470000000401408A
:100650000021016001710C214171002181717047FD
:1006600030B500228B071C0F0F2303FA04F20B4B4B
:100670008C1053F824309343084C8D1044F82530E7
:1006800023468C1053F824308C07240F00FA04F40E
:100690002343024C8D1044F8253030BD0800014042
:1006A0002DE9F04102460025002600200023002409
:1006B000002791F803C00CF00F0591F803C00CF06F
:1006C000100CBCF1000F03D091F802C04CEA0505F4
:1006D00091F800C0BCF1000F31D0146800202BE06D
:1006E0004FF0010C0CFA00F3B1F800C00CEA03065D
:1006F0009E4220D183004FF00F0C0CFA03F7BC434D
:1007000005FA03FC4CEA040491F803C0BCF1280F7D
:1007100006D14FF0010C0CFA00FCC2F814C00AE03C
:1007200091F803C0BCF1480F05D14FF0010C0CFA51
:1007300000FCC2F810C0401C0828D1D31460B1F8E6
:1007400000C0BCF1FF0F34DD546800202EE000F142
:10075000080C4FF0010808FA0CF3B1F800C00CEADD
:1007600003069E4221D183004FF00F0C0CFA03F7D1
:10077000BC4305FA03FC4CEA040491F803C0BCF145
:10078000280F05D100F1080C08FA0CF8C2F8148003
:1007900091F803C0BCF1480F07D100F1080C4FF0ED
:1007A000010808FA0CF8C2F81080401C0828CED3C3
:1007B0005460BDE8F0814FF6FF7101800221817025
:1007C0000421C170704700BFFEE700BFFEE770471D
:1007D00070B5002100230F22C47804B3154C24689F
:1007E00004F4E064C4F5E064210AC1F10403CA40E2
:1007F000447804FA03F184781440214309010E4C33
:100800000678A155047804F01F050124AC40057852
:100810006D11AD0005F1E025C5F8004109E004784F
:1008200004F01F050124AC40044D0678761145F80C
:10083000264070BD0CED00E000E400E080E100E047
:1008400002490143024A1160704700000000FA05A6
:100850000CED00E07047000029B1064A926902439E
:10086000044B9A6104E0034A92698243014B9A6106
:100870007047000000100240012806D10649496D6A
:1008800041F03001044A516505E00349496D21F00A
:100890003001014A5165704700100240704710B5A1
:1008A00000F002F810BD00001CB50020019000907F
:1008B0003548006840F480303349086000BF324852
:1008C000006800F4003000900198401C01900098EE
:1008D00018B90198B0F5405FF1D12B48006800F4D9
:1008E000003010B10120009001E00020009000983D
:1008F000012847D124484068234948600846406899
:1009000020F4605048600846406840F40050486059
:100910000846406820F4E06048600846406840F4BB
:100920008060486008464068184908401649486099
:10093000084640681649084313494860084600685D
:1009400040F08070086000BF0F48006800F0007041
:100950000028F9D00120FFF78FFF0B48406820F0F6
:100960000300094948600846406840F002004860BA
:1009700000BF0548406800F00C000828F9D10020AD
:10098000FFF77AFF1CBD000000100240FFFFC01FF0
:10099000000035A0042808D14FF0E021096941F09A
:1009A00004014FF0E022116107E04FF0E0210969F6
:1009B00021F004014FF0E022116170477047000000
:1009C00010B51A48006840F47000184908601848CB
:1009D000006840F001001649086008464068154963
:1009E0000840134948600846006813490840104908
:1009F00008600846006820F48020086008464068C7
:100A00000E4908400A4948600846006B0C490840F6
:100A1000074908634FF41F008860FFF740FF4FF05D
:100A2000006002498039086010BD000088ED00E0D8
:100A3000001002400C00FFE8FFFFF6FEFFFF00176A
:100A400000FFFEFE00BFFEE70E48FFF7B4FE0E48B3
:100A5000FFF7FEFD4FF4C060FFF7F2FEFFF75CFC0E
:100A60000120FFF7ADFC0220FFF7AAFC0320FFF7EF
:100A7000A7FCFFF7FDFCFFF73BFD0120FFF782FD20
:100A800000BFFEE700000020040000204FF040708F
:100A9000E1EE100A70470000B80A000800000020CC
:100AA0006C000000B8010008240B00086C00002056
:100AB00064060000D40100080000000000000000EF
:100AC0000000000000000000001C4E0E00000000AE
:100AD00000000000010203040607080900000000EE
:100AE00000140140001401400014014000000020E7
:100AF00000400080000000002000000020000000F6
:100B0000200000000008014000100140010000200A
:100B100004000000100000000000000000000000C1
:040B200001000000D0
:040000050800017D71
:00000001FF
