:020000040800F2
:10000000887401209101000841190008C9180008EE
:100010003D19000871040008FD38000800000000C8
:10002000000000000000000000000000F7240008AD
:100030004910000800000000D91E0008993000088F
:10004000AB010008AB010008AB010008AB010008E0
:10005000AB010008AB010008AB0100080512000865
:1000600035130008D1130008AB010008AB010008EC
:10007000AB0100086908000859090008AB01000835
:10008000AB010008AB010008AB0100085D360008B9
:1000900091370008AB010008AB010008AB01000874
:1000A000AB010008AB010008AB010008AB01000880
:1000B000AB010008AB010008AB010008AB01000870
:1000C000AB010008AB010008AB010008AB01000860
:1000D000AB010008AB010008AB010008AB01000850
:1000E000AB010008AB01000851360008AB01000865
:1000F000AB010008AB010008AB010008AB01000830
:10010000AB010008AB010008AB010008AB0100081F
:10011000AB010008AB010008AB010008AB0100080F
:10012000AB010008AB010008AB010008AB010008FF
:10013000AB010008AB010008AB010008AB010008EF
:1001400000000000000000000000000000000000AF
:10015000AB010008AB010008AB010008AB010008CF
:10016000AD020008AB010008AB010008AB010008BC
:10017000AB010008AB010008AB010008DFF80CD0B0
:1001800000F02EF800480047513D00088874012017
:100190000648804706480047FEE7FEE7FEE7FEE721
:1001A000FEE7FEE7FEE7FEE7FEE7FEE79D3000081C
:1001B0007D01000830B50B460146002020220124B5
:1001C00009E021FA02F59D4205D303FA02F5491B25
:1001D00004FA02F52844151EA2F10102F1DC30BD3B
:1001E000064C074D06E0E06840F0010394E8070084
:1001F00098471034AC42F6D3FFF7C4FFBC43000865
:10020000DC43000870B58C1810F8015B15F007038B
:1002100001D110F8013B2A1106D110F8012B03E09F
:1002200010F8016B01F8016B5B1EF9D12B0705D4A7
:100230000023521E0DD401F8013BFAE710F8013BF0
:10024000CB1A921C03E013F8015B01F8015B521E0C
:10025000F9D5A142D8D3002070BD0000012805D1F6
:100260000749096821F00101054A1160022805D1FA
:100270000349096821F00201014A1160704700003A
:1002800000580140024A12680243014B1A6070474D
:100290000458014001460020034A12680A400AB18E
:1002A000012000E0002070470058014010B50120F7
:1002B000FFF7F0FF012801D1FFF7D0FF0220FFF781
:1002C000E9FF012802D10220FFF7C8FF10BD00009E
:1002D00029B1074A12680243054B1A6006E0044A36
:1002E0001268C3439BB21A40014B1A60704700006A
:1002F0000458014001490860704700000C58014053
:100300000149086070470000105801400149086029
:10031000704700001458014038B504460B4951F8A5
:100320002400012101F044FE684601F07FFA0848EC
:1003300030F81400ADF8000028208DF803000549BE
:1003400051F82400694601F04DF938BDF80100204C
:10035000F4010020EC01002010B500F077FE012030
:1003600000F016F8022000F013F8032000F010F857
:10037000012000F031F8022000F02EF8032000F0F8
:100380002BF80020FFF7C8FF0120FFF7C5FF10BDC5
:1003900038B504460D4951F82400012101F008FE4A
:1003A000684601F043FA0A4830F81400ADF800003E
:1003B00010208DF8030002208DF80200054951F845
:1003C0002400694601F00EF938BD0000DC01002070
:1003D000D4010020C4010020032800DD7047064935
:1003E00031F8101031B1044931F81010034A52F8B5
:1003F0002020116100BFF1E7D4010020C4010020DA
:10040000032800DD7047094931F8101059B1084937
:1004100051F82010C968054A32F810205140044AAA
:1004200052F82020D16000BFECE70000D40100208A
:10043000C401002008B50121042001F0B9FD68467F
:1004400001F0F4F94FF4C050ADF8000010208DF821
:10045000030002208DF802006946044801F0C2F84A
:100460004FF48051014801F081F908BD00080140B6
:1004700000BFFEE70146CAB20B1243EA02207047F2
:1004800010B500244DE047F6FF702B4908602B485B
:10049000008800F00F002A4908700846007800B96B
:1004A00010BD27480078274901EB8000D0F8000CE8
:1004B00084B204F40040C8B12148007801EB800008
:1004C000D0F8000CC0F30E0048F68F7108401C49AC
:1004D00009781C4A02EB8101C1F8000C184909781F
:1004E000491E194A52F8210080471AE004F08000A2
:1004F000B8B113480078134901EB8000D0F8000C24
:1005000048F60F7108400E4909780E4A02EB810146
:10051000C1F8000C0A490978491E0C4A52F821001A
:1005200080470548006880B20449088000F4004014
:100530000028A8D100BFB3E7445C00406801002058
:100540003801002000500040880100206C0100208C
:1005500008B50020009022E19748008800F00F00C5
:10056000964908700846007800287CD194480068B5
:10057000944908800846008800F0300092490880BD
:100580009048008800F440508E4908808C490968E2
:100590004BF6BF7201EA020080F4005080F02000A8
:1005A00040F4004141F08001854A11608248008892
:1005B00000F0100090BB1046006848F60F7108402C
:1005C0001146086001F082F97D4909684BF6BF7257
:1005D00001EA02007B49098801F4805109B180F4E5
:1005E00080507849098801F4005109B180F4005025
:1005F0007549098801F0100109B180F010007249B5
:10060000098801F0200109B180F0200081B241F495
:10061000004141F080016A4A116008BDFFE7684867
:10062000006880B20090BDF8000000F40060B0B334
:1006300063480068C0F30E0048F68F7108406049B7
:10064000086002F043FA5E4909684BF6BF7201EA9E
:1006500002005C49098801F4805109B180F480509E
:100660005849098800E056E001F4005109B180F4CE
:1006700000505549098801F0100109B180F01000BF
:100680005149098801F0200109B180F0200081B2B0
:1006900041F4004141F08001494A1160BDE7FFE7A4
:1006A000BDF8000000F40040002878D044480068FD
:1006B000C0F30E0048F68F7108404149086001F010
:1006C000CFFB3F4909684BF6BF7201EA02003D4982
:1006D000098801F4805109B180F4805039490988B2
:1006E00001F4005109B180F400503749098801F044
:1006F000100109B180F010003349098801F0200190
:1007000009B180F0200081B241F4004141F0800144
:100710002B4A116081E7294800782C4901EB8000C1
:10072000D0F8000C80B20090BDF8000000F400404A
:10073000C0B12248007801EB8000D0F8000CC0F373
:100740000E0048F68F7108401C4909781F4A02EBD9
:100750008101C1F8000C19490978491E1C4A52F858
:1007600021008047BDF8000000F08000B8B11348B8
:100770000078164901EB8000D0F8000C48F60F71A4
:1007800008400E490978114A02EB8101C1F8000CBA
:100790000A490978491E0F4A52F821008047084843
:1007A0004430006880B20449088000F4004000280A
:1007B0007FF4D2AE00BF30E768010020380100208E
:1007C000005C00404C0100204E0100200050004021
:1007D000880100206C0100200B4A02EB8001D1F857
:1007E000001C01F4804171B102EB8001D1F8001CC2
:1007F00048F68F7211404CF280021143024B03EB1A
:100800008002C2F8001C7047005000400B4A02EB07
:100810008001D1F8001C01F0400171B102EB8001B0
:10082000D1F8001C48F68F72114048F2C002114303
:10083000024B03EB8002C2F8001C704700500040DE
:10084000084A02EB8001D1F8001C48F68F62114083
:1008500048F280021143034B03EB8002C2F8001CF4
:10086000704700000050004010B50124600200F005
:1008700023F9012866D10021334800F0ABF860026B
:1008800000F0FAF83148B0F8801FB0F8820F8142CA
:1008900010DD2E48B0F8820F401C2C49B1F8801FA3
:1008A00088421BDD2948B0F8801FB0F8820F081A73
:1008B00084B213E02548B0F8821FB0F8800F81425F
:1008C0000CDD2248B0F8820F401CB0F5F06F05DD5A
:1008D0001E48B0F8820FC0F5F06084B21B48B0F833
:1008E000801FB0F8820F814204D11948164930396F
:1008F000C86319E01548B0F8820F164901EB4000B3
:1009000011493039C8631148B0F8820F204481B2D0
:100910000E48A0F8821FB0F8820FB0F5F06F03DB2D
:1009200000210A48A0F8821F0848D0F8840F011956
:100930000648C0F8841F0448303844630121024847
:1009400000F048F810BD0000300002405052012075
:10095000A46601205042012010B54FF4005000F071
:10096000ABF801282FD1400300F086F8002116488B
:1009700000F030F8154890F8440268B90120134996
:1009800081F8440201F590700F49443908650F4819
:100990000146C1F840020CE000200C4981F84402F5
:1009A000084609494439086500F590700749C1F8BF
:1009B000400207488068400803494439886401219F
:1009C000014800F007F810BD4400024020640120F7
:1009D0005401002070B504460D46244884422AD0B4
:1009E00022481430844226D020482830844222D025
:1009F0001E483C3084421ED01C48503084421AD0DD
:100A00001A486430844216D018487830844212D094
:100A1000174884420FD01648143084420BD0144833
:100A20002830844207D012483C30844203D010481A
:100A30005030844200D104E04FF4A8710D4803F017
:100A400069F90DB1012D00D104E040F251110948BE
:100A500003F060F925B1206840F00100206004E057
:100A600020684FF6FE710840206070BD080002400B
:100A7000080402406442000810B5044604F07040C7
:100A800010B10948204008B904B104E04FF43671B0
:100A9000064803F03FF904F0805010B104480460A8
:100AA00001E00448446010BD0000F0EF644200081B
:100AB000040402400000024070B5044600250026F0
:100AC000012C7DD0022C7BD0042C79D0082C77D03F
:100AD000102C75D0202C73D0402C71D0802C7FD05E
:100AE000B4F5807F7CD0B4F5007F79D0B4F5806F09
:100AF00076D0B4F5006F73D0B4F5805F70D0B4F5E4
:100B0000005F6DD0B4F5804F6AD0B4F5004F67D068
:100B1000B4F5803F64D0B4F5003F61D0B4F5802FC8
:100B20005ED0B4F5002F5BD0B4F5801F58D0B4F57B
:100B3000001F55D0B4F5800F52D0B4F5000F4FD040
:100B4000B4F1807F4CD0B4F1007F49D0B4F1806F14
:100B500046D0B4F1006F43D02C48844240D0401CB2
:100B600084423DD0801C84423AD0001D844237D05C
:100B700026480F30844233D024481F3084422FD07F
:100B800022483F3084422BD020487F30844227D0F7
:100B90001E48FF30844223D01D48844220D01D4887
:100BA00084421DD01C4884421AD0B4F1102F17D0B3
:100BB0004FEAF030844213D01848844210D000E04D
:100BC0000EE0174884420BD01648844208D01648DD
:100BD000844205D01548844202D01548844200D191
:100BE00004E040F28121134803F094F804F08050AF
:100BF00010B11148066801E01048066806EA0400D2
:100C000008B1012500E00025284670BD0100001054
:100C10000002001000040010000800100040001046
:100C200000800010000001100000021000000410FD
:100C30000000081064420008000402400000024066
:100C40002DE9F0472848006800F110052E88264855
:100C50000068077ADEB9042F19D1244800780128EA
:100C600010D100212248006880B2801C214A1268FD
:100C700042F8101030202049088000BF00201B4996
:100C8000087003E0072710201B49088027E0AC8884
:100C9000A64201D8042000E002200746B44200D951
:100CA0003446A0B2A96888478046002000F0D8FDED
:100CB0008146A2B24946404602F024FFA1B200207C
:100CC00001F0CEFD2888001B2880688820446880B9
:100CD00030200949088000020849088000BF024905
:100CE00009680F72BDE8F0873C0100203601002042
:100CF000505C0040500100204E0100204C010020BB
:100D00002DE9F0412548006800F110042688A0680C
:100D1000C0B1BEB1A588B54200D93546A8B2A16818
:100D2000884707462088401B2080608828446080D0
:100D3000002000F083FD8046AAB24146384601F00B
:100D4000B7F800BF208818B14FF44050144908800C
:100D50002088A188884204DB0320104909680872B2
:100D600019E02088002804DD05200C490968087274
:100D700011E0208878B90620084909680872002126
:100D80000848006880B2801C074A126842F81010B8
:100D9000302006490880BDE8F08100003C010020B9
:100DA0004C010020505C0040500100204E0100200A
:100DB0002DE9F84F9B48006845780027BA46062D74
:100DC0001BD198480068007800F07F00002813D1FC
:100DD000944909688878012803D193490968CF6943
:100DE0000AE0022803D1904909680F6A04E0032849
:100DF00002D18D4909684F6A94E0002D64D1894879
:100E00000068408800285FD186480068C0880228B2
:100E10005AD1844800680079002855D1814800687B
:100E2000007800F07F0028B97E480068808808B903
:100E30007E4F77E07B480068007800F07F00012853
:100E400010D1784909684879774909688A69002189
:100E50009047002866D173480068807A002861D0E6
:100E6000724F5FE06F480068007800F07F00022852
:100E700058D16C480068407900F00F066948006856
:100E8000407900F0700967480068407900F0800000
:100E900038B1674901EB8600D0F8000C00F030084B
:100EA00006E0634901EB8600D0F8000C00F44058DE
:100EB00060480078B04235D9B9F1000F32D1B8F1AD
:100EC000000F2FD0594F2DE0082D07D1554800684D
:100ED000007800F07F0028BB574F23E00A2D21D176
:100EE00050480068007800F07F0001281AD14D4872
:100EF0000068807AB0B14B480068408890B9494892
:100F00000068007970B947480068C088012809D195
:100F1000444909684879444909688A690021904729
:100F200000B9464F57B13F480068A0F812A03D48AD
:100F3000006887610020B84700240FE0394A126832
:100F40005078394A1268116988470446032C05D144
:100F50000920344909680872BDE8F88F31480068F3
:100F6000008A4FF6FF71884204D109202D49096893
:100F70000872F1E7022C03D02A480068008A20B9E1
:100F80000820284909680872E6E7264800680078C2
:100F900000F08000E0B323480068C088009021483A
:100FA0000068008A0099884204D91E49009809689F
:100FB000088223E01B480068008A1A490968C9882A
:100FC00088421BDA17480068008A1749096891F8B7
:100FD0002C10884203DA0020194908700EE01148ED
:100FE0000068008A1049096891F82C1090FBF1F212
:100FF00001FB120010B90120114908700A4800686D
:1010000090F82C10074800688182FFF719FE07E06E
:10101000FFE70320034909680872000309490880B3
:1010200000BF99E73C01002040010020712D00081D
:1010300000500040A4000020F52C0008452D0008B9
:10104000360100204C0100207047000010B56FF001
:10105000040001F0E3FF0B4890ED000AB8EE400AEF
:10106000DFED090A80EE201A084880ED001A90EDA5
:10107000000ADFED070A20EE200A064880ED000A8C
:1010800010BD00000C0200200024F44A00020020E1
:1010900000007A440402002043E0B0F5FA7F11DD3D
:1010A000214A92ED000ADFED210A20EE200ABCEE73
:1010B000C00A10EE102A4FF0E0235A61A0F5FA7230
:1010C00090B210E000EE100AB8EE400A164AD2EDD7
:1010D000000A20EE200ABCEEC00A10EE102A4FF0E3
:1010E000E0235A61002000224FF0E0239A611A4663
:1010F000126942F001021A6100BF4FF0E02211694B
:1011000001F001021AB101F48032002AF5D04FF04B
:10111000E022126922F001024FF0E0231A6100225E
:101120009A610028B9D17047040200200000FA43F8
:1011300000EE100AB8EE400A144AD2ED000A20EE82
:10114000200ABCEEC00A10EE102A4FF0E0235A61CC
:1011500000229A611A46126942F001021A6100BF28
:101160004FF0E022116901F001021AB101F480325E
:10117000002AF5D04FF0E022126922F001024FF070
:10118000E0231A6100229A617047000000020020EB
:1011900010B502F001FB10BD10B50121042000F0D4
:1011A00007FF0220134908804820C8700220887079
:1011B000114800F017FA0121084600F0F9FE01215C
:1011C000002000F0B3F902200C49086000200871EB
:1011D0001020487101208871084600F025F9072089
:1011E00007490870002048708870C870084600F0F1
:1011F000A9FB10BD000000200008014004000020F1
:101200000C0000202DE9F0410024002500260027D5
:101210001D480068012803D100021C4908602EE027
:101220001B48006858B31B48007858B10020194982
:10123000087017480068184908601848006818497D
:10124000086014E04FF4807010498031086040005D
:101250004FF0E021C1F8800101200E4908700C48D0
:10126000006810490860104800680D490860084887
:1012700001680EA002F084FC0020054908600220ED
:1012800000F0C0F8BDE8F0810401214200E100E077
:101290003800002028000020300000201800002026
:1012A000240000202C0000201C0000206672616DCC
:1012B0006552656365697665645F6C656E3D25643E
:1012C0000A00000010B50121042000F071FE042086
:1012D000144908804820C87002208870124800F025
:1012E00081F90121084600F063FE0221002000F090
:1012F0001DF904200D490860002008711020487174
:1013000001208871084600F08FF80820084908700D
:1013100000204870012088700020C870084600F046
:1013200011FB10BD00000020000801400400002057
:101330000C00002010B508480068012803D14002C5
:101340000649086004E04FF40070044980310860E9
:10135000042000F057F810BD0801214200E100E030
:1013600010B50121042000F023FE08201449088054
:101370004820C87002208870124800F033F901211B
:10138000084600F015FE0321002000F0CFF80820E9
:101390000D490860002008710820487101208871FB
:1013A000084600F041F809200849087000204870FC
:1013B000022088700020C870084600F0C3FA10BDF3
:1013C0000000002000080140040000200C00002064
:1013D00010B509480068094909680870074800689D
:1013E000401C0649086006480068401C0449086023
:1013F000082000F007F810BD081401402400002068
:101400003800002010B50446200D000508B904B1CD
:1014100003E0F421024802F07DFC0248046010BDA4
:10142000A84200081404014070B504460025207944
:1014300010B12079042800D103E05F21354802F083
:1014400069FC6079082805D060790C2802D06079A1
:10145000102800D103E060212E4802F05BFC2068D8
:101460006FF3130010B9206800B103E0612129482F
:1014700002F050FCA07910B1A079012800D103E05E
:101480006221244802F046FC234DA07990B32846FF
:1014900000682168884329460860081D00682168A3
:1014A0008843291D0860207905442868216808437D
:1014B00028601948083000682168884316490831B7
:1014C0000860081D00682168884313490C310860D2
:1014D000607910280FD1081F0068216808430E4961
:1014E00008310860081D0068216808430A490C316A
:1014F00008600EE007E0084D60790544286821681F
:101500000843286005E0207905442868216888435D
:10151000286070BDA842000800040140002101605D
:1015200001710C21417100218171704770B5054630
:101530000C4600265DB1012D09D0022D07D0032DE8
:1015400005D0042D03D0052D01D0062D00D104E0D7
:1015500040F26A41214802F0DDFBECB1012C1BD0C6
:10156000022C19D0032C17D0042C15D0052C13D025
:10157000062C11D0072C0FD0082C0DD0092C0BD025
:101580000A2C09D00B2C07D00C2C05D00D2C03D025
:101590000E2C01D00F2C00D104E040F26B410F481B
:1015A00002F0B8FBA007010F0F2000FA01F60C486B
:1015B000A11050F82100B0430949A21041F82200BF
:1015C0000846A11050F82100A107090F05FA01F102
:1015D00008430349A21041F8220070BDEC42000804
:1015E000080001402DE9F05F05460C464FF0000968
:1015F000CA4600260027B046B346564885420BD05F
:101600005548854208D05548854205D05448854202
:1016100002D05448854200D103E0AC21524802F088
:1016200079FBE078A0B1E078042811D0E078282890
:101630000ED0E07848280BD0E078142808D0E07865
:10164000102805D0E0781C2802D0E078182800D1B6
:1016500003E0AD21444802F05DFB002010B9208872
:1016600000B103E0AE21404802F054FBE07800F006
:101670000F09E07800F0100080B1A078012805D0B3
:10168000A078022802D0A078022800D103E0B62179
:10169000354802F03FFBA07840EA0909207838B3CA
:1016A000D5F8008000261FE0012000FA06F7208808
:1016B00000EA070ABA4516D1B7000F2000FA07FB67
:1016C00028EA0B0809FA07F040EA0808E078282819
:1016D00003D10120B040686105E0E078482802D1DC
:1016E0000120B0402861761C082EDDD3C5F80080AB
:1016F0002088FF282BDDD5F80480002623E006F1A2
:101700000800012101FA00F7208800EA070ABA451B
:1017100018D1B7000F2000FA07FB28EA0B0809FAD6
:1017200007F040EA0808E078282803D106F108000D
:1017300081406961E078482804D106F10800012160
:1017400081402961761C082ED9D3C5F80480BDE8F4
:10175000F09F000000080140000C01400010014013
:101760000014014000180140EC42000870B5044626
:101770000D46104884420BD00F48844208D00F48D1
:10178000844205D00E48844202D00E48844200D1E3
:1017900004E040F281110C4802F0BCFA002008B9C4
:1017A00005B104E04FF4C171074802F0B3FA656176
:1017B00070BD000000080140000C01400010014015
:1017C0000014014000180140EC42000870B50446C6
:1017D0000D46104884420BD00F48844208D00F4871
:1017E000844205D00E48844202D00E48844200D183
:1017F00004E040F271110C4802F08CFA002008B9A4
:1018000005B104E04FF4B971074802F083FA25618D
:1018100070BD000000080140000C014000100140B4
:101820000014014000180140EC4200084FF6FF711F
:101830000180022181700421C17070470146064871
:10184000006880B200EBC100001D044A126832F843
:10185000100080B270470000505C00405001002032
:1018600001460548006880B200EBC100034A1268D7
:1018700032F8100080B27047505C004050010020E8
:1018800010B50F4B18681B1D1A681B1D19680844FA
:10189000A8B10C4CA070030A2371030CA371030EB2
:1018A0002372A272130A2373130CA373130E2374EF
:1018B000A1740B0A23750B0CA3750B0E237610BDB8
:1018C000E8F7FF1F4400002000BFFEE710B51848EE
:1018D0000068047A022C01D0042C05D1FFF7B0F97E
:1018E00013480068047A1CE0062C19D110480068DF
:1018F000407805280ED10E480068007800F07F007F
:1019000040B90B490968C87800F0F6FD0949096833
:10191000086A80470849096888688047082400E009
:101920000824034909680C7200F0D8FA10BD0000C1
:101930003C010020480100204001002000BFFEE7DC
:10194000704770472DE9F0410446002500270F2617
:10195000E07810B1E078012800D103E0692121A0EE
:1019600002F0D8F96078102800DA03E06A211DA09F
:1019700002F0D0F9A078102800DA03E06B2119A05A
:1019800002F0C8F9E07800B32548006800F4E06090
:10199000C0F5E060050AC5F10407EE40607800FA82
:1019A00007F5A078304005432D011E482278855464
:1019B000207800F01F01012088402178491189001A
:1019C00001F1E021C1F8000109E0207800F01F01D9
:1019D0000120884014492278521141F82200BDE8C4
:1019E000F08100002E2E5C2E2E5C2E2E5C2E2E5CA6
:1019F0004C69627261726965735C4154333246347A
:101A000078785F5374645065726970685F44726976
:101A10007665725C7372635C6D6973632E6300003C
:101A20000CED00E000E400E080E100E010B50446C9
:101A3000B4F5E06F0BD0B4F5C06F08D0B4F5A06F6B
:101A400005D0B4F5806F02D0B4F5407F00D103E03B
:101A5000572104A002F05EF91148204311490860A3
:101A600010BD00002E2E5C2E2E5C2E2E5C2E2E5CC9
:101A70004C69627261726965735C415433324634F9
:101A800078785F5374645065726970685F447269F6
:101A90007665725C7372635C6D6973632E630000BC
:101AA0000000FA050CED00E070B50226474800681A
:101AB000447846480068007800F07F00002844D150
:101AC000092C03D101F0D4F906465FE0052C14D1AE
:101AD0003E480068C0787F280BDC3C48006880786E
:101AE00038B93A480068808818B938480068807A60
:101AF00008B1082566E0002648E0032C0ED13348E3
:101B00000068C078012807D130480068808818B97B
:101B100001F0D2F9064639E0022637E0012C35D132
:101B20002A480068C07801280DD1284800688088BC
:101B300048B926480068407A00F0200018B101F04A
:101B400023F8064622E0022620E0204800680078BC
:101B500000F07F00012805D10B2C17D101F028FAE5
:101B6000064613E019480068007800F07F0002285C
:101B70000BD1012C03D101F007F8064606E0032C37
:101B800004D101F0ADF9064600E002264EB1E0B204
:101B90000F4A1268516988470646032E01D109256C
:101BA00010E00EB108250DE0062500210948006867
:101BB00080B2801C084A126842F810103020074991
:101BC000088000BF014909680D7270BD3C0100200A
:101BD00040010020505C0040500100204E010020D8
:101BE00038B500250121392000F0E2F90220ADF8D6
:101BF000000048208DF8030069465848FFF7F2FCC2
:101C000002215648FFF7E2FD0420ADF8000048200D
:101C10008DF8030069465148FFF7E4FC04214F4862
:101C2000FFF7D4FD0820ADF8000048208DF8030030
:101C300002208DF8020069464848FFF7D3FC0821CE
:101C40004648FFF7C3FD8020ADF8000010208DF856
:101C5000030069464248FFF7C5FC80214048FFF772
:101C6000B5FDFF20ADF8000048208DF803000220EC
:101C70008DF8020069463B48FFF7B4FC4FF4004082
:101C8000ADF8000010208DF8030069463648FFF7D4
:101C9000A9FC4FF400413448FFF798FD0020334978
:101CA00008603349C1F8BC011420FFF7F5F90120A1
:101CB0003049086000F0BCFA0121FF2000F0FCFB75
:101CC0008021122000F0F8FB6420FFF7E5F91C20CA
:101CD00000F040FB04464FF6FF7000EA04241D208C
:101CE00000F038FB044347F6A270844201D0012083
:101CF00038BD0A2000F02EFB04464FF6FF7000EAC4
:101D000004240B2000F026FB044342F2426084428C
:101D100001D00220ECE700250AE0174A02EB450259
:101D20005178154A12F8150000F0C6FB681C85B200
:101D3000B22DF2D34FF4FA70FFF7AEF900F022F8AB
:101D40004FF4F0714FF4207000F042F802F064F8A4
:101D50000A480B4908600020CAE70000000801405B
:101D60000010014000140140000C01409C0122427F
:101D700000802142BC8121423C3E00083402002008
:101D80002400002010B5002400BF0AE00E4A02EB38
:101D9000440251780C4A12F8140000F08DFB601CCC
:101DA00084B2082CF2D300240AE0084A02EB440271
:101DB0005178064A12F8140000F07EFB601C84B2D1
:101DC000072CF2D310BD00000241000812410008A8
:101DD0002DE9F04104460D46E11704EB917189109D
:101DE000A4EB810111B10120BDE8F081E91705EBF9
:101DF00091718910A5EB810109B10220F4E7204619
:101E0000E11704EB9171C1F38F072846E91705EB41
:101E10009171C1F38F060021FF2000F04DFB0421DA
:101E2000E02000F049FB8921502000F045FBF9B289
:101E30005A2000F041FBF1B25B2000F03DFBC7F3FC
:101E40000128042000EAA61040EA080841465C2068
:101E500000F032FB0021E02000F02EFB0020C3E761
:101E600010B511480068047A022C01D0042C01D16D
:101E7000082412E0032C01D0052C05D1FEF740FF09
:101E800009480068047A08E0072C05D10749096869
:101E9000C8688047082400E00824034909680C72D8
:101EA00000F01CF810BD00003C01002040010020A3
:101EB000F0B5561C7510074E366806EB41042B46EC
:101EC00005E034F8047B20F8017B401C5B1E002BEE
:101ED000F7D1F0BD500100207047000010B50D484B
:101EE00090F82C10002000F047FC0B480068007AA6
:101EF000082805D1400209490880102008490880B7
:101F000005480068007A092801D1012010BD002091
:101F1000FCE70000A80000203C0100204C0100204C
:101F20004E01002001210B48016000200A4A108068
:101F300010460088074A10600020121D10604FF400
:101F4000E050054A108010460088024A10600020C8
:101F500070470000405C00404601002070B5044618
:101F60000D461048204008B904B104E040F27E312B
:101F70000D4801F0CFFE0DB1012D00D104E040F27B
:101F80007F31094801F0C6FE2DB10848C0692043E1
:101F90000649C86104E00548C069A0430349C86117
:101FA00070BD0000003600C1304300080010024040
:101FB00070B504460D461048204008B904B104E04D
:101FC00040F25D310D4801F0A5FE0DB1012D00D1AB
:101FD00004E040F25E31094801F09CFE2DB1084852
:101FE000806920430649886104E005488069A04370
:101FF0000349886170BD0000820107F83043000882
:1020000000100240F0B50022002100240023484DBA
:102010006D6805F00C0222B1042A05D0082A3ED1D1
:1020200005E0444D05603DE0424D05603AE0404D1D
:102030006D68414E05EA06013D4D6D6805F480343A
:1020400001F0C04535B901F47015B5F5701F01D028
:10205000022500E0012501F0C046C1F3834747EAAD
:102060005666A9191CB9354D4D4305600BE0304D3E
:102070006D6805F400351DB1304D4D43056002E03B
:102080002C4D4D4305602A4D6D6805F000452DB976
:102090002B4E0568B54201D93546056002E0254D55
:1020A000056000BF00BF224D6D68C5F30212204DD0
:1020B0006D6805F0800515B1224DAD5C00E000258E
:1020C0002B460568DD404560194D6D68C5F301225A
:1020D000174D6D6805F4806515B11A4DAD5C00E0D3
:1020E00000252B464568DD408560114D6D68C5F3C0
:1020F000C1220F4D6D6805F4005515B1114DAD5C51
:1021000000E000252B464568DD40C560084D6D6840
:10211000C5F38132064D6D6805F080550DB142F072
:102120000402094DAB5CC568B5FBF3F50561F0BD74
:102130000010024000127A0000003C6000093D00DF
:1021400000A24A04200200202802002010B5044604
:102150000CB1012C00D104E040F224510E4801F0F2
:10216000D9FD012C0BD10D48006B40F000700B49DC
:1021700008630846406D40F4807048650AE00748EF
:10218000006B20F00070054908630846406D20F49C
:102190008070486510BD0000304300080010024008
:1021A00010B504460CB1012C00D104E04FF4A2613B
:1021B000094801F0AFFD012C06D10848406D40F000
:1021C00030000649486505E00448406D20F03000C5
:1021D0000249486510BD000030430008001002406D
:1021E00070B5044600258CB1B4F5800F0ED0B4F55F
:1021F000000F0BD0B4F5400F08D0B4F1006F05D03C
:10220000B4F1046F02D0B4F1086F00D104E040F2E1
:102210001921054801F07EFD0448456825F00C654C
:102220002543456070BD00003043000800100240A7
:1022300008B501210820FFF7BBFE4FF48050ADF830
:10224000000048208DF8030002208DF80200694646
:102250001248FFF7C7F94FF480511048FFF7B6FA5C
:102260004FF40070ADF8000010208DF803006946AF
:102270000A48FFF7B7F94FF400710848FFF7A6FACC
:102280000648001D006820F470200449091D0860FC
:102290000846006840F44030086008BD000C01406A
:1022A00010B53220FEF744FF01200B4908600B49AE
:1022B000C1F8A4013220FEF73BFF002006490C398B
:1022C00008603220FEF734FF00200449C1F8B00155
:1022D0003220FEF72DFF10BDB08121420080214247
:1022E00070B500241848006820F470201649086072
:1022F0000846006840F400200860082515E03220F8
:10230000FEF716FF0120114908606006040E104810
:10231000D0F8300108B1601CC4B23220FEF708FFCB
:1023200000200A490860681EC5B2002DE7DC064897
:10233000006820F47020044908600846006840F4F2
:1023400040300860204670BD040C0140A481214249
:102350000080214270B50446002500F023F860207B
:1023600000F054F86420FEF7E3FE204600F04EF83B
:102370006420FEF7DDFE00F02FF86420FEF7D8FEA3
:1023800000F010F8612000F041F86420FEF7D0FE64
:10239000FFF7A6FF0546FFF783FF00F01DF828466C
:1023A00070BD000010B50120094908600949C1F855
:1023B000A4013220FEF7BCFE00200549086032204F
:1023C000FEF7B6FE00200349C1F8A40110BD0000CD
:1023D000B08121420080214210B5002009490860E7
:1023E0003220FEF7A5FE01200749C1F8A4013220E2
:1023F000FEF79EFE0120034908603220FEF798FE9A
:1024000010BD0000B08121420080214270B5044619
:1024100000261BE004F0800018B101202349086069
:1024200002E00020214908606006040E3220FEF719
:102430007FFE01201D490C3908603220FEF778FE2E
:1024400000201B49C1F8A401701CC6B2082EE1DBB4
:102450001848006820F47020164908600846006893
:1024600040F4002008603220FEF762FE01200F4990
:102470000C3908603220FEF75BFE0D48D0F83001C1
:1024800008B1012500E00025002008490C3908604A
:102490000848006820F47020064908600846006873
:1024A00040F440300860284670BD0000B0812142F1
:1024B00000802142040C014070B505460C46002600
:1024C000FFF770FF6020FFF7A1FF00B10126642035
:1024D000FEF72EFE2846FFF799FF00B10126642083
:1024E000FEF726FE2046FFF791FF00B10126FFF719
:1024F00073FF304670BD704730B501460F4B1A78F8
:10250000002014E003060E4C04EB9353D3F8003C78
:1025100048F68F74234048F280042343C4B2234317
:102520000406074D05EB9454C4F8003C401C90424F
:10253000E8D341F08003034C236030BDA4000020A9
:10254000005000404C5C004030B50346012920D1CA
:102550001648006880B200EBC300801C144D2D6843
:1025600005EB40043E2A0BDD501102F01F050DB9AA
:10257000451EA8B24FF4004545EA8025256007E0D6
:10258000501002F001050DB1451CA8B2850225606E
:102590000BE0022909D10548006880B200EBC300B6
:1025A000801C034C246844F8102030BD505C00406F
:1025B0005001002030B50346012920D1164800689B
:1025C00080B200EBC300801D144D2D6805EB400464
:1025D0003E2A0BDD501102F01F050DB9451EA8B2B1
:1025E0004FF4004545EA8025256007E0501002F0D1
:1025F00001050DB1451CA8B2850225600BE002293A
:1026000009D10548006880B200EBC300801D034C6F
:10261000246844F8102030BD505C00405001002078
:1026200030B54B105C000B4B1B689BB203EBC00337
:10263000094D2D6845F8134053105C00054B1B688D
:102640009BB203EBC0031B1D034D2D6845F81340DF
:1026500030BD0000505C00405001002030B50B46FA
:10266000012B20D12E49096889B201EBC001891CD8
:102670002C4D2D6805EB41043E2A0BDD511102F073
:102680001F050DB94D1EA9B24FF4004545EA81253D
:10269000256007E0511002F001050DB14D1CA9B2F3
:1026A0008D0225600BE0022B09D11D49096889B212
:1026B00001EBC001891C1B4C246844F81120012B3C
:1026C00020D11749096889B201EBC001891D154D58
:1026D0002D6805EB41043E2A0BDD511102F01F0568
:1026E0000DB94D1EA9B24FF4004545EA812525607C
:1026F00007E0511002F001050DB14D1CA9B28D0289
:1027000025600BE0022B09D10549096889B201EB6C
:10271000C001891D034C246844F8112030BD00001D
:10272000505C004050010020094A02EB8001D1F8C2
:10273000001C41F4807148F68F72114048F280020B
:102740001143034B03EB8002C2F8001C70470000EA
:102750000050004010B54A105300054A126892B26A
:1027600002EBC002121D034C246844F8123010BD65
:10277000505C00405001002010B50246104800682F
:1027800080B200EBC200801D0E4C246804EB4003B5
:102790003E290BDD481101F01F040CB9441EA0B204
:1027A0004FF4004444EA80241C6007E0481001F024
:1027B00001040CB1441CA0B284021C6010BD0000D6
:1027C000505C00405001002030B50E4C04EB8003FB
:1027D000D3F8003C4BF68F7403EA040201F48053F3
:1027E0000BB182F4805201F400530BB182F4005219
:1027F00042F4004343F08003024D05EB8004C4F82B
:10280000003C30BD0050004010B50B4B03EB800284
:10281000D2F8002C4BF68F7302EA030181F4805149
:1028200081F4005141F4004242F08002024C04EB7A
:102830008003C3F8002C10BD0050004010B54A10B2
:102840005300054A126892B202EBC002034C24689E
:1028500044F8123010BD0000505C004050010020D0
:10286000054A126892B202EBC002921C034B1B682D
:1028700043F8121070470000505C004050010020E7
:1028800030B50E4C04EB8003D3F8003C48F6BF741F
:1028900003EA040201F010030BB182F0100201F010
:1028A00020030BB182F0200242F4004343F0800386
:1028B000024D05EB8004C4F8003C30BD00500040E0
:1028C00010B5074B03EB8002D2F8002C48F68F13AB
:1028D0001A400A43024C04EB8003C3F8002C10BDDD
:1028E0000050004010B500F001F810BD1CB50020EC
:1028F000019000903548006840F48030334908600A
:1029000000BF3248006800F4003000900198401C7D
:102910000190009818B90198B0F5405FF1D12B48AB
:10292000006800F4003010B10120009001E00020A8
:1029300000900098012847D1244840682349486006
:102940000846406820F4605048600846406840F4FB
:10295000005048600846406820F4E060486008463F
:10296000406840F480604860084640681849084064
:1029700016494860084640681649084313494860AC
:102980000846006840F08070086000BF0F4800688B
:1029900000F000700028F9D00120FFF701FC0B487F
:1029A000406820F00300094948600846406840F04C
:1029B0000200486000BF0548406800F00C0008288D
:1029C000F9D10020FFF7ECFB1CBD00000010024015
:1029D000FFFFC01F00001DA010B50446012C3DD113
:1029E00035480068354A811A904221D009DC3449C3
:1029F000084478B14FEA6101084480B1084458BBEB
:102A000011E030480844C0B12E490844D0B1084410
:102A100010BB1CE04FF48000FFF7E2FB1DE000203C
:102A2000FFF7DEFB19E04FF44000FFF7D9FB14E09D
:102A30004FF40000FFF7D4FB0FE04FF00460FFF706
:102A4000CFFB0AE04FF00060FFF7CAFB05E04FF054
:102A50000860FFF7C5FB00E000BF28E0022C26D18C
:102A600001218805FFF7A4FA01212020FDF730FCA1
:102A700001211020FDF72CFC4FF4FA501249086098
:102A800009880A3988B2FDF735FC0F49098888B2F0
:102A9000FDF736FC0C4909880A3188B2FDF736FC8F
:102AA00001210320FDF7EEFB0120FFF74FFB012181
:102AB000C805FFF753FA10BD0C020020000E2707CF
:102AC000009423FD00CA91FE4000002038B5012487
:102AD0002A48006880B2001D2949096831F81000B1
:102AE00080B22749096801EB400000902548006842
:102AF000007A092832D000980078224909680870C5
:102B00000098401C0090009800781E4909684870A1
:102B10000098401C0090009800EB44000090009941
:102B200031F8020B0091FDF7A5FC164909684880B1
:102B3000009800EB44000090009931F8020B0091DE
:102B4000FDF798FC0F4909688880009800EB440065
:102B50000090009800880B490968C8800120094945
:102B60000968087207480068C08810B9FEF79CFF22
:102B700001E0FEF71DF9FFF7B1F938BD505C0040E8
:102B8000500100203C0100202DE9F0475448006826
:102B9000007800F07F08B8F1000F0AD150480068B3
:102BA000407A00F0DF004E49096848720020BDE815
:102BB000F087B8F1020F7CD149480068408818B905
:102BC00047480068007908B10220F0E7DFF8149167
:102BD00043480068477927F080052C464048006844
:102BE000407900F0800038B13F4901EB8400D0F813
:102BF000000C00F0300606E03B4901EB8400D0F801
:102C0000000C00F4405699F80000A84204D91EB107
:102C100033480068807A08B90220C8E707F08000CE
:102C200080B1314901EB8400D0F8000C00F0300095
:102C300010284BD1E0B2FDF7E9FDE0B23021FFF7FB
:102C40001FFE43E0284901EB8400D0F8000C00F49B
:102C50004050B0F5805F39D1E4B9244A92F82C1085
:102C6000E0B2FFF789FD204A02EB8401D1F8001C95
:102C70004BF68F7201EA020080F4805080F400501D
:102C800040F4004141F08001174B03EB8402C2F88D
:102C9000001C1BE0E0B2FDF79FFD134A02EB84012C
:102CA000D1F8001C4BF68F7201EA020080F48050CC
:102CB00000E011E080F4005040F4004141F0800158
:102CC000094B03EB8402C2F8001C00BF08490968E5
:102CD0004869804700206AE700BF022067E70000DC
:102CE0003C010020A400002000500040A80000206B
:102CF0004801002010B504462CB901200649096896
:102D00000882002010BD054909680868804702480C
:102D100000680A30F6E700003C010020480100206E
:102D200010B5024606480068438A32B98888C01A3E
:102D3000034C24682082002010BD08681844FBE77B
:102D40003C01002010B504462CB901200649096851
:102D50000882002010BD054909688868804702483C
:102D600000680C30F6E700003C010020480100201C
:102D700010B504462CB902203949096808820020A0
:102D800010BD00203749088035480068007800F001
:102D90007F0018BB32490968487A00F0200131B140
:102DA0003049097841F002012E4A117005E02D49A1
:102DB000097801F0FD012B4A117000F0400131B19A
:102DC0002849097841F00101264A117005E025499A
:102DD000097801F0FE01234A11703AE020480068AA
:102DE000007800F07F00012801D11E48C8E71C4888
:102DF0000068007800F07F00022828D1184A126885
:102E0000517901F00F0001F080027AB1164B03EB0B
:102E10008002D2F8002C02F03002102A16D1114A9A
:102E2000127842F001020F4B1A700FE00E4B03EBC9
:102E30008002D2F8002C02F44052B2F5805F05D136
:102E4000084A127842F00102064B1A7001E0002095
:102E500096E70649096808698047024890E700003C
:102E60003C010020340100200050004048010020B7
:102E700010B50E480068C0780D494978884213DCC7
:102E80000A480068807878B908480068808858B98E
:102E900006480068C07805490968887205490968CC
:102EA00048688047002010BD0220FCE73C0100205C
:102EB000A40000204801002010B507480068407AAF
:102EC00040F0200004490968487204490968C8694B
:102ED0008047002010BD00003C0100204801002078
:102EE0002DE9F0412E480068467926F080073C46DF
:102EF0002B480068407900F0800038B1294901EB87
:102F00008400D0F8000C00F0300506E0254901EB04
:102F10008400D0F8000C00F4405523480078A0420B
:102F200008D91F480068408820B91DB11C480068B6
:102F3000807A10B90220BDE8F08106F08000A0B1CF
:102F4000184A02EB8401D1F8001C48F6BF7201EA6E
:102F5000020080F0100040F4004141F08001114B6C
:102F600003EB8402C2F8001C14E00E4A02EB840159
:102F7000D1F8001C4BF68F7201EA020080F48050F9
:102F800040F4004141F08001064B03EB8402C2F89B
:102F9000001C00BF05490968886980470020CAE70E
:102FA0003C01002000500040A40000204801002007
:102FB00010B5174B1B68D978154B1B685879154B02
:102FC0001B689A699047044611480068807AE8B106
:102FD0003CB90F480068007918B90D48006880783E
:102FE00008B1022010BD8CB90B490968C868804738
:102FF00007480068407906490968C87204480068B3
:10300000C0780349096808730020EBE70220E9E76C
:103010003C010020400100204801002010B504467A
:10302000042C01D0601D00B903E0BE210BA000F00C
:1030300071FE042C08D14FF0E020006940F004003C
:103040004FF0E021086107E04FF0E020006920F038
:1030500004004FF0E021086110BD00002E2E5C2E10
:103060002E5C2E2E5C2E2E5C4C696272617269653C
:10307000735C41543332463478785F5374645065DE
:10308000726970685F4472697665725C7372635CC2
:103090006D6973632E6300007047000010B51A4815
:1030A000006840F47000184908601848006840F053
:1030B0000100164908600846406815490840134950
:1030C00048600846006813490840104908600846EF
:1030D000006820F480200860084640680E490840D7
:1030E0000A4948600846006B0C49084007490863D4
:1030F0004FF41F008860FFF7F5FB4FF000600249B6
:103100008039086010BD000088ED00E0001002402A
:103110000C00FFE8FFFFF6FEFFFF001700FFFEFEBA
:1031200010B586B0044601210420FEF741FF0121BD
:103130008803FEF73DFF05A8FEF778FB4FF400700B
:10314000ADF8140002208DF8160018208DF8170035
:1031500005A91748FEF746FA4FF48060ADF8140051
:1031600004208DF8170005A91148FEF73BFA01A8C5
:1031700000F062FA01940020ADF80800ADF80A00F2
:10318000ADF80C00ADF810000C20ADF80E0001A950
:10319000084800F02FF9012240F22551054800F0BF
:1031A000A1F80121034800F007F806B010BD0000A7
:1031B000000801400038014070B504460D4615482E
:1031C00084420BD01448844208D01448844205D06D
:1031D0001348844202D01348844200D104E040F2F4
:1031E0005711114800F096FD0DB1012D00D104E0FA
:1031F0004FF4AC710C4800F08DFD25B1A08940F46E
:103200000050A08104E0A0894DF6FF710840A08124
:1032100070BD0000003801400044004000480040FC
:10322000004C0040005000407443000870B5054653
:103230000C460026254885420BD02548854208D0FB
:103240002448854205D02448854202D0234885423F
:1032500000D104E040F26631214800F05BFD012C12
:1032600013D0802C11D0402C0FD0202C0DD0102C3E
:103270000BD0B4F5807F08D0B4F5007F05D0082CC2
:1032800003D0042C01D0022C00D104E040F26731BD
:10329000134800F03FFDB4F5007F0ED10B48854286
:1032A00005D00B48854202D00A48854200D104E08F
:1032B0004FF45B710A4800F02DFD2888204008B1CA
:1032C000012600E00026304670BD000000380140B5
:1032D0000044004000480040004C004000500040C6
:1032E000744300082DE9F04705460C4617464FF099
:1032F0000008C246C1460026384885420BD03848EF
:10330000854208D03748854205D03748854202D0EB
:103310003648854200D104E04FF4BF71344800F0D4
:10332000F9FC282C19D040F22770844215D040F2C5
:103330002660844211D040F2255084420DD040F2E4
:103340002440844209D040F64600844205D040F62D
:103350006A10844201D0602C00D104E040F27F1159
:10336000234800F0D7FC0FB1012F00D104E04FF447
:10337000C0711F4800F0CEFC40F66A1084420ED1A6
:103380001648854205D01648854202D01548854228
:1033900000D104E040F28511154800F0BBFC2E4638
:1033A000C4F3421804F01F0A012000FA0AF9B8F128
:1033B000010F01D10C3605E0B8F1020F01D1103632
:1033C00000E0143627B1306840EA0900306003E0BD
:1033D000306820EA09003060BDE8F087003801401D
:1033E0000044004000480040004C004000500040B5
:1033F000744300082DE9F04786B005460C460026C8
:10340000B24600BFB14600276B4885420BD06B48DF
:10341000854208D06A48854205D06A48854202D074
:103420006948854200D103E0AA21684800F072FC97
:10343000206820B166492068884200D203E0AB21B1
:10344000624800F067FCA08818B1A088B0F5805FE2
:1034500000D103E0AC215D4800F05CFCE08858B18D
:10346000E088B0F5805F07D0E088B0F5005F03D05A
:10347000E088B0F5405F00D103E0AD21534800F093
:1034800049FC208938B12089B0F5806F03D02089AC
:10349000B0F5C06F00D103E0AE214C4800F03AFC1B
:1034A00060894FF6F371084010B9608900B103E0FC
:1034B000AF21464800F02EFCA08958B1A089B0F594
:1034C000807F07D0A089B0F5007F03D0A089B0F538
:1034D000407F00D103E0B0213C4800F01BFCA089F4
:1034E00068B13548854205D03448854202D0344819
:1034F000854200D103E0B521344800F00BFC2F4693
:103500002E8A4CF6FF700640E08806432E82AE8974
:103510004EF6F3100640A0882189084361890843CC
:103520000643AE81AE8A4FF6FF400640A0890643AF
:10353000AE8201A8FEF766FD1F48874202D1DDF882
:1035400010A001E0DDF80CA0A88900F4004040B113
:103550000AEBCA0000EB0A1021684900B0FBF1F841
:1035600007E00AEBCA0000EB0A1021688900B0FBF3
:10357000F1F86420B8FBF0F006013009642101FB8A
:103580001089A88900F4004040B1322000EBC90046
:10359000B0FBF1F000F00700064308E0322000EB3A
:1035A00009106421B0FBF1F000F00F0006432E81FA
:1035B00006B0BDE8F087000000380140004400403C
:1035C00000480040004C0040005000407443000898
:1035D00021AA440070B504460D46114884420BD020
:1035E0001048844208D01048844205D00F488442D5
:1035F00002D00F48844200D104E040F249210D4836
:1036000000F088FBB5F5007F00DA04E040F24A21C3
:10361000084800F07FFBC5F30800A08070BD0000E3
:10362000003801400044004000480040004C004089
:1036300000500040744300084FF41651016000210F
:103640008180C18001810C214181002181817047ED
:1036500010B54FF48020FDF7D5FE10BD10B5FCF776
:103660000FFF10BD10B5084808490860022009681E
:103670000872074807490860074808490860054973
:1036800009680868804710BD344201203C010020D1
:10369000A800002040010020D800002048010020A0
:1036A0000EB54FF48020FDF7ADFE4FF48020009062
:1036B00000208DF8040008208DF8050001208DF809
:1036C00006006846FDF7B0FE14208DF808000220C1
:1036D0008DF809008DF80A0001208DF80B0002A872
:1036E000FEF730F913208DF8080001208DF809004D
:1036F00000208DF80A0001208DF80B0002A8FEF7CB
:1037000021F92A208DF8080002208DF809000320F5
:103710008DF80A0001208DF80B0002A8FEF712F9BF
:1037200048208DF8080000208DF8090003208DF84E
:103730000A0001208DF80B0002A8FEF703F90EBD68
:1037400010B50F4800680F4908800846008800F44B
:1037500080600D490988084030B14FF6FF300849B4
:1037600008600A49486880470648008800F400401D
:1037700005490988084008B1FCF7EAFE10BD0000C1
:10378000445C00406801002046010020A8000020A1
:1037900010B5FFF7D5FF10BD70B54B4D4B48006815
:1037A000A8BB4B48007840B14A4800684A490860C5
:1037B0004A4800684A49086007E04A4800684649A4
:1037C0000860494800684649086002203E49891E51
:1037D00008700846407800F00100487008464078BC
:1037E00080F001004870AE243B490968374A1268EE
:1037F00088182246294600F08FFAB0224FF4A071B3
:103800003148801E00F07EF93048046023E0FFE775
:10381000AE242E48006820443149096888420CD300
:103820002F48006829490968441A2748801E4078B3
:1038300040F002002449891E487027490968234A3C
:10384000126888182246294600F066FA1F48006868
:1038500020441E4908602548006800F4804058B1A3
:10386000B02290211848801E00F04CF9B0220221AD
:103870000120FEF769FE0BE0B0224FF4A071124860
:10388000801E00F03FF9B02202210120FEF792FED7
:103890001648006848F68F7108404CF280010843D2
:1038A00012490860094800680D490968884209D32F
:1038B0000B480268054801680DA000F061F900207E
:1038C0000249086070BD0000D66F0120B8010020D9
:1038D0002800002018000020200000202C000020DC
:1038E000340000201C00002030000020045C004058
:1038F0006A3D2564206B3D2564200A0000BFFEE779
:1039000070B504460025812C01D0012C13D110483C
:1039100000688088B0F5807F0FD10D48006840882E
:10392000012801D10B4D08E00948006840880228B1
:1039300003D1094D01E0022070BD05480068856192
:1039400000210348006841820020A8470020F3E7D7
:103950003C010020613B0008413B000810B50446D3
:1039600002492046FFF7DCF910BD000004010020E9
:1039700010B5044602492046FFF7D2F910BD0000F9
:10398000FC00002070B5054606480068C478042C89
:1039900001DD002070BD044800EBC4012846FFF79C
:1039A000BFF9F7E73C0100200C0100200246012985
:1039B00001DD02207047012A01DD0220FAE7002024
:1039C000F8E701460220704710B500202D4909682C
:1039D00088722D48C0792B490968487200202B490C
:1039E00008604915FEF76CFF20210020FEF748FF14
:1039F00010210020FEF7AEFE254890F82C10002084
:103A0000FEF7BAFE50210020FEF718FF0020FCF759
:103A100017FF0020FEF7F8FE4FF480610120FEF74B
:103A20004FFF0120FEF780FE4FF4A072902101208D
:103A3000FEF7F6FDB02202210120FEF70FFE012065
:103A4000FCF7CAFE0120FCF7E1FE00220221012062
:103A5000FEF77AFD002202210120FEF7ABFD0021D6
:103A60000120FEF7B1FE20210120FEF709FF002012
:103A7000FEF7CAFE0020FEF73FFD01200549086061
:103A800010BD00003C01002076410008505C004061
:103A9000A80000202C0100200348817A11B10521E3
:103AA000024A116070470000344201202C010020BE
:103AB00004200149086070472C01002070477047BE
:103AC00010B5FDF7DDFE00200A4909688872FEF78F
:103AD00029FA0020084908604FF40440074908808B
:103AE000084600880449091F08600020044908604E
:103AF00010BD00003C010020445C00404601002055
:103B00002C010020F0B5144604F1010C4FEA6C07BB
:103B1000DFF828C0DCF800C00CEB41033D460AE0AA
:103B20000678401C90F800C046EA0C2223F8022BCD
:103B30009B1C401C6D1E002DF2D1F0BD50010020D9
:103B4000014639B904480068C088034A12681082E7
:103B5000002070470148FCE73C0100206000002085
:103B6000014639B904480068C088034A12681082C7
:103B7000002070470148FCE73C0100208200002043
:103B80000FB4054B10B503A9044A029800F018F8C9
:103B900010BC5DF814FB00002D3D00083002002031
:103BA00002E008C8121F08C1002AFAD17047704706
:103BB000002001E001C1121F002AFBD17047000064
:103BC0002DE9FF4F89B09B460446002506E02528D5
:103BD0000BD05A460B999047641C6D1C2078002826
:103BE000F5D10DB02846BDE8F08F0027B846012278
:103BF000474900E0074314F8013F203B02FA03F075
:103C00000842F7D120782E2819D114F8010F47F077
:103C100004072A280ED06FF02F022078A0F130017F
:103C200009290CD808EB880102EB410100EB0108DF
:103C3000641CF2E70A98641C50F8048B0A90207800
:103C40000028CED0642808D0692806D075281ED058
:103C50005A460B9990476D1C58E00A994FF00A0993
:103C600001C90A91002802DA40422D2102E03905FB
:103C700004D52B218DF82010012103E0F90704D091
:103C80002021F7E78A4608AE0DE00021FAE70A99FD
:103C90004FF00A0901C90A91F7E74946FCF78AFA89
:103CA000303106F8011D0028F7D1ADEB060000F118
:103CB0002009780701D44FF00108C84502DDA8EBC0
:103CC000090000E000208046002706E008A85A46C8
:103CD000C05D0B9990476D1C7F1C5745F6DB04E0D7
:103CE00030205A460B9990476D1CB8F10001A8F19D
:103CF0000108F5DC05E016F8010B5A460B999047D0
:103D00006D1CB9F10001A9F10109F4DC641C65E73F
:103D10000928010000BFFEE704E003780B70491C8E
:103D2000401C521E002AF8D17047000070B50446AE
:103D30000D46A1B20548FFF74DFC00BF40210348E6
:103D4000FFF774FA0028F9D0204670BD0038014012
:103D50002548FDF76BFD2548FDF7E0FB4FF4A0601B
:103D6000FDF764FEFCF7F8FA4FF4E120FFF7D8F90D
:103D7000FCF760FBFFF794FC0120FEF72DFEFFF738
:103D800071FCFDF709FAFDF79DFAFDF7E9FAFDF779
:103D900027FF8020164908601648016816A0FFF723
:103DA000EFFE00BF1A4800780028FBD011480168D8
:103DB00012A0FFF7E5FE1749096848F6BF7201EA4D
:103DC000020080F0100080F0200040F4004141F03B
:103DD0008001104A116006E00320FCF711FB4FF44C
:103DE000FA70FDF759F9F7E7000000200400002001
:103DF00000E100E02C000020313131316672616D4C
:103E0000654275665F315F6C656E3D25640000003C
:103E100028000020045C004010B50021FF20FEF7C0
:103E20004BFB0F21D320FEF747FB0121FF20FEF7BC
:103E300043FB02211120FEF73FFB10BDFF002CFFCA
:103E40002EDFFF013C321100090204D813E51448AB
:103E50002C0C33783A333BFB3E0043111610399259
:103E600035DA221A37C3230034C0361A068807C051
:103E70000D870E414C0048005B0042034A812199A6
:103E80002440253826825C00630046000C3C6170AB
:103E900062807C05208028306C006D806E0070028E
:103EA000719473C13D345A571200171118751901D6
:103EB0001A973236030F37404FCA50A85A236D0065
:103EC0006D38FF00E57FF9C04124E01476FF33A090
:103ED000422043184C0087D5883FD703D910D3829E
:103EE000C808C9807C007D007C037D487D487C0833
:103EF0007D207D107D0E9000910E911A9131915A86
:103F000091699175917E9188918F919691A391AFCE
:103F100091C491D791E891209200930693E3930581
:103F200093059300930493009300930093009300F0
:103F3000930093009600970897199702970C97247F
:103F40009730972897269702979897809700970021
:103F5000C3EFA400A800C511C651BF80C710B66644
:103F6000B8A5B764B97CB3AFB497B5FFB0C5B19489
:103F7000B20FC45CC0C8C1968C00863D5000519001
:103F8000522C5300540055885A905B2C5C05D30288
:103F9000C3ED7F00DA09E51FE167E000DD7F050082
:103FA000FF002CFF2EDFFF013C321100090204D874
:103FB00013E514482C0C33783A333BFB3E00431195
:103FC0001610399235DA221A37C3230034C0361A54
:103FD000068807C00D870E414C0048005B00420375
:103FE0004A8121992440253826825C0063004622BC
:103FF0000C3C617062807C05208028306C006D80F4
:104000006E007002719473C13D345A5712401711FB
:10401000184319001A4B320937C04FCA50A85A2307
:104020006D003D38FF00E57FF9C04124E01476FFC4
:1040300033A0422043184C0087D5883FD703D910BE
:10404000D382C808C9807C007D007C037D487D4800
:104050007C087D207D107D0E9000910E911A91318B
:10406000915A91699175917E9188918F919691A3C2
:1040700091AF91C491D791E891209200930693E378
:10408000930593059300930493009300930093008A
:104090009300930093009600970897199702970C46
:1040A000972497309728972697029798978097009C
:1040B0009700C3EDA400A800C511C651BF80C7106A
:1040C000B666B8A5B764B97CB3AFB497B5FFB0C551
:1040D000B194B20FC45CC064C14B8C00863D5000EB
:1040E00051C852965300540055005AC85B965C0064
:1040F000D302C3ED7F00DA09E51FE167E000DD7F51
:104100000500FF00DA10D703DF0033803C40E17781
:104110000000FF01E014E177E51FD703DA10E000AB
:10412000FF00DA09D703DF0233A03C00E167FF019B
:10413000E000E100E500D700DA00E000FF01242004
:1041400025182660FF012434251C2600FF01243E8B
:1041500025382681FF01244825402681FF01245867
:104160002550269212010002EF0201408519171016
:104170000001010203010902900002010080FA0817
:104180000B00020E03000209040000000E010002F1
:104190000D240100011E00808D5B00010108240236
:1041A00002010400000924030301010002000904C4
:1041B0000100000E0200000E2401013F00810003F7
:1041C00000000001000B24060101010100000000B5
:1041D00026240701028002E0010020030000800C79
:1041E000000040010040420F000040420F004042EA
:1041F0000F000000000009040101010E0200000789
:10420000058105B0000104030904260341005400A0
:104210003300320020002000200020002000200079
:10422000200020002000200020002000200020008E
:10423000320341005400330032002000430061008B
:104240006D006500720061002000560031002E00F4
:10425000300020002000200020002000200020004E
:10426000200000002E2E5C2E2E5C2E2E5C2E2E5C4E
:104270004C69627261726965735C415433324634D1
:1042800078785F5374645065726970685F447269CE
:104290007665725C7372635C61743332663478780D
:1042A0005F646D612E6300002E2E5C2E2E5C2E2E20
:1042B0005C2E2E5C4C69627261726965735C41545C
:1042C0003332463478785F5374645065726970682D
:1042D0005F4472697665725C7372635C61743332D9
:1042E000663478785F657874692E63002E2E5C2EB4
:1042F0002E5C2E2E5C2E2E5C4C696272617269659A
:10430000735C41543332463478785F53746450653B
:10431000726970685F4472697665725C7372635C1F
:1043200061743332663478785F6770696F2E63002A
:104330002E2E5C2E2E5C2E2E5C2E2E5C4C69627214
:1043400061726965735C41543332463478785F53E7
:1043500074645065726970685F4472697665725CF6
:104360007372635C61743332663478785F7263634E
:104370002E6300002E2E5C2E2E5C2E2E5C2E2E5CCC
:104380004C69627261726965735C415433324634C0
:1043900078785F5374645065726970685F447269BD
:1043A0007665725C7372635C6174333266347878FC
:1043B0005F75736172742E6300000000DC430008B7
:1043C000000000203402000004020008AC44000891
:1043D0003402002054720100B03B0008011813346D
:1043E00002142034A2022420141A0366124312413C
:1043F000124D1231DA30331201C6010140420F0B67
:104400002D4001221A030F13C13A1408C9391B08A1
:10441000BD081ABF041A010C1AC3041AAD041A719C
:10442000041A5D041A8504393F311343191B089996
:104430002829080912041AB11C1364413308121AFE
:10444000760832901306423308041A0A0832261AF4
:104450003008323222447B201AAE011F12602A40FB
:10446000803210E3803E0B18911190091A04E10A82
:104470001402837C1401400419B011124042809A46
:104480002004111A081C1C100140412A20E829A40C
:104490008139557CB0710B106808020304060708C7
:0C44A0000908380802040608020C083362
:040000050800017D71
:00000001FF
