:020000040800F2
:10000000F08C022091010008B13B0008C52D0008CA
:100010007D3B0008D50B00087D650008000000004E
:10002000000000000000000000000000554900082A
:10003000AD1B000800000000014100083D5500080C
:10004000AB010008AB010008AB010008AB010008E0
:10005000AB010008AB010008AB010008591E000805
:10006000091F0008A11F0008AB010008AB01000830
:10007000AB010008CD0F0008BD100008AB0100085F
:10008000AB010008AB010008AB0100081D640008CB
:1000900051650008AB010008AB010008AB01000886
:1000A000AB010008AB010008AB010008AB01000880
:1000B000AB010008AB010008AB010008AB01000870
:1000C000AB010008AB010008AB010008AB01000860
:1000D000AB010008AB010008AB010008AB01000850
:1000E000AB010008AB01000819600008AB01000873
:1000F000AB010008AB010008AB010008AB01000830
:10010000AB010008AB010008AB010008AB0100081F
:10011000AB010008AB010008AB010008AB0100080F
:10012000AB010008AB010008AB010008AB010008FF
:10013000AB010008AB010008AB010008AB010008EF
:1001400000000000000000000000000000000000AF
:10015000AB010008AB010008AB010008AB010008CF
:1001600081020008AB010008AB010008AB010008E8
:10017000AB010008AB010008AB010008DFF80CD0B0
:1001800000F018F8004800472D680008F08C0220A5
:100190000648804706480047FEE7FEE7FEE7FEE721
:1001A000FEE7FEE7FEE7FEE7FEE7FEE74155000853
:1001B0007D010008064C074D06E0E06840F00103B1
:1001C00094E8070098471034AC42F6D3FFF7DAFF03
:1001D000646F0008846F000870B58C1810F8015B1C
:1001E00015F0070301D110F8013B2A1106D110F8D0
:1001F000012B03E010F8016B01F8016B5B1EF9D1D4
:100200002B0705D40023521E0DD401F8013BFAE759
:1002100010F8013BCB1A921C03E013F8015B01F8C4
:10022000015B521EF9D5A142D8D3002070BD000059
:10023000012805D10749096821F00101054A11602B
:10024000022805D10349096821F00201014A116021
:100250007047000000580140024A12680243014BF7
:100260001A6070470458014001460020034A126892
:100270000A400AB1012000E0002070470058014008
:1002800010B50120FFF7F0FF012801D1FFF7D0FFE3
:100290000220FFF7E9FF012802D10220FFF7C8FF83
:1002A00010BD000029B1074A12680243054B1A60CD
:1002B00006E0044A1268C3439BB21A40014B1A601D
:1002C0007047000004580140014908607047000071
:1002D0000C58014001490860704700001058014067
:1002E00001490860704700001458014038B50446C1
:1002F0000B4951F82400012103F0C2FF684602F0C7
:100300008FFC084830F81400ADF8000028208DF864
:100310000300054951F82400694602F023F838BD6E
:10032000F0010020EC010020E401002010B501F0F4
:100330003FFC012000F070FA022000F06DFA03206B
:1003400000F06AFA012000F08BFA022000F088FA2F
:10035000032000F085FA0020FFF7C8FF0120FFF717
:10036000C5FF10BD00B585B00121084603F088FF28
:100370000121022002F0BAF80121480503F02CFF08
:100380000121082003F07CFF4FF44070ADF810000D
:1003900002208DF812001C208DF8130004A91148CA
:1003A00001F0E0FF104802F0CBFD0020ADF80400A2
:1003B0004BF6FF70ADF806000020ADF808004FF4D2
:1003C0008060ADF80A000001ADF80C00074800900D
:1003D0006946054802F0D8FE0121034802F080FD7D
:1003E00005B000BD000C014000540040400D03006A
:1003F00070B504466FF07F46002504E06D1CB542E1
:1004000001D3012070BD2146034802F0DDFC002825
:10041000F4D00020F6E700000054004070B5044618
:100420000E4615464FF4FA6002F0BCFD4FF4003161
:100430001D4802F01DFE08B1012070BD01211A48BF
:1004400002F0B6FD1948FFF7D3FF08B10120F4E729
:1004500000222146144802F06BFF1548FFF7C8FF41
:1004600008B10120E9E731460F4802F08FFF10483C
:10047000801CFFF7BDFF08B10120DEE729460A48CE
:1004800002F084FF0A48801CFFF7B2FF08B1012088
:10049000D3E70121044802F0BBFD4FF4FA5002F00B
:1004A00081FD0020C9E70000005400400100030066
:1004B000820007000148D0F84002704748850220BA
:1004C0000148806870470000A00100200349D1F86E
:1004D000840F0022C1F8842F704700007873022037
:1004E000F0B5024613461348B0F8800F124F07EBE1
:1004F00040044E10002518E00E48B0F8800FB0F50B
:10050000F06F04DB00270B48A0F8807F0A4C33F81B
:10051000020B24F8020B0748B0F8800F401C87B28A
:100520000448A0F8807F681C85B2B542E4DB002057
:10053000F0BD000078730220786302207CB5044689
:100540000D46684602F06CFBA8480461C56000696E
:100550004FF47A71B0FBF1F0A449C968C908484367
:100560004000A2490860084600694FF47A71B0FB68
:10057000F1F09E49C968C908484340009B4988601A
:1005800000209B49C1F840029A49C1F8400200216D
:100590009948A0F8821FA0F8801F0121042003F0D1
:1005A0006FFE01208DF8020004208DF8030030203A
:1005B000ADF800006946914801F0D4FE18208DF88E
:1005C00003008020ADF8000069468C4801F0CAFEA7
:1005D0000121080303F054FE894804F065F98948B5
:1005E00002F0F0FE814800694BF68031884202D16A
:1005F0008449886003E04FF47A5082498860002083
:100600008049488088817948C068182802D1032031
:10061000888002E000207B49888000207949C880DA
:100620000880774802F014FF01220221744804F088
:10063000F5F80121724802F0CFFE0121084603F0CF
:10064000A1FD714800F0D0FF6848006840086F497C
:10065000C86010208860664848604FF48060C861B8
:100660008020486100200862886265480C3008607C
:1006700080158861002008614FF40050486262488C
:1006800000F0EAFE012202215F4800F08BFE01210A
:100690005D4800F051FD022003F000FB0D208DF8B5
:1006A000040001208DF8070000208DF805008DF86A
:1006B000060001A803F07EFA0121082003F0E0FD06
:1006C00001208DF8020004208DF803004FF4405003
:1006D000ADF8000069464E4801F044FE18208DF840
:1006E00003004FF40040ADF800006946484801F0AF
:1006F00039FE0121880303F06FFD464804F0D4F869
:10070000404802F05FFE394800694BF6803188426C
:1007100002D13C49886003E04FF47A50394988603F
:1007200000203849488088813048C068182802D1A4
:100730000320888002E0002032498880002031496F
:10074000C8804FF480700880324802F081FE012298
:100750001146304804F062F801212E4802F03CFEB8
:100760000121084603F00EFD2748143000F03CFF3D
:100770001E48806840082549C860002088601D48E0
:1007800048604FF48060C8618020486100200862A2
:10079000886220480C30086080158861002008615C
:1007A0004FF4005048621848143000F055FE012202
:1007B00002211548143000F0F5FD012112481430D3
:1007C00000F0BAFC022003F069FA0E208DF8040054
:1007D00001208DF8070002208DF8050000208DF81B
:1007E000060001A803F0E6F97CBD0000A00100208E
:1007F000008302204885022078730220000801400F
:10080000003001409087022030000240A087022083
:10081000000C01400038004038B504460D4951F83D
:100820002400012103F02CFD684602F0F9F90A4882
:1008300030F81400ADF8000010208DF803000220FD
:100840008DF80200054951F82400694601F08AFD3F
:1008500038BD0000D4010020CC010020BC010020E4
:10086000032800DD7047064931F8101031B1044902
:1008700031F81010034A52F82020116100BFF1E74F
:10088000CC010020BC010020032800DD704709498D
:1008900031F8101059B1084951F82010C968054ABB
:1008A00032F810205140044A52F82020D16000BF95
:1008B000ECE70000CC010020BC01002010B504468C
:1008C00000215A4802F088FD0021594800F034FC0C
:1008D0000021584802F080FD00215548143000F0F6
:1008E0002BFC5548046100694FF47A71B0FBF1F0BC
:1008F0005149C968C908484340004F490860084643
:1009000000694FF47A71B0FBF1F04B49C968C9082E
:100910004843400048498860444803F0C5FF4548C3
:1009200003F0C2FF4BF68030844202D14349886015
:1009300003E04FF47A504149886000203F49088025
:100940003A4802F085FD01220221384803F066FF93
:100950000121364802F040FD4FF48070374908808D
:10096000344802F075FD01221146324803F056FF6B
:100970000121304802F030FD2D4800F035FE2E48B0
:10098000006840082E49C860102088602D484860E3
:100990004FF48060C861802048610020086288624E
:1009A00022480C30086080158861002008614FF4EF
:1009B000005048621E4800F04FFD012202211C48F1
:1009C00000F0F0FC01211A4800F0B6FB1848143082
:1009D00000F00AFE1848806840081949C8600020E5
:1009E0008860194848604FF48060C8618020486181
:1009F0000020086288620F480C300860801588610A
:100A0000002008614FF4005048620948143000F09B
:100A100023FD012202210648143000F0C3FC01210D
:100A20000348143000F088FB10BD00000030014086
:100A30003000024000380040A001002090870220D2
:100A4000A0870220008302204885022008B50121EA
:100A5000042003F015FC684602F0E2F84FF4C050A1
:100A6000ADF8000010208DF8030002208DF8020080
:100A70006946044801F076FC4FF48051014802F0C9
:100A80006FF808BD0008014010B505F0EFFD10BD7E
:100A900010B505F0EFFD10BD10B52DED048BFFF77F
:100AA00015FD400009EE100A2A48006880004FF446
:100AB0007A71B0FBF1F0000208EE900A254890ED43
:100AC000000AF8EE400AB0EE490AB8EE400A60EEBD
:100AD000800AB0EE680AB8EE400A80EE801AB0EEE6
:100AE000418AB6EE000A38EE000AB0EE408ABCEE4B
:100AF000C80A10EE104A0846B4FBF0F000EB4001C3
:100B0000C1EBC010A4EBC000F02101EA00101249B3
:100B100008704FF47A70B4FBF0F0C02101EA801045
:100B20004FF47A71B4FBF1F101EB4102C2EBC11158
:100B3000A4EBC101C1F305110843074948704FF404
:100B40007A70B4FBF0F0C0F3870088700846BDEC03
:100B5000048B10BDB4010020B801002070B504461C
:100B60000D46054804602946204605F087FD08B17A
:100B7000012070BD0020FCE7B401002070B50446E0
:100B80000D4603480460204605F0E2FD70BD0000FC
:100B9000B401002010B50446204605F0B9FD10BD93
:100BA00010B50446204605F0C3FD10BD10B504463F
:100BB000204605F0B5FD10BD10B50446204605F0F1
:100BC000BFFD10BD70B504460D462946204605F010
:100BD000E9FD70BD00BFFEE70146CAB20B1243EA51
:100BE0000220704710B500244DE047F6FF702B49F6
:100BF00008602B48008800F00F002A49087008465A
:100C0000007800B910BD27480078274901EB800023
:100C1000D0F8000C84B204F40040C8B12148007838
:100C200001EB8000D0F8000CC0F30E0048F68F7185
:100C300008401C4909781C4A02EB8101C1F8000CEC
:100C400018490978491E194A52F8210080471AE0CC
:100C500004F08000B8B113480078134901EB80001C
:100C6000D0F8000C48F60F7108400E4909780E4A7A
:100C700002EB8101C1F8000C0A490978491E0C4AAF
:100C800052F8210080470548006880B20449088076
:100C900000F400400028A8D100BFB3E7445C004046
:100CA0003C0000202C010020005000405C0000208F
:100CB0004000002008B50020009022E197480088FD
:100CC00000F00F00964908700846007800287CD193
:100CD00094480068944908800846008800F0300075
:100CE000924908809048008800F440508E4908805E
:100CF0008C4909684BF6BF7201EA020080F400508B
:100D000080F0200040F4004141F08001854A1160EC
:100D10008248008800F0100090BB1046006848F63A
:100D20000F7108401146086002F092FC7D49096885
:100D30004BF6BF7201EA02007B49098801F4805139
:100D400009B180F480507849098801F4005109B153
:100D500080F400507549098801F0100109B180F054
:100D600010007249098801F0200109B180F02000CB
:100D700081B241F4004141F080016A4A116008BD2E
:100D8000FFE76848006880B20090BDF8000000F4FA
:100D90000060B0B363480068C0F30E0048F68F717E
:100DA00008406049086004F0E3F85E4909684BF6C2
:100DB000BF7201EA02005C49098801F4805109B15F
:100DC00080F480505849098800E056E001F4005151
:100DD00009B180F400505549098801F0100109B1AA
:100DE00080F010005149098801F0200109B180F01C
:100DF000200081B241F4004141F08001494A116074
:100E0000BDE7FFE7BDF8000000F40040002878D0FF
:100E100044480068C0F30E0048F68F71084041490D
:100E2000086003F031F93F4909684BF6BF7201EAE7
:100E300002003D49098801F4805109B180F48050D5
:100E40003949098801F4005109B180F4005037494B
:100E5000098801F0100109B180F0100033490988B8
:100E600001F0200109B180F0200081B241F400417D
:100E700041F080012B4A116081E7294800782C4914
:100E800001EB8000D0F8000C80B20090BDF80000AB
:100E900000F40040C0B12248007801EB8000D0F897
:100EA000000CC0F30E0048F68F7108401C49097809
:100EB0001F4A02EB8101C1F8000C19490978491E4B
:100EC0001C4A52F821008047BDF8000000F0800065
:100ED000B8B113480078164901EB8000D0F8000C37
:100EE00048F60F7108400E490978114A02EB81015A
:100EF000C1F8000C0A490978491E0F4A52F821002E
:100F0000804708484430006880B20449088000F4F3
:100F1000004000287FF4D2AE00BF30E73C00002044
:100F20002C010020005C0040400100204201002014
:100F3000005000405C000020400000200B4A02EB03
:100F40008001D1F8001C01F4804171B102EB8001F5
:100F5000D1F8001C48F68F7211404CF28002114308
:100F6000024B03EB8002C2F8001C704700500040A7
:100F70000B4A02EB8001D1F8001C01F0400171B175
:100F800002EB8001D1F8001C48F68F72114048F244
:100F9000C0021143024B03EB8002C2F8001C7047F1
:100FA00000500040084A02EB8001D1F8001C48F6CE
:100FB0008F62114048F280021143034B03EB800221
:100FC000C2F8001C704700000050004010B501241A
:100FD000600200F023F9012866D10021334800F0B7
:100FE000ABF8600200F0FAF83148B0F8801FB0F8B2
:100FF000820F814210DD2E48B0F8820F401C2C4930
:10100000B1F8801F88421BDD2948B0F8801FB0F876
:10101000820F081A84B213E02548B0F8821FB0F896
:10102000800F81420CDD2248B0F8820F401CB0F5E1
:10103000F06F05DD1E48B0F8820FC0F5F06084B295
:101040001B48B0F8801FB0F8820F814204D11948C4
:1010500016493039C86319E01548B0F8820F1649AF
:1010600001EB400011493039C8631148B0F8820FD4
:10107000204481B20E48A0F8821FB0F8820FB0F56C
:10108000F06F03DB00210A48A0F8821F0848D0F85F
:10109000840F01190648C0F8841F0448303844639F
:1010A0000121024800F048F810BD00003000024065
:1010B00078730220CC8702207863022010B54FF4A9
:1010C000005000F0ABF801282FD1400300F086F863
:1010D0000021164800F030F8154890F8440268B92D
:1010E0000120134981F8440201F590700F494439F9
:1010F00008650F480146C1F840020CE000200C4989
:1011000081F84402084609494439086500F59070A1
:101110000749C1F84002074880684008034944393C
:1011200088640121014800F007F810BD4400024026
:1011300048850220A001002070B504460D462448D1
:1011400084422AD022481430844226D020482830B5
:10115000844222D01E483C3084421ED01C4850306D
:1011600084421AD01A486430844216D01848783025
:10117000844212D0174884420FD01648143084425B
:101180000BD014482830844207D012483C308442A7
:1011900003D010485030844200D104E04FF4A871CD
:1011A0000D4805F02FFB0DB1012D00D104E040F2F8
:1011B0005111094805F026FB25B1206840F00100D7
:1011C000206004E020684FF6FE710840206070BD8A
:1011D0000800024008040240406D000810B50446B3
:1011E00004F0704010B10948204008B904B104E08F
:1011F0004FF43671064805F005FB04F0805010B13D
:101200000448046001E00448446010BD0000F0EFB1
:10121000406D0008040402400000024070B504461E
:1012200000250026012C7DD0022C7BD0042C79D007
:10123000082C77D0102C75D0202C73D0402C71D076
:10124000802C7FD0B4F5807F7CD0B4F5007F79D03E
:10125000B4F5806F76D0B4F5006F73D0B4F5805FCD
:1012600070D0B4F5005F6DD0B4F5804F6AD0B4F59E
:10127000004F67D0B4F5803F64D0B4F5003F61D033
:10128000B4F5802F5ED0B4F5002F5BD0B4F5801F8D
:1012900058D0B4F5001F55D0B4F5800F52D0B4F536
:1012A000000F4FD0B4F1807F4CD0B4F1007F49D013
:1012B000B4F1806F46D0B4F1006F43D02C48844223
:1012C00040D0401C84423DD0801C84423AD0001D56
:1012D000844237D026480F30844233D024481F3010
:1012E00084422FD022483F3084422BD020487F3088
:1012F000844227D01E48FF30844223D01D488442B8
:1013000020D01D4884421DD01C4884421AD0B4F11C
:10131000102F17D04FEAF030844213D0184884427F
:1013200010D000E00EE0174884420BD016488442EB
:1013300008D01648844205D01548844202D015488A
:10134000844200D104E040F28121134805F05AFAAA
:1013500004F0805010B11148066801E0104806689A
:1013600006EA040008B1012500E00025284670BD0A
:10137000010000100002001000040010000800101E
:10138000004000100080001000000110000002105A
:101390000000041000000810406D00080004024026
:1013A0000000024070B504460D46164627488442A8
:1013B0002AD026481430844226D02448283084423B
:1013C00022D022483C3084421ED0204850308442F3
:1013D0001AD01E486430844216D01C4878308442AB
:1013E00012D01B4884420FD01948143084420BD0CD
:1013F00017482830844207D015483C30844203D037
:1014000013485030844200D104E04FF4B8711148C1
:1014100005F0F8F925F00E0008B905B104E040F236
:1014200071110C4805F0EEF90EB1012E00D104E067
:101430004FF4B971074805F0E5F91EB1206828435B
:10144000206002E02068A843206070BD08000240D0
:1014500008040240406D000870B505460C460026A1
:101460005E4885422AD05D481430854226D05B48CC
:101470002830854222D059483C3085421ED05748FA
:10148000503085421AD055486430854216D05348B2
:101490007830854212D0524885420FD050481430DF
:1014A00085420BD04E482830854207D04C483C300E
:1014B000854203D04A485030854200D103E0C12123
:1014C000484805F09FF9A068102801D0A06800B92D
:1014D00003E0C221434805F095F9E06820B1E068D7
:1014E000B0F5803F00D203E0C3213E4805F08AF901
:1014F0002069402801D0206900B903E0C42139489F
:1015000005F080F96069802801D0606900B903E0C6
:10151000C521344805F076F9A06938B1A069B0F565
:10152000807F03D0A069B0F5007F00D103E0C62121
:101530002C4805F067F9E06938B1E069B0F5806FD3
:1015400003D0E069B0F5006F00D103E0C721254862
:1015500005F058F9206A202801D0206A00B903E07C
:10156000C821204805F04EF9606AB0F5405F09D007
:10157000606AB0F5005F05D0606AB0F5805F01D0A9
:10158000606A00B903E0C921164805F03BF9A06A7A
:10159000B0F5804F01D0A06A00B903E0CA2111481C
:1015A00005F030F92E6847F6F0708643216AA0688E
:1015B00008432169084361690843A1690843E16957
:1015C0000843616A0843A16A084306432E60E06845
:1015D00068602068A8606068E86070BD080002402C
:1015E00008040240406D000810B504466A48844271
:1015F0002AD069481430844226D067482830844273
:1016000022D065483C3084421ED06348503084422A
:101610001AD061486430844216D05F4878308442E2
:1016200012D05E4884420FD05C48143084420BD004
:101630005A482830844207D058483C30844203D06E
:1016400056485030844200D103E06421544805F0EC
:10165000D9F820684FF6FE71084020600020206015
:101660006060A060E0604C48844208D14A48083875
:10167000406840F00F004849083948608AE0464811
:101680001430844208D144480838406840F0F000E3
:101690004149083948607DE03F482830844208D1FC
:1016A0003D480838406840F470603B49083948605C
:1016B00070E039483C30844208D1374808384068E7
:1016C00040F4704034490839486063E03248503093
:1016D000844208D130480838406840F470202E49D0
:1016E0000839486056E02C486430844208D12A48C2
:1016F0000838406840F4700027490839486049E0DC
:1017000025487830844208D123480838406840F0A2
:1017100070602149083948603CE02048844206D185
:10172000001F006840F00F00211F086032E01B48D6
:101730001430844208D11948001F006840F0F000BE
:101740001649091F086025E014482830844208D152
:101750001248001F006840F470601049091F0860BB
:1017600018E00E483C30844208D10C48001F006845
:1017700040F470400949091F08600BE007485030E9
:10178000844207D10548001F006840F470200349D7
:10179000091F086010BD0000080002400804024054
:1017A000406D00082DE9F0472848006800F1100559
:1017B0002E8826480068077ADEB9042F19D12448FC
:1017C0000078012810D100212248006880B2801CD6
:1017D000214A126842F8101030202049088000BFCA
:1017E00000201B49087003E0072710201B490880D0
:1017F00027E0AC88A64201D8042000E0022007467A
:10180000B44200D93446A0B2A96888478046002077
:1018100001F04EFA8146A2B24946404604F0B0FEBD
:10182000A1B2002003F036FA2888001B28806888BF
:101830002044688030200949088000020849088057
:1018400000BF024909680F72BDE8F087300100202F
:101850002A010020505C0040440100204201002089
:10186000400100202DE9F0412548006800F11004F6
:101870002688A068C0B1BEB1A588B54200D935465A
:10188000A8B2A168884707462088401B208060884E
:1018900028446080002001F0F9F98046AAB2414650
:1018A000384602F019FC00BF208818B14FF44050B0
:1018B000144908802088A188884204DB032010494D
:1018C0000968087219E02088002804DD05200C4909
:1018D0000968087211E0208878B90620084909686B
:1018E000087200210848006880B2801C074A12680C
:1018F00042F81010302006490880BDE8F081000051
:101900003001002040010020505C004044010020D4
:10191000420100202DE9F84F9B48006845780027D8
:10192000BA46062D1BD198480068007800F07F0069
:10193000002813D1944909688878012803D1934974
:101940000968CF690AE0022803D1904909680F6A43
:1019500004E0032802D18D4909684F6A94E0002D04
:1019600064D189480068408800285FD186480068B3
:10197000C08802285AD1844800680079002855D1CF
:1019800081480068007800F07F0028B97E48006830
:10199000808808B97E4F77E07B480068007800F0C7
:1019A0007F00012810D1784909684879774909688A
:1019B0008A6900219047002866D173480068807AC0
:1019C000002861D0724F5FE06F480068007800F037
:1019D0007F00022858D16C480068407900F00F065B
:1019E00069480068407900F07009674800684079EC
:1019F00000F0800038B1674901EB8600D0F8000C98
:101A000000F0300806E0634901EB8600D0F8000CD6
:101A100000F4405860480078B04235D9B9F1000F61
:101A200032D1B8F1000F2FD0594F2DE0082D07D13A
:101A300055480068007800F07F0028BB574F23E02E
:101A40000A2D21D150480068007800F07F0001285D
:101A50001AD14D480068807AB0B14B480068408880
:101A600090B949480068007970B947480068C08853
:101A7000012809D1444909684879444909688A69B3
:101A80000021904700B9464F57B13F480068A0F881
:101A900012A03D48006887610020B84700240FE08D
:101AA000394A12685078394A1268116988470446E1
:101AB000032C05D10920344909680872BDE8F88F64
:101AC00031480068008A4FF6FF71884204D109202E
:101AD0002D4909680872F1E7022C03D02A480068F2
:101AE000008A20B90820284909680872E6E72648D4
:101AF0000068007800F08000E0B323480068C088E8
:101B0000009021480068008A0099884204D91E4943
:101B100000980968088223E01B480068008A1A4977
:101B20000968C98888421BDA17480068008A174983
:101B3000096891F82C10884203DA002019490870CE
:101B40000EE011480068008A1049096891F82C10CD
:101B500090FBF1F201FB120010B90120114908704D
:101B60000A48006890F82C10074800688182FFF747
:101B700019FE07E0FFE70320034909680872000324
:101B80000949088000BF99E7300100203401002096
:101B900015520008005000407C00002099510008B8
:101BA000E95100082A010020400100207047000090
:101BB00010B56FF0040003F083FC0B4890ED000AB1
:101BC000B8EE400ADFED090A80EE201A084880EDE1
:101BD000001A90ED000ADFED070A20EE200A064801
:101BE00080ED000A10BD0000040200200024F44A29
:101BF000F801002000007A44FC01002043E0B0F529
:101C0000FA7F11DD214A92ED000ADFED210A20EE74
:101C1000200ABCEEC00A10EE102A4FF0E0235A61F1
:101C2000A0F5FA7290B210E000EE100AB8EE400A89
:101C3000164AD2ED000A20EE200ABCEEC00A10EED1
:101C4000102A4FF0E0235A61002000224FF0E023D9
:101C50009A611A46126942F001021A6100BF4FF000
:101C6000E022116901F001021AB101F48032002A68
:101C7000F5D04FF0E022126922F001024FF0E0238C
:101C80001A6100229A610028B9D17047FC01002036
:101C90000000FA4300EE100AB8EE400A144AD2EDF2
:101CA000000A20EE200ABCEEC00A10EE102A4FF007
:101CB000E0235A6100229A611A46126942F0010239
:101CC0001A6100BF4FF0E022116901F001021AB160
:101CD00001F48032002AF5D04FF0E022126922F0A0
:101CE00001024FF0E0231A6100229A617047000060
:101CF000F801002070B5FEF7C7FE0546FEF7C8FEE6
:101D0000044605B970BD012000F092FF00F4804048
:101D100058B1A2B24FF40871284604F031FCA2B2C7
:101D20000221012002F040FE0AE0A2B24FF4087145
:101D3000284604F025FCA2B20221012002F06AFE2E
:101D40000221012000F088FA00BFDBE710B5022075
:101D500000F06EFF00F4804048B1022000F072FFF6
:101D600004462246A0210B4802F0B6F909E0022001
:101D700000F07AFF044622464FF4B071054802F0A5
:101D8000ABF921460348FEF71DFF0121022000F0B8
:101D900063FA10BD3A62022070B5FEF77DFE05467B
:101DA0000324032000F044FF00F4804058B1A2B2A5
:101DB0004FF43871284604F0E3FBA2B2022103205D
:101DC00002F0F2FD0AE0A2B24FF43871284604F0A6
:101DD000D7FBA2B20221032002F01CFE0221032045
:101DE00000F03AFA70BD000010B50121042002F0A5
:101DF00047FA0220144908804820C87002208870E1
:101E0000124800F0AFFA0121084602F039FA012128
:101E1000002000F04BFA02200D49086000200871F4
:101E20000820487101208871084600F093F90720C6
:101E3000084908700020487088700120C870084662
:101E400001F0B8FE10BD00000000002000080140B5
:101E5000040000200C00002010B5022000F02AF938
:101E600080B101200849087000200849087008491D
:101E70000880084908800021084601F0EDFD022095
:101E800000F006F910BD0000180000201900002025
:101E9000160000201400002010B50121042002F0DB
:101EA000EFF90420144908804820C8700220887087
:101EB000124800F057FA0121084602F0E1F9022128
:101EC000002000F0F3F904200D490860002008719B
:101ED0000820487101208871084600F03BF908206D
:101EE000084908700020487001208870C8700846B2
:101EF00001F060FE10BD000000000020000801405D
:101F0000040000200C00002010B5042000F0D2F8DE
:101F100040B10120044908700020044908800420D1
:101F200000F0B6F810BD00001900002014000020D9
:101F300010B50121042002F0A3F9082014490880FB
:101F40004820C87002208870124800F00BFA012166
:101F5000084602F095F90321002000F0A7F90820B7
:101F60000D4908600020087108204871012088711F
:101F7000084600F0EFF80920084908700020487072
:101F8000022088700020C870084601F013FE10BDC2
:101F90000000002000080140040000200C00002088
:101FA00010B5082000F086F800284FD00220FEF778
:101FB0006BFC27480078012845D126480078012885
:101FC00041D1254800682549098801EB8101244A4F
:101FD000126802EB8111234A128888540120224999
:101FE0000861800248611D49098801EB81011C4A92
:101FF000126802EB81111B4A1288885C04F074FCA1
:102000001A490860022018494861086140020861C5
:1020100014480088401C1349088008460088B0F521
:10202000A07F10DB002008800A4908700B48008858
:10203000401C0A49088008460088F02803DB00207D
:10204000088003490870082000F022F810BD000045
:10205000180000201900002008140140160000207C
:102060001000002014000020001001400C18014056
:1020700010B50920054908700020487002208870BA
:102080000120C870084601F095FD10BD0C0000202D
:1020900010B50446200D000508B904B103E0F42191
:1020A000024804F0AFFB0248046010BD846D0008D4
:1020B0001404014070B5044600250026012C31D0DF
:1020C000022C2FD0042C2DD0082C2BD0102C29D052
:1020D000202C27D0402C25D0802C23D0B4F5807F15
:1020E00020D0B4F5007F1DD0B4F5806F1AD0B4F5C0
:1020F000006F17D0B4F5805F14D0B4F5005F11D035
:10210000B4F5804F0ED0B4F5004F0BD0B4F5803F3E
:1021100008D0B4F5003F05D0B4F5802F02D0B4F557
:10212000002F00D103E0DB21084804F06BFB0848D6
:10213000006800EA0406064814300068204010B128
:102140000EB1012500E00025284670BD846D000811
:102150000004014070B504460025207910B12079B3
:10216000042800D103E05F21354804F04BFB60797F
:10217000082805D060790C2802D06079102800D199
:1021800003E060212E4804F03DFB20686FF313004C
:1021900010B9206800B103E06121294804F032FB46
:1021A000A07910B1A079012800D103E06221244870
:1021B00004F028FB234DA07990B3284600682168DD
:1021C000884329460860081D006821688843291D46
:1021D0000860207905442868216808432860194868
:1021E0000830006821688843164908310860081DD6
:1021F00000682168884313490C3108606079102811
:102200000FD1081F0068216808430E490831086093
:10221000081D0068216808430A490C3108600EE077
:1022200007E0084D60790544286821680843286064
:1022300005E020790544286821688843286070BD3E
:10224000846D0008000401400021016001710C212F
:10225000417100218171704710B5012910D1124BD5
:1022600003EB8002D2F8002C48F68F731A4048F234
:10227000C0031A430C4C04EB8003C3F8002C11E09C
:1022800002290FD1084B03EB8002D2F8002C48F64C
:102290008F731A404CF280031A43034C04EB800303
:1022A000C3F8002C10BD00000050004070B505467A
:1022B0000C4600265DB1012D09D0022D07D0032D5B
:1022C00005D0042D03D0052D01D0062D00D104E04A
:1022D00040F26A41214804F095FAECB1012C1BD080
:1022E000022C19D0032C17D0042C15D0052C13D098
:1022F000062C11D0072C0FD0082C0DD0092C0BD098
:102300000A2C09D00B2C07D00C2C05D00D2C03D097
:102310000E2C01D00F2C00D104E040F26B410F488D
:1023200004F070FAA007010F0F2000FA01F60C4824
:10233000A11050F82100B0430949A21041F8220031
:102340000846A11050F82100A107090F05FA01F174
:1023500008430349A21041F8220070BDC86D00086F
:10236000080001402DE9F05F05460C464FF00009DA
:10237000CA4600260027B046B346564885420BD0D1
:102380005548854208D05548854205D05448854275
:1023900002D05448854200D103E0AC21524804F0F9
:1023A00031FAE078A0B1E078042811D0E07828284C
:1023B0000ED0E07848280BD0E078142808D0E078D8
:1023C000102805D0E0781C2802D0E078182800D129
:1023D00003E0AD21444804F015FA002010B920882C
:1023E00000B103E0AE21404804F00CFAE07800F0C0
:1023F0000F09E07800F0100080B1A078012805D026
:10240000A078022802D0A078022800D103E0B621EB
:10241000354804F0F7F9A07840EA0909207838B384
:10242000D5F8008000261FE0012000FA06F720887A
:1024300000EA070ABA4516D1B7000F2000FA07FBD9
:1024400028EA0B0809FA07F040EA0808E07828288B
:1024500003D10120B040686105E0E078482802D14E
:102460000120B0402861761C082EDDD3C5F800801D
:102470002088FF282BDDD5F80480002623E006F114
:102480000800012101FA00F7208800EA070ABA458E
:1024900018D1B7000F2000FA07FB28EA0B0809FA49
:1024A00007F040EA0808E078282803D106F1080080
:1024B00081406961E078482804D106F108000121D3
:1024C00081402961761C082ED9D3C5F80480BDE867
:1024D000F09F000000080140000C01400010014086
:1024E0000014014000180140C86D00082DE9F041BA
:1024F00004460D46B4F1004F71D90023002124F0A9
:102500000042D30902F07F02110902F00F028F008E
:1025100002FA07F6062B15D2DFE803F00305080BD5
:102520000E11FE480FE0FD48001D0CE0FB4808308E
:1025300009E0FA480C3006E0F848103003E0F748AC
:10254000143000E000BF00BF21B9076827F00F0773
:1025500007603DE0012912D1012B0BD1042A04D9D7
:10256000076827F0C007076032E0076827F03007E8
:1025700007602DE0076827F0F007076028E00229D0
:1025800004D1076827F47067076021E0032904D1AC
:10259000076827F4704707601AE0042904D1076828
:1025A00027F47027076013E0052904D1076827F492
:1025B000700707600CE0062904D1076827F07067F0
:1025C000076005E0072903D1076827F07047076017
:1025D000012D02D1076837430760BCE2FFE7012CF9
:1025E0006AD0022C68D0042C66D0082C64D0102C41
:1025F00062D0302C60D0402C5ED0C02C5CD0B4F5C2
:10260000807F59D0B4F5007F56D0B4F5407F53D0C9
:10261000B4F5006F50D0B4F5406F4DD0B4F5805F85
:102620004AD0B4F5804F47D0B4F5C04F44D0B4F58C
:10263000004F41D0B4F5803F3ED0B4F5003F3BD0D1
:10264000B4F5802F38D0B4F5002F35D0B4F5801F05
:1026500032D0B4F1807F2FD0B4F1007F2CD0B4F110
:10266000806F29D0AE48844226D0B4F1804F23D069
:10267000B4F1005F20D0B4F1805F1DD0B4F5000F3D
:102680001AD0B4F5800F17D0B4F5001F14D0A548A8
:10269000844211D0A44884420ED0A44884420BD076
:1026A000A348844208D0A348844205D0A24884426B
:1026B00002D0A248844200D104E04FF43971A0480E
:1026C00004F0A0F80DB1012D00D104E040F2E521A5
:1026D0009B4804F097F8B4F5802F6FD037DCB4F541
:1026E000007F6CD015DC102C6AD008DC012C68D07F
:1026F000022C7BD0042C7AD0082C72D17CE0302CB8
:1027000070D0402C6FD0C02C6ED0B4F5807FF4D147
:10271000E4E0B4F5804F68D00CDCB4F5407F7CD0A9
:10272000B4F5006F7AD0B4F5406F78D0B4F5805F1F
:10273000E3D162E0B4F5C04F72D0B4F5004F57D08A
:10274000B4F5803F55D0B4F5003FD6D152E0B4F196
:10275000005F76D01DDCB4F5000F73D00CDCB4F54F
:10276000002F4BD0B4F5801F49D0B4F5001F6AD0BC
:10277000B4F5800FC1D191E1B4F1807F74D0B4F190
:10278000007F72D0B4F1806F70D0B4F1805FB4D1AB
:1027900068E16749601A8C4269D014DCB4F1804F5B
:1027A00076D0A4F180402038002872D0B0F5787F30
:1027B00070D06449084400289FD18DE11BE09DE062
:1027C00042E02EE012E0B0F5802F74D0B0F5402F3B
:1027D00072D0B0F5A01F70D0B0F5E01F8DD17DE1B3
:1027E00005E0B6E144E056E068E0D9E000BF00BF94
:1027F00000BF00BF00BF00BF00BF00BF00BF474811
:1028000020384068A043454920394860012D03D154
:1028100008464068204348609CE197E0A4E0B1E0AE
:10282000CCE03E4820384068474908403B492039C1
:102830004860012D04D10846406840F0010048601E
:1028400088E101E11CE137E134482038406820F09C
:102850003000324920394860012D04D108464068D3
:1028600040F01000486075E1B6E0C3E0D0E034E12C
:102870002A482038406820F0300028492039486034
:10288000012D04D10846406840F03000486061E105
:10289000CCE01FE11FE121482038406820F0C00053
:1028A0001E4920394860012D04D10846406840F097
:1028B000400048604EE122E12FE13CE1174820381A
:1028C000406820F0C000154920394860012D04D12E
:1028D0000846406840F0C00048603BE10F4820389F
:1028E000406820F440700D4920394860012D04D122
:1028F0000846406840F4807048602BE10748203863
:10290000406820F44070054920394860012D04D109
:102910000846406840F4007048601BE12000014018
:102920000000204020000040000400400000024061
:102930000000044000000840000010400000184063
:10294000C86D00082000FEFFFEFFFF7F834840683F
:1029500020F4407081494860012D04D10846406848
:1029600040F440704860F5E07C48406820F44060E6
:102970007A494860012D04D10846406840F400605F
:102980004860E7E07548406820F44060734948605B
:10299000012D04D10846406840F440604860D9E009
:1029A0006E48406820F4C0406C494860012D04D155
:1029B0000846406840F480404860CBE06748406883
:1029C00020F4C04065494860012D04D108464068A4
:1029D00040F4C0404860BDE06048406820F0E060DE
:1029E0005E494860012D04D10846406840F080707F
:1029F0004860AFE05948406820F0E06057494860BF
:102A0000012D04D10846406840F000704860A1E004
:102A10005248406820F0E06050494860012D04D1E0
:102A20000846406840F08060486093E04B4840684A
:102A300020F0804049494860012D04D10846406893
:102A400040F08040486085E04448406820F00050F5
:102A500042494860012D04D10846406840F00050CA
:102A6000486077E03D48406820F080503B4948602E
:102A7000012D04D10846406840F08050486069E06C
:102A80003648406820F4000034494860012D04D1E4
:102A90000846406840F4000048605BE02F4840680A
:102AA00020F480002D494860012D04D1084640687B
:102AB00040F4800048604DE02848406820F4001051
:102AC00026494860012D04D10846406840F40010B2
:102AD00048603FE000BF00BF00BF00BF1F48C069A3
:102AE000C4F3150188431D49C861012D06D108466C
:102AF000C069C4F3150108431849C8612AE01748A2
:102B0000C06920F4C0101549C861012D04D10846E0
:102B1000C06940F40020C8611CE01048C06920F47E
:102B2000C0100E49C861012D04D10846C06940F4A7
:102B30008010C8610EE00948C06920F4C010074940
:102B4000C861012D04D10846C06940F4C010C861B5
:102B500000E000BF00BFBDE8F081000000000140C0
:102B600070B504460D46104884420BD00F4884428D
:102B700008D00F48844205D00E48844202D00E4847
:102B8000844200D104E040F281110C4803F03AFE87
:102B9000002008B905B104E04FF4C171074803F003
:102BA00031FE656170BD000000080140000C01406D
:102BB000001001400014014000180140C86D0008D9
:102BC00070B504460D46104884420BD00F4884422D
:102BD00008D00F48844205D00E48844202D00E48E7
:102BE000844200D104E040F271110C4803F00AFE67
:102BF000002008B905B104E04FF4B971074803F0AB
:102C000001FE256170BD000000080140000C01407C
:102C1000001001400014014000180140C86D000878
:102C20004FF6FF710180022181700421C17070474D
:102C30000146034A02EB8100D0F8000C80B27047D5
:102C40000050004001460648006880B200EBC10019
:102C5000801C044A126832F81000C0F30900704763
:102C6000505C00404401002001460648006880B2E4
:102C700000EBC100801D044A126832F81000C0F356
:102C800009007047505C004044010020014606489E
:102C9000006880B200EBC100001D044A126832F8DF
:102CA000100080B270470000505C004044010020DA
:102CB00001460548006880B200EBC100034A126873
:102CC00032F8100080B27047505C00404401002090
:102CD000014639B908480068C088074A126810825E
:102CE0000020704705484078052802D10348801D20
:102CF000F7E702480830F4E7300100200401002023
:102D0000014639B908480068C088074A126810822D
:102D10000020704705484078052802D1034812304A
:102D2000F7E702481830F4E73001002004010020E2
:102D3000014639B908480068C088074A12681082FD
:102D40000020704705484078052802D1034810301C
:102D5000F7E702481630F4E73001002004010020B4
:102D6000014639B908480068C088074A12681082CD
:102D70000020704705484078052802D103481430E8
:102D8000F7E702481A30F4E7300100200401002080
:102D900070B50A480468001D0568001D06683444C3
:102DA00054B108220649204600F08AFC0422044956
:102DB0001031284600F084FC70BD0000E8F7FF1FCA
:102DC0002200002000BFFEE72DE9F04705460C4633
:102DD0000027B9460026B0463548854205D035481B
:102DE000854202D03448854200D104E040F2C73128
:102DF000324803F007FD324884423FD0B4F1021F4D
:102E00003CD03048844239D0B4F5020F36D0B4F506
:102E1000901F33D02C48844230D02C4884422DD08F
:102E20002B4884422AD02648801C844226D025483C
:102E3000001D844222D0274884421FD0102C1DD070
:102E4000254884421AD02548844217D0802C15D0BA
:102E50002148401C844211D01F483F3084420DD08D
:102E60001E488230844209D0001F844206D01A488E
:102E7000C01D844202D0B4F5806F00D104E04FF44D
:102E800072710E4803F0BEFCB5F814902E8B360418
:102E900049EA060020F07F4707EA0400A04202D179
:102EA0004FF0010801E04FF000084046BDE8F08710
:102EB0000054004000580040005C01400C6E0008C7
:102EC0008200060080008600400002004000820070
:102ED00040001200840016000100030002000700F9
:102EE00070B504460D461248844205D0114884420C
:102EF00002D01148844200D104E04FF4A3710F487E
:102F000003F080FC0DB1012D00D104E040F2471127
:102F10000A4803F077FC25B1208840F001002080AA
:102F200004E020884FF6FE710840208070BD00004C
:102F30000054004000580040005C01400C6E000846
:102F400010B504461348844205D01348844202D089
:102F50001248844200D103E09A21114803F052FC48
:102F60000C48844209D10121480501F05FF9002194
:102F70004FF4001001F05AF90BE00748844208D1E1
:102F80000121880501F052F900214FF4800001F081
:102F90004DF910BD0054004000580040005C014055
:102FA0000C6E0008002100E0491C8142FCD37047F0
:102FB00070B504460D461248844205D0114884423B
:102FC00002D01148844200D104E040F291110F4830
:102FD00003F018FC0DB1012D00D104E04FF4C971CC
:102FE0000A4803F00FFC25B1208840F4807020804F
:102FF00004E020884FF6FF610840208070BD00008B
:103000000054004000580040005C01400C6E000875
:1030100070B504460D461248844205D011488442DA
:1030200002D01148844200D104E04FF4D5710F481A
:1030300003F0E8FB0DB1012D00D104E040F2AB112B
:103040000A4803F0DFFB25B1208840F4007020809F
:1030500004E020884FF6FF510840208070BD00003A
:103060000054004000580040005C01400C6E000815
:103070007CB505460C46002600200190009038489B
:10308000854205D03748854202D03748854200D175
:1030900004E040F22241354803F0B4FBB4F5000FE0
:1030A0003FD0B4F5800F3CD0B4F5001F39D0B4F553
:1030B000801F36D0B4F5802F33D0B4F5003F30D028
:1030C000B4F5803F2DD02A4884422AD02948844232
:1030D00027D0B4F1102F24D02748844221D027488C
:1030E00084421ED0264884421BD02648844218D0F1
:1030F00024488038844214D02248C038844210D0FA
:103100002048F03884420CD01E48F838844208D059
:10311000001F844205D0801E844202D0401E84429B
:1031200000D104E040F22341104803F06BFB00950E
:10313000200F019024F07F44019818B100981430BA
:10314000009003E0240C009818300090009800686C
:10315000204008B1012600E0002630467CBD00007A
:103160000054004000580040005C01400C6E000814
:103170000080001000400010000800100004001043
:1031800000020010000100102DE9F04385B0054653
:103190000C460026B1460427DFF874815D4885425D
:1031A00005D05D48854202D05C48854200D103E0ED
:1031B000C4215B4803F026FB206820B159492068F0
:1031C000884200D803E0C521554803F01BFBA088C6
:1031D00028B1A088022802D0A0880A2800D103E0E4
:1031E000C6214F4803F00EFBE088B0F5804F04D0B5
:1031F000E0884BF6FF71884200D103E0C7214848C0
:1032000003F000FB2089B0F5806F00DA03E0C821ED
:10321000434803F0F7FA6089B0F5806F01D0608908
:1032200000B903E0C9213E4803F0ECFAA089B0F5EB
:10323000804F03D0A089B0F5404F00D103E0CA21F0
:10324000374803F0DFFAAE8806F47F46684601F09F
:103250006BF8DDF808803448B8FBF0F01FFA80F90D
:1032600046EA0906AE8028884FF6FE71084028809D
:1032700000262E49206888420CD820684000B8FB00
:10328000F0F087B2042F00DA04273E4309F1010071
:10329000288427E0E0884BF6FF71884206D1206839
:1032A00000EB4000B8FBF0F087B209E0206800EBCB
:1032B000C00101EB0010B8FBF0F087B247F4804783
:1032C000C7F30B0008B947F0010747F40040064375
:1032D0004FF4967009FB00F04FF47A7190FBF1F017
:1032E000401C2884AE83288840F0010028802E8866
:1032F0004FF6F5300640A0886189084306432E80CA
:10330000A08921890843288105B0BDE8F083000029
:1033100000127A000054004000580040005C014058
:103320000C6E0008801A060040420F00A0860100C3
:1033300070B504460E4615461048844205D0104824
:10334000844202D00F48844200D104E040F265215B
:103350000D4803F057FA0DB1012D00D104E040F201
:103360006621094803F04EFA15B146F0010602E065
:103370004FF6FE700640268270BD000000540040EB
:1033800000580040005C01400C6E000870B5044617
:103390000D460848844205D00748844202D00748B9
:1033A000844200D104E040F24621054803F02AFAA5
:1033B000258270BD0054004000580040005C014070
:1033C0000C6E00080021018041808180C1800221B3
:1033D000816000218181704770B504460D46164812
:1033E00084420ED0154884420BD01548844208D040
:1033F000B4F1402F05D01348844202D012488442D1
:1034000000D104E04FF4D871104803F0FBF90DB17E
:10341000012D00D104E040F2B1110C4803F0F2F9A3
:1034200025B1A08B40F48060A08304E0A08B4FF610
:10343000FF310840A08370BD0030014000380040DB
:10344000003C0040006C014000700140946E000898
:103450002DE9F04F85B005460C464FF000090226D5
:103460004FF000084FF0010B00274FF0000A7148A1
:1034700085420ED0704885420BD07048854208D0F6
:10348000B5F1402F05D06E48854202D06D48854287
:1034900000D103E0EB216C4803F0B4F9208858B167
:1034A0002088B0F5807F07D02088B0F5007F03D05A
:1034B0002088B0F5407F00D103E0EC21624803F0A2
:1034C000A1F9608858B16088102808D06088202849
:1034D00005D06088302802D06088B02800D103E091
:1034E000ED21594803F08EF9A08840B1A088012849
:1034F00005D0A088032802D0A088052800D103E0C9
:10350000EE21514803F07EF9E088B0F5007F01D04C
:10351000E08800B903E0EF214B4803F073F9A0689D
:10352000B0F5FA5F03D34949A068884202D9A06880
:10353000022800D103E0F021434803F063F9A08999
:1035400010B1A089082800D103E0F1213E4803F022
:1035500059F9A88B4FF240010840A8830220288423
:10356000B5F81C90A068022803D14FF0000802268D
:1035700038E0A08810B94FF0010B01E04FF0020BCA
:103580002D48854200D100E000BF684600F0CCFE27
:10359000DDF800A0E088B0F5007F0AD14FEA1A20DC
:1035A00000EB80004000A168B0FBF1F0401D87B245
:1035B0000BE04FEA4B10BAFBF0F000EB800040004C
:1035C000A168B0FBF1F0401D87B20A20B7FBF0F70D
:1035D00007F00108A7EB0800C0F34F064FF6FF7095
:1035E00000EA0828022E02DBB6F5806F03DB022614
:1035F0004FF0000808E006F4407028B106F440706F
:1036000046EA800626F44076E08840EA0800304327
:103610002884A088A1890843618808432188084339
:1036200040F4006040EA0909A5F81C9005B0BDE827
:10363000F08F00000030014000380040003C0040A6
:10364000006C014000700140946E000800EE020022
:1036500010B518480068047A022C01D0042C05D15A
:10366000FEF7A0F813480068047A1CE0062C19D174
:1036700010480068407805280ED10E480068007890
:1036800000F07F0040B90B490968C87801F064F97F
:1036900009490968086A80470849096888688047B5
:1036A000082400E00824034909680C7200F02AFD90
:1036B00010BD0000300100203C010020340100203A
:1036C00030B50B46002100BF16E00A24B4EB107F92
:1036D00005D9302404EB107403F8114005E04124AF
:1036E00004EB10740A3C03F81140000100254C0063
:1036F000641C1D554C1CE1B29142E6DB30BD00005C
:1037000008B50121512000F0BBFD01214806FEF75C
:10371000EDFE40F22F40ADF8000010208DF80300C0
:1037200001208DF8020069460A48FEF71BFE40F2B0
:103730002F410848FFF744FA4FF6FF70ADF800003C
:1037400069460548FEF70EFE4FF6FF710248FFF787
:1037500037FA08BD001001400018014010B5FFF70E
:10376000CFFF00F069F9D32000F0E4F900F034F95C
:1037700000F032F900F030F99549888008468088D9
:103780004FF6FF7101EA00209149888000F024F98A
:103790008F49898808438E498880CF2000F0CAF974
:1037A000002000F0B5F9C12000F0B2F9302000F09F
:1037B000AFF9ED2000F0BEF9642000F0A9F9032074
:1037C00000F0A6F9122000F0A3F9812000F0A0F982
:1037D000E82000F0AFF9852000F09AF9102000F001
:1037E00097F97A2000F094F9CB2000F0A3F9392062
:1037F00000F08EF92C2000F08BF9002000F088F901
:10380000342000F085F9022000F082F9F72000F062
:1038100091F9202000F07CF9EA2000F08BF90020DB
:1038200000F076F9002000F073F9C02000F082F972
:103830001B2000F06DF9C12000F07CF9012000F0A0
:1038400067F9C52000F076F9302000F061F93020EA
:1038500000F05EF9C72000F06DF9B72000F058F9CC
:10386000362000F067F9482000F052F93A2000F0C5
:1038700061F9552000F04CF9B12000F05BF900200F
:1038800000F046F91A2000F043F9B62000F052F992
:103890000A2000F03DF9A22000F03AF9F22000F0F1
:1038A00049F9002000F034F9262000F043F9012006
:1038B00000F02EF9E02000F03DF90F2000F028F98B
:1038C0002A2000F025F9282000F022F9082000F035
:1038D0001FF90E2000F01CF9082000F019F95420FF
:1038E00000F016F9A92000F013F9432000F010F9B8
:1038F0000A2000F00DF90F2000F00AF9002000F076
:1039000007F9002000F004F9002000F001F9002080
:1039100000F0FEF8E12000F00DF9002000F0F8F8CA
:10392000152000F0F5F8172000F0F2F8072000F05D
:10393000EFF8112000F0ECF8062000F0E9F82B2059
:1039400000F0E6F8562000F0E3F83C2000F0E0F844
:10395000052000F0DDF8102000F0DAF80F2000F06C
:10396000D7F83F2000F0D4F83F2000F0D1F80F2026
:1039700000F0CEF82B2000F0DDF8002000F0C8F8B1
:10398000002000F0C5F8012000F0C2F83F2000F050
:10399000BFF82A2000F0CEF8002000F0B9F800208F
:1039A00000F0B6F8002000F0B3F8EF2000F0B0F817
:1039B000112000F0BFF87820FEF720F9292000F050
:1039C000B9F800F065F801200249086010BD000058
:1039D0002C0200209401224210B54FF08830144987
:1039E0000860091D0860002011490C3108600120A1
:1039F0001049086180024861042048610220FEF7F6
:103A000049F90B480830006884B20420094908616C
:103A1000000208614FF0333005490860091D086055
:103A20004FF6FF7002490C310860204610BD0000BF
:103A3000001801400010014010B5082005494861F8
:103A40006420FEF7DBF80820024908613220FEF707
:103A5000D5F810BD0010014010B503460C460B49C7
:103A6000887A00F067F8181200F052F8D8B200F027
:103A70004FF80649087B00F05DF8201200F048F886
:103A8000E0B200F045F800F067F810BD2C0200200D
:103A900000B52C2008490881012088714FF4A070DE
:103AA0000880F02048802A2048812B2088816C21C2
:103AB000362000F059F800BD2C02002070B50446F5
:103AC0000D4616461149887A00F034F8201200F0AD
:103AD0001FF8E0B200F01CF8301200F019F8F0B254
:103AE00000F016F80949087B00F024F8281200F0CD
:103AF0000FF8E8B200F00CF8181200F009F8D8B28C
:103B000000F006F800F028F870BD00002C0200203C
:103B10000121064A116189025161054908600221AB
:103B200051611161490211617047000000100140AC
:103B30000C1801400121064A516189025161054971
:103B40000860022151611161490211617047000052
:103B5000001001400C18014000B50249087AFFF737
:103B6000E9FF00BD2C02002010B504460B4620469C
:103B7000FFF7E0FF1846FFF7CBFF10BD00BFFEE7E1
:103B8000014639B908480068C088074A126810829F
:103B90000020704705484078052802D10348C01C22
:103BA000F7E70248001DF4E730010020040100207F
:103BB000704770472DE9F0410446002500270F2685
:103BC000E07810B1E078012800D103E0692121A05C
:103BD00002F018FE6078102800DA03E06A211DA0C8
:103BE00002F010FEA078102800DA03E06B2119A083
:103BF00002F008FEE07800B32548006800F4E060B9
:103C0000C0F5E060050AC5F10407EE40607800FAEF
:103C100007F5A078304005432D011E4822788554D1
:103C2000207800F01F010120884021784911890087
:103C300001F1E021C1F8000109E0207800F01F0146
:103C40000120884014492278521141F82200BDE831
:103C5000F08100002E2E5C2E2E5C2E2E5C2E2E5C13
:103C60004C69627261726965735C415433324634E7
:103C700078785F5374645065726970685F447269E4
:103C80007665725C7372635C6D6973632E630000AA
:103C90000CED00E000E400E080E100E010B5044637
:103CA000B4F5E06F0BD0B4F5C06F08D0B4F5A06FD9
:103CB00005D0B4F5806F02D0B4F5407F00D103E0A9
:103CC000572104A002F09EFD1148204311490860CD
:103CD00010BD00002E2E5C2E2E5C2E2E5C2E2E5C37
:103CE0004C69627261726965735C41543332463467
:103CF00078785F5374645065726970685F44726964
:103D00007665725C7372635C6D6973632E63000029
:103D10000000FA050CED00E070B502264748006887
:103D2000447846480068007800F07F00002844D1BD
:103D3000092C03D101F0EEFA06465FE0052C14D100
:103D40003E480068C0787F280BDC3C4800688078DB
:103D500038B93A480068808818B938480068807ACD
:103D600008B1082566E0002648E0032C0ED1334850
:103D70000068C078012807D130480068808818B9E9
:103D800001F0ECFA064639E0022637E0012C35D185
:103D90002A480068C07801280DD12848006880882A
:103DA00048B926480068407A00F0200018B101F0B8
:103DB0003DF9064622E0022620E02048006800780F
:103DC00000F07F00012805D10B2C17D101F042FB38
:103DD000064613E019480068007800F07F000228CA
:103DE0000BD1012C03D101F021F9064606E0032C8A
:103DF00004D101F0C7FA064600E002264EB1E0B257
:103E00000F4A1268516988470646032E01D10925D9
:103E100010E00EB108250DE00625002109480068D4
:103E200080B2801C084A126842F8101030200749FE
:103E3000088000BF014909680D7270BD3001002083
:103E400034010020505C0040440100204201002069
:103E500038B500250121392000F012FA0220ADF812
:103E6000000048208DF8030069465648FEF77AFAAC
:103E700002215448FEF7A4FE0420ADF800004820BB
:103E80008DF8030069464F48FEF76CFA04214D484F
:103E9000FEF796FE0820ADF8000048208DF80300DC
:103EA00002208DF8020069464648FEF75BFA0821B9
:103EB0004448FEF785FE8020ADF8000010208DF804
:103EC000030069464048FEF74DFA80213E48FEF760
:103ED00077FEFF20ADF8000048208DF80300022097
:103EE0008DF8020069463948FEF73CFA4FF400406D
:103EF000ADF8000010208DF8030069463448FEF745
:103F000031FA4FF400413248FEF75AFE00203149A1
:103F100008603149C1F8BC011420FDF76FFE012093
:103F20002E49086000F016FB0121FF2000F056FC2E
:103F30008021122000F052FC6420FDF75FFE1C205F
:103F400000F09AFB04464FF6FF7000EA04241D209F
:103F500000F092FB044347F6A270844201D0012096
:103F600038BD0A2000F088FB04464FF6FF7000EAD7
:103F700004240B2000F080FB044342F242608442A0
:103F800001D00220ECE700250AE0154A02EB4502C9
:103F90005178134A12F8150000F020FC681C85B215
:103FA000B22DF2D34FF4FA70FDF728FE00F062F85C
:103FB000F0214FF4A07000F015F802F083FC00200F
:103FC000CEE700000008014000100140001401404D
:103FD000000C01409C01224200802142BC81214210
:103FE000FC6800082DE9F04104460D46E11704EB9A
:103FF00091718910A4EB810111B10120BDE8F0811C
:10400000E91705EB91718910A5EB810109B1022037
:10401000F4E72046E11704EB9171C1F38F072846BE
:10402000E91705EB9171C1F38F060021FF2000F025
:10403000D5FB0421E02000F0D1FB8921502000F0C5
:10404000CDFBF9B25A2000F0C9FBF1B25B2000F0C1
:10405000C5FBC7F30128042000EAA61040EA0808BF
:1040600041465C2000F0BAFB0021E02000F0B6FBE6
:104070000020C3E710B50021FF2000F0AFFB0121B5
:10408000DA2000F0ABFB10BD10B511480068047ACF
:10409000022C01D0042C01D1082412E0032C01D001
:1040A000052C05D1FDF7DEFB09480068047A08E01D
:1040B000072C05D107490968C8688047082400E033
:1040C0000824034909680C7200F01CF810BD0000B8
:1040D0003001002034010020F0B5561C7510074E49
:1040E000366806EB41042B4605E034F8047B20F8E3
:1040F000017B401C5B1E002BF7D1F0BD440100206A
:104100007047000010B50D4890F82C10002000F00A
:104110004DFD0B480068007A082805D14002094986
:10412000088010200849088005480068007A09289E
:1041300001D1012010BD0020FCE70000800000201C
:1041400030010020400100204201002001210B48E5
:10415000016000200A4A108010460088074A10605B
:104160000020121D10604FF4E050054A10801046E8
:104170000088024A1060002070470000405C004048
:104180003A01002070B504460D461048204008B999
:1041900004B104E040F23E310D4802F033FB0DB1B2
:1041A000012D00D104E040F23F31094802F02AFB22
:1041B0002DB10848406920430649486104E005489C
:1041C0004069A0430349486170BD0000A832FEEF7A
:1041D000506E00080010024070B504460D461048AD
:1041E000204008B904B104E040F27E310D4802F0ED
:1041F00009FB0DB1012D00D104E040F27F310948E7
:1042000002F000FB2DB10848C06920430649C8618F
:1042100004E00548C069A0430349C86170BD0000BF
:10422000003600C1506E00080010024070B5044610
:104230000D461048204008B904B104E040F2D931DD
:104240000D4802F0DFFA0DB1012D00D104E040F27B
:10425000DA31094802F0D6FA2DB108480069204346
:104260000649086104E005480069A0430349086164
:1042700070BD0000003600C1506E00080010024002
:1042800070B504460D461048204008B904B104E05A
:1042900040F25D310D4802F0B5FA0DB1012D00D1AB
:1042A00004E040F25E31094802F0ACFA2DB1084852
:1042B000806920430649886104E005488069A0437D
:1042C0000349886170BD0000820107F8506E000844
:1042D0000010024070B504460D461048204008B951
:1042E00004B104E04FF46E710D4802F08BFA0DB189
:1042F000012D00D104E040F2B931094802F082FA00
:104300002DB10848C06820430649C86004E005484C
:10431000C068A0430349C86070BD0000820107F86F
:10432000506E000800100240F0B500220021002469
:104330000023484D6D6805F00C0222B1042A05D017
:10434000082A3ED105E0444D05603DE0424D056040
:104350003AE0404D6D68414E05EA06013D4D6D68FD
:1043600005F4803401F0C04535B901F47015B5F598
:10437000701F01D0022500E0012501F0C046C1F305
:10438000834747EA5666A9191CB9354D4D43056068
:104390000BE0304D6D6805F400351DB1304D4D43D7
:1043A000056002E02C4D4D4305602A4D6D6805F017
:1043B00000452DB92B4E0568B54201D9354605603B
:1043C00002E0254D056000BF00BF224D6D68C5F3BA
:1043D0000212204D6D6805F0800515B1224DAD5CCF
:1043E00000E000252B460568DD404560194D6D68ED
:1043F000C5F30122174D6D6805F4806515B11A4D9E
:10440000AD5C00E000252B464568DD408560114D20
:104410006D68C5F3C1220F4D6D6805F4005515B1E7
:10442000114DAD5C00E000252B464568DD40C560C0
:10443000084D6D68C5F38132064D6D6805F08055F5
:104440000DB142F00402094DAB5CC568B5FBF3F554
:104450000561F0BD0010024000127A0000003C60CF
:1044600000093D0000A24A0418020020200200209A
:1044700010B504460CB1012C00D104E040F22451E7
:104480000E4802F0BFF9012C0BD10D48006B40F033
:1044900000700B4908630846406D40F48070486521
:1044A0000AE00748006B20F00070054908630846E1
:1044B000406D20F48070486510BD0000506E00080B
:1044C0000010024010B504460CB1012C00D104E0EC
:1044D0004FF4A261094802F095F9012C06D1084871
:1044E000406D40F030000649486505E00448406DE5
:1044F00020F030000249486510BD0000506E0008F1
:104500000010024070B5044600258CB1B4F5800F50
:104510000ED0B4F5000F0BD0B4F5400F08D0B4F1B5
:10452000006F05D0B4F1046F02D0B4F1086F00D170
:1045300004E040F21921054802F064F90448456896
:1045400025F00C652543456070BD0000506E0008E5
:104550000010024008B501210820FFF791FE4FF43A
:104560008050ADF8000048208DF8030002208DF83F
:10457000020069461248FDF7F5FE4FF480511048DD
:10458000FEF71EFB4FF40070ADF8000010208DF810
:10459000030069460A48FDF7E5FE4FF4007108483C
:1045A000FEF70EFB0648001D006820F47020044949
:1045B000091D08600846006840F44030086008BDE6
:1045C000000C014010B53220FDF764FB01200B49BF
:1045D00008600B49C1F8A4013220FDF75BFB002005
:1045E00006490C3908603220FDF754FB00200449CD
:1045F000C1F8B0013220FDF74DFB10BDB081214262
:104600000080214270B500241848006820F4702012
:10461000164908600846006840F400200860082534
:1046200015E03220FDF736FB0120114908606006D5
:10463000040E1048D0F8300108B1601CC4B232201A
:10464000FDF728FB00200A490860681EC5B2002D4E
:10465000E7DC0648006820F470200449086008463A
:10466000006840F440300860204670BD040C0140F2
:10467000A48121420080214270B50446002500F04B
:1046800023F8602000F054F86420FDF703FB204677
:1046900000F04EF86420FDF7FDFA00F02FF86420DA
:1046A000FDF7F8FA00F010F8612000F041F86420FE
:1046B000FDF7F0FAFFF7A6FF0546FFF783FF00F0CE
:1046C0001DF8284670BD000010B50120094908609A
:1046D0000949C1F8A4013220FDF7DCFA00200549A0
:1046E00008603220FDF7D6FA00200349C1F8A40182
:1046F00010BD0000B08121420080214210B5002091
:10470000094908603220FDF7C5FA01200749C1F8C0
:10471000A4013220FDF7BEFA0120034908603220CF
:10472000FDF7B8FA10BD0000B0812142008021429F
:1047300070B5044600261BE004F0800018B101208B
:104740002349086002E00020214908606006040E49
:104750003220FDF79FFA01201D490C3908603220F4
:10476000FDF798FA00201B49C1F8A401701CC6B2DD
:10477000082EE1DB1848006820F470201649086014
:104780000846006840F4002008603220FDF782FAF5
:1047900001200F490C3908603220FDF77BFA0D48E3
:1047A000D0F8300108B1012500E0002500200849BB
:1047B0000C3908600848006820F470200649086039
:1047C0000846006840F440300860284670BD00008C
:1047D000B081214200802142040C014070B50546A1
:1047E0000C460026FFF770FF6020FFF7A1FF00B125
:1047F00001266420FDF74EFA2846FFF799FF00B125
:1048000001266420FDF746FA2046FFF791FF00B12C
:104810000126FFF773FF304670BD000070B50446F7
:104820000D4616461A4884420ED01A4884420BD0D0
:104830001948844208D0B4F1402F05D0174884426B
:1048400002D01748844200D104E040F2F711154825
:1048500001F0D8FF0EB1012E00D104E04FF4FC713D
:10486000104801F0CFFF4FF6FC70284008B905B1A1
:1048700004E040F2F9110B4801F0C4FF1EB1A0881A
:104880002843A08002E0A088A843A08070BD00005B
:104890000030014000380040003C0040006C014006
:1048A00000700140946E000810B50446234884420D
:1048B0000ED0234884420BD02248844208D0B4F161
:1048C000402F05D02048844202D02048844200D1A5
:1048D00003E06F211E4801F095FF1848844208D17B
:1048E00001218014FFF7F6FC0021A014FFF7F2FC71
:1048F00023E01348844208D101210014FFF796FCFD
:1049000000212014FFF792FC17E00E48844208D1E2
:104910000121C013FFF78AFC0021E013FFF786FC9A
:104920000BE0B4F1402F08D101210804FFF77EFC11
:1049300000214FF48030FFF779FC10BD00300140BA
:1049400000380040003C0040006C01400070014015
:10495000946E00087047000030B501460F4B1A787E
:10496000002014E003060E4C04EB9353D3F8003CF4
:1049700048F68F74234048F280042343C4B2234393
:104980000406074D05EB9454C4F8003C401C9042CB
:10499000E8D341F08003034C236030BD7C0000204D
:1049A000005000404C5C004030B50346012920D146
:1049B0001648006880B200EBC300801C144D2D68BF
:1049C00005EB40043E2A0BDD501102F01F050DB926
:1049D000451EA8B24FF4004545EA8025256007E052
:1049E000501002F001050DB1451CA8B285022560EA
:1049F0000BE0022909D10548006880B200EBC30032
:104A0000801C034C246844F8102030BD505C0040EA
:104A10004401002030B50346012920D11648006822
:104A200080B200EBC300801D144D2D6805EB4004DF
:104A30003E2A0BDD501102F01F050DB9451EA8B22C
:104A40004FF4004545EA8025256007E0501002F04C
:104A500001050DB1451CA8B2850225600BE00229B5
:104A600009D10548006880B200EBC300801D034CEB
:104A7000246844F8102030BD505C00404401002000
:104A800030B54B105C000B4B1B689BB203EBC003B3
:104A9000094D2D6845F8134053105C00054B1B6809
:104AA0009BB203EBC0031B1D034D2D6845F813405B
:104AB00030BD0000505C00404401002030B50B4682
:104AC000012B20D12E49096889B201EBC001891C54
:104AD0002C4D2D6805EB41043E2A0BDD511102F0EF
:104AE0001F050DB94D1EA9B24FF4004545EA8125B9
:104AF000256007E0511002F001050DB14D1CA9B26F
:104B00008D0225600BE0022B09D11D49096889B28D
:104B100001EBC001891C1B4C246844F81120012BB7
:104B200020D11749096889B201EBC001891D154DD3
:104B30002D6805EB41043E2A0BDD511102F01F05E3
:104B40000DB94D1EA9B24FF4004545EA81252560F7
:104B500007E0511002F001050DB14D1CA9B28D0204
:104B600025600BE0022B09D10549096889B201EBE8
:104B7000C001891D034C246844F8112030BD000099
:104B8000505C00404401002010B54A105300054A13
:104B9000126892B202EBC002121D034C246844F862
:104BA000123010BD505C00404401002010B5024698
:104BB0001048006880B200EBC200801D0E4C2468D3
:104BC00004EB40033E290BDD481101F01F040CB932
:104BD000441EA0B24FF4004444EA80241C6007E065
:104BE000481001F001040CB1441CA0B284021C6006
:104BF00010BD0000505C00404401002030B50E4C58
:104C000004EB8003D3F8003C4BF68F7403EA0402F4
:104C100001F480530BB182F4805201F400530BB1C4
:104C200082F4005242F4004343F08003024D05EB4E
:104C30008004C4F8003C30BD0050004010B50B4B60
:104C400003EB8002D2F8002C4BF68F7302EA0301CB
:104C500081F4805181F4005141F4004242F080021D
:104C6000024C04EB8003C3F8002C10BD0050004040
:104C700010B54A105300054A126892B202EBC00206
:104C8000034C246844F8123010BD0000505C004012
:104C900044010020054A126892B202EBC002921C45
:104CA000034B1B6843F8121070470000505C004033
:104CB0004401002030B50E4C04EB8003D3F8003CD7
:104CC00048F6BF7403EA040201F010030BB182F04E
:104CD000100201F020030BB182F0200242F40043E5
:104CE00043F08003024D05EB8004C4F8003C30BD66
:104CF0000050004010B5074B03EB8002D2F8002CA7
:104D000048F68F131A400A43024C04EB8003C3F8A1
:104D1000002C10BD0050004010B500F001F810BD8F
:104D20001CB50020019000903548006840F48030A8
:104D30003349086000BF3248006800F4003000903A
:104D40000198401C0190009818B90198B0F5405F97
:104D5000F1D12B48006800F4003010B10120009020
:104D600001E0002000900098012847D124484068C5
:104D7000234948600846406820F46050486008466F
:104D8000406840F4005048600846406820F4E06005
:104D900048600846406840F48060486008464068C3
:104DA00018490840164948600846406816490843B3
:104DB000134948600846006840F08070086000BFF2
:104DC0000F48006800F000700028F9D00120FFF7BC
:104DD00079FB0B48406820F0030009494860084609
:104DE000406840F00200486000BF0548406800F09D
:104DF0000C000828F9D10020FFF764FB1CBD00005F
:104E000000100240FFFFC01F00001DA0014639B97D
:104E100004480068C088034A126810820020704766
:104E20000148FCE730010020100100200448006B1D
:104E300040F08070024908630248034908607047E7
:104E400000100240007800404401002010B50446E4
:104E5000012C3DD135480068354A811A904221D055
:104E600009DC3449084478B14FEA6101084480B153
:104E7000084458BB11E030480844C0B12E490844EA
:104E8000D0B1084410BB1CE04FF48000FFF73AFBA0
:104E90001DE00020FFF736FB19E04FF44000FFF75C
:104EA00031FB14E04FF40000FFF72CFB0FE04FF054
:104EB0000460FFF727FB0AE04FF00060FFF722FBDA
:104EC00005E04FF00860FFF71DFB00E000BF28E0A1
:104ED000022C26D101218805FFF7D2F901212020DB
:104EE000FBF7E0F901211020FBF7DCF94FF4FA5051
:104EF0001249086009880A3988B2FBF7E5F90F49B9
:104F0000098888B2FBF7E6F90C4909880A3188B2AA
:104F1000FBF7E6F901210320FBF79EF90120FFF7DB
:104F2000A7FA0121C805FFF757F910BD04020020B8
:104F3000000E2707009423FD00CA91FE1C000020EC
:104F4000014639B908480068C088074A12681082CB
:104F50000020704705484078052802D10348801D8D
:104F6000F7E702480830F4E7300100200401002090
:104F700038B501242A48006880B2001D2949096813
:104F800031F8100080B22749096801EB4000009019
:104F900025480068007A092832D000980078224914
:104FA000096808700098401C0090009800781E491D
:104FB000096848700098401C0090009800EB44007D
:104FC0000090009931F8020B0091FBF705FE16499D
:104FD00009684880009800EB44000090009931F87F
:104FE000020B0091FBF7F8FD0F49096888800098D3
:104FF00000EB44000090009800880B490968C880C5
:10500000012009490968087207480068C08810B97A
:10501000FEF782FE01E0FCF77DFCFFF773F838BD78
:10502000505C004044010020300100202DE9F04791
:1050300054480068007800F07F08B8F1000F0AD1EA
:1050400050480068407A00F0DF004E490968487215
:105050000020BDE8F087B8F1020F7CD14948006814
:10506000408818B947480068007908B10220F0E785
:10507000DFF8149143480068477927F080052C46F3
:1050800040480068407900F0800038B13F4901EBAA
:105090008400D0F8000C00F0300606E03B4901EB3C
:1050A0008400D0F8000C00F4405699F80000A842A3
:1050B00004D91EB133480068807A08B90220C8E7D5
:1050C00007F0800080B1314901EB8400D0F8000C7A
:1050D00000F0300010284BD1E0B2FBF749FFE0B2FE
:1050E0003021FFF7E7FD43E0284901EB8400D0F8C9
:1050F000000C00F44050B0F5805F39D1E4B9244A87
:1051000092F82C10E0B2FFF751FD204A02EB840127
:10511000D1F8001C4BF68F7201EA020080F4805037
:1051200080F4005040F4004141F08001174B03EB44
:105130008402C2F8001C1BE0E0B2FBF7FFFE134A3A
:1051400002EB8401D1F8001C4BF68F7201EA0200D9
:1051500080F4805000E011E080F4005040F4004101
:1051600041F08001094B03EB8402C2F8001C00BF30
:10517000084909684869804700206AE700BF0220A3
:1051800067E70000300100207C0000200050004054
:10519000800000203C01002010B504462CB90120FD
:1051A000064909680882002010BD05490968086899
:1051B0008047024800680A30F6E70000300100200E
:1051C0003C01002010B5024606480068438A32B907
:1051D0008888C01A034C24682082002010BD08680B
:1051E0001844FBE73001002010B504462CB901201B
:1051F000064909680882002010BD054909688868C9
:105200008047024800680C30F6E7000030010020BB
:105210003C01002010B504462CB902203949096828
:105220000882002010BD00203749088035480068FA
:10523000007800F07F0018BB32490968487A00F016
:10524000200131B13049097841F002012E4A117034
:1052500005E02D49097801F0FD012B4A117000F09D
:10526000400131B12849097841F00101264A117005
:1052700005E02549097801F0FE01234A11703AE062
:1052800020480068007800F07F00012801D11E4806
:10529000C8E71C480068007800F07F00022828D189
:1052A000184A1268517901F00F0001F080027AB1BA
:1052B000164B03EB8002D2F8002C02F03002102AC9
:1052C00016D1114A127842F001020F4B1A700FE00A
:1052D0000E4B03EB8002D2F8002C02F44052B2F5E0
:1052E000805F05D1084A127842F00102064B1A701D
:1052F00001E0002096E706490968086980470248EE
:1053000090E70000300100202801002000500040FC
:105310003C01002010B50E480068C0780D4949785E
:10532000884213DC0A480068807878B90848006829
:10533000808858B906480068C078054909688872AD
:105340000549096848688047002010BD0220FCE735
:10535000300100207C0000203C01002010B50748EF
:105360000068407A40F02000044909684872044906
:105370000968C8698047002010BD00003001002086
:105380003C0100202DE9F0412E480068467926F0C6
:1053900080073C462B480068407900F0800038B117
:1053A000294901EB8400D0F8000C00F0300506E03C
:1053B000254901EB8400D0F8000C00F44055234847
:1053C0000078A04208D91F480068408820B91DB164
:1053D0001C480068807A10B90220BDE8F08106F010
:1053E0008000A0B1184A02EB8401D1F8001C48F6F5
:1053F000BF7201EA020080F0100040F4004141F069
:105400008001114B03EB8402C2F8001C14E00E4A29
:1054100002EB8401D1F8001C4BF68F7201EA020006
:1054200080F4805040F4004141F08001064B03EBD2
:105430008402C2F8001C00BF0549096888698047DA
:105440000020CAE730010020005000407C0000200E
:105450003C01002010B5174B1B68D978154B1B6811
:105460005879154B1B689A699047044611480068A3
:10547000807AE8B13CB90F480068007918B90D4846
:105480000068807808B1022010BD8CB90B4909680A
:10549000C868804707480068407906490968C872AB
:1054A00004480068C0780349096808730020EBE7E6
:1054B0000220E9E730010020340100203C010020F7
:1054C00010B50446042C01D0601D00B903E0BE21D4
:1054D0000BA001F097F9042C08D14FF0E0200069EF
:1054E00040F004004FF0E021086107E04FF0E020B9
:1054F000006920F004004FF0E021086110BD0000B9
:105500002E2E5C2E2E5C2E2E5C2E2E5C4C69627232
:1055100061726965735C41543332463478785F5305
:1055200074645065726970685F4472697665725C14
:105530007372635C6D6973632E63000070470000D3
:1055400010B51A48006840F47000184908601848FF
:10555000006840F001001649086008464068154997
:10556000084013494860084600681349084010493C
:1055700008600846006820F48020086008464068FB
:105580000E4908400A4948600846006B0C4908402B
:10559000074908634FF41F008860FFF7BDFB4FF019
:1055A000006002498039086010BD000088ED00E00D
:1055B000001002400C00FFE8FFFFF6FEFFFF00179F
:1055C00000FFFEFE70B504460D462248844226D0F8
:1055D000B4F1804F23D02048844220D01F48844219
:1055E0001DD01F4884421AD01E48844217D01E483E
:1055F000844214D01D48844211D01D4884420ED0EC
:105600001C4884420BD01C48844208D01B4884426A
:1056100005D01B48844202D01A48844200D104E0DD
:1056200040F26D31184801F0EDF80DB1012D00D1B7
:1056300004E040F26E31144801F0E4F825B120880E
:1056400040F00100208004E020884FF6FE71084001
:10565000208070BD002C0140000400400008004084
:10566000000C0040001000400014004000340140D5
:10567000004C01400050014000540140001800401F
:10568000001C004000200040D86E000870B50446A1
:105690000D461248844202D01148844200D104E0F1
:1056A00040F286310F4801F0ADF80DB1012D00D167
:1056B00004E040F287310B4801F0A4F835B1B4F8AA
:1056C000440040F40040A4F8440005E0B4F844006D
:1056D000C0F30E00A4F8440070BD0000002C01408F
:1056E00000340140D86E00082DE9F04105460C4613
:1056F0004FF00008002600275C48854220D0B5F115
:10570000804F1DD05A4885421AD05A48854217D03A
:105710005948854214D05948854211D0584885428D
:105720000ED0584885420BD05748854208D057487C
:10573000854205D05648854202D05648854200D160
:1057400004E04FF49D71544801F05CF8208870B17A
:10575000208810280BD02088202808D020883028C6
:1057600005D02088602802D02088702800D104E06D
:1057700040F23B11484801F045F8608810B160885C
:10578000012800D104E04FF49E71434801F03AF83B
:10579000A08910B1A089022800D104E040F23D1197
:1057A0003D4801F02FF8288C4FF6FE710840288400
:1057B0002E8CAF88B5F818804FF68F7008EA000875
:1057C000881E08EA0008208840EA0808481E0640AB
:1057D000A089064360880643A08810B1A0880428E9
:1057E00000D104E040F25F112B4801F00BF8E08992
:1057F00010B1E089082800D104E04FF4B0712648C8
:1058000001F000F8608AB0F5007F01D0608A00B92D
:1058100004E040F26111204800F0F4FF208AB0F566
:10582000807F01D0208A00B904E04FF4B1711A489A
:1058300000F0E8FF4FF6F7700640E08906434FF6A8
:10584000FB700640A08806434FF6FF6007404FF606
:10585000FF500740208A0743608A0743AF80A5F8BE
:105860001880A06868632E84BDE8F081002C014098
:105870000004004000080040000C004000340140DB
:10588000004C01400050014000540140001800400D
:10589000001C004000200040D86E000870B504468F
:1058A0000D4600261C48844220D0B4F1804F1DD004
:1058B0001A4884421AD01A48844217D019488442A0
:1058C00014D01948844211D0184884420ED0184888
:1058D00084420BD01748844208D01748844205D030
:1058E0001648844202D01648844200D104E040F2B7
:1058F0003461144800F086FF082D00D005B904E09B
:1059000040F235610F4800F07DFF268B4FF6F770AF
:1059100006402E43268370BD002C01400004004049
:1059200000080040000C004000340140004C0140E1
:10593000005001400054014000180040001C00408D
:1059400000200040D86E0008002101804180818045
:1059500081608181C18101824182704770B50446B6
:105960000D4600263948844226D0B4F1804F23D01A
:105970003748844220D0374884421DD0364884427C
:105980001AD03648844217D03548844214D035485E
:10599000844211D0344884420ED0344884420BD023
:1059A0003348844208D03348844205D03248844288
:1059B00002D03248844200D103E0D521304800F0C3
:1059C00021FF686858B16868102808D068682028E6
:1059D00005D06868402802D06868602800D103E0DC
:1059E000D621274800F00EFFA88938B1A889B0F564
:1059F000807F03D0A889B0F5007F00D103E0D721D4
:105A00001F4800F0FFFE2688104884420ED0B4F1F3
:105A1000804F0BD01348844208D00D48844205D0F3
:105A20000C48844202D00C48844205D14FF68F7056
:105A30000640A888304386B22680A868E06228889D
:105A40002085A87B20860120A08270BD002C01400B
:105A50000004004000080040000C0040001000401E
:105A60000014004000340140004C0140005001404F
:105A70000054014000180040001C0040002000407D
:105A8000D86E00084FF6FF7181600021018081818E
:105A90004160817370470000084A02EB8001D1F831
:105AA000001C48F68F7211404CF280021143034BE8
:105AB00003EB8002C2F8001C704700000050004059
:105AC000084A02EB8001D1F8001C48F68F721140A1
:105AD00048F2C0021143034B03EB8002C2F8001CE2
