:020000040800F2
:10000000501F0020ED46000805460008074600087E
:10001000094600080B4600080D46000800000000D5
:100020000000000000000000000000000F46000873
:10003000114600080000000013460008154600089D
:10004000094700080D470008114700081547000838
:1000500017460008194700081D47000821470008F7
:1000600025470008294700082D47000831470008A8
:1000700035470008394700083D4700084147000858
:1000800045470008494700084D4700085147000808
:1000900055470008594700085D47000861470008B8
:1000A00065470008694700086D4700087147000868
:1000B00075470008794700087D4700088147000818
:1000C00085470008894700088D47000891470008C8
:1000D00095470008994700089D470008A147000878
:1000E000A5470008A9470008AD470008B147000828
:1000F000B5470008B9470008BD470008C1470008D8
:10010000C5470008C9470008CD470008D147000887
:10011000D5470008D9470008DD470008E147000837
:10012000E5470008E9470008ED470008F1470008E7
:10013000F5470008F9470008FD4700080148000896
:1001400000000000000000000000000000000000AF
:1001500005480008094800080D4800081148000833
:1001600015480008194800081D48000821480008E3
:1001700025480008294800082D48000812000110F1
:100180002AD9AB173F1504C2BD15EF433E000080CE
:100190003F09B8D53EF304B53E72ADA03FD7B35D7D
:1001A0003F5E83EC3EB2E4A83F8D65973F2F310858
:1001B00021102118212021282130213821402148D7
:1001C00021502158113012800812BF10123D181210
:1001D000BE0F12BF2812BE3012BE3812BF4012BF6F
:1001E0004812BE5012BF5812BF30310821102118DA
:1001F0002120212821302138214021482150215817
:10020000F152C0F2FF00C0D1C0FAFF8040F5BE80BD
:10021000F1CCC02120109180878DBAE95C49BAEDFC
:10022000EC4FB94A1F8738A9AB083B4AC6713BB6A9
:10023000D3CF3AE03B2CBBF5BBF8BB059C43BC5786
:10024000FE0DBC6CC9113C5159303D3A92C73DB0CE
:1002500037323EDD49893E1EE2BF3E478AFA3EE61E
:10026000371A3F2AB4343F5FFD4B3F89205F3F86FA
:10027000836D3F27DD773FE2537E3F7E27803F1D22
:100280001A7E3FEED8773FDAFA6C3FC32E5E3F7599
:10029000954B3F6660353F5E291C3F9453003F11EC
:1002A00052C43E92BB843E5C2106C81300800812F3
:1002B000BE1012BE1812BE2012BF2812BF3012BFCD
:1002C0003812BF4012BF4812BF503006BFE0607EF8
:1002D000BFAA408008211021182120212821302187
:1002E00038214021482150215821F82168217021CE
:1002F00078218021882190219821A021A821B01166
:1003000058123F603108F1FFC0F18AC0F2FF00C00F
:10031000D1C0F6F38080214870020014014004111E
:10032000019220043107100340008000081C1002D5
:10033000100140041112100422011820011C4E0E5D
:01034000219B
:101000002DE9F84F2DED0C8B81B043688468009476
:101010000788D0F8049019EB8709B9F104094C4608
:10102000DDF834905FEAD909C846B8F1000F00F046
:10103000D282D1F80090C4F80090091D241DD1F887
:101040000090C4F80090091D241DD1F80090C4F848
:101050000090091D241DD1F80090C4F80090091DCE
:10106000241D5FF000090CEE909AB0EE6C0A5FF060
:1010700000090CEE909AF0EE6C0A5FF000090CEE9D
:10108000909AB0EE6C1A5FF000090CEE909AF0EEB8
:101090006C1A5FF000090CEE909AB0EE6C2A5FF0CB
:1010A00000090CEE909AF0EE6C2A5FF000090CEE4D
:1010B000909AB0EE6C3A5FF000090CEE909AF0EE68
:1010C0006C3A1D00DDF800904E46D1F80090C4F84F
:1010D0000090091D241DD1F80090C4F80090091D4E
:1010E000241DD1F80090C4F80090091D241DD1F8EA
:1010F0000090C4F80090091D241DD5ED00CAB0EE83
:101100006C4A2D1DD5ED00CAF0EE6C4A2D1DD5EDB3
:1011100000CAB0EE6C5A2D1DD5ED00CAF0EE6C5A27
:101120002D1DD5ED00CAB0EE6C6A2D1DD5ED00CA9F
:10113000F0EE6C6A2D1DD5ED00CAB0EE6C7A2D1D57
:101140005FEAD709CE46BEF1000F00F0D381D6ED9D
:1011500000CAB0EE6C8A361DD5ED00CAF0EE6C7A8E
:101160002D1D64EE08CAF0EE6C8A64EE88CAB0EEFB
:101170006C9A65EE08CAF0EE6C9A65EE88CAB0EE1D
:101180006CAA66EE08CAF0EE6CAA66EE88CAB0EEEB
:101190006CBA67EE08CAF0EE6CBA67EE88CAB0EEB9
:1011A0006CCAD6ED00CAB0EE6C8A361DD5ED00CA09
:1011B000B0EE6C4A2D1D30EE280A70EE890A31EE31
:1011C000291A71EE8A1A32EE2A2A72EE8B2A33EE2F
:1011D0002B3A73EE8C3A64EE88CAF0EE6C8A65EEB8
:1011E00008CAB0EE6C9A65EE88CAF0EE6C9A66EEAC
:1011F00008CAB0EE6CAA66EE88CAF0EE6CAA67EE7A
:1012000008CAB0EE6CBA67EE88CAF0EE6CBA64EE4B
:1012100008CAB0EE6CCAD6ED00CAB0EE6C8A361DB4
:10122000D5ED00CAF0EE6C4A2D1D30EE280A70EEA6
:10123000890A31EE291A71EE8A1A32EE2A2A72EEE2
:101240008B2A33EE2B3A73EE8C3A65EE08CAF0EE39
:101250006C8A65EE88CAB0EE6C9A66EE08CAF0EE4B
:101260006C9A66EE88CAB0EE6CAA67EE08CAF0EE19
:101270006CAA67EE88CAB0EE6CBA64EE08CAF0EEEB
:101280006CBA64EE88CAB0EE6CCAD6ED00CAB0EE95
:101290006C8A361DD5ED00CAB0EE6C5A2D1D30EEAD
:1012A000280A70EE890A31EE291A71EE8A1A32EE96
:1012B0002A2A72EE8B2A33EE2B3A73EE8C3A65EEC5
:1012C00088CAF0EE6C8A66EE08CAB0EE6C9A66EEDA
:1012D00088CAF0EE6C9A67EE08CAB0EE6CAA67EEA8
:1012E00088CAF0EE6CAA64EE08CAB0EE6CBA64EE7E
:1012F00088CAF0EE6CBA65EE08CAB0EE6CCAD6EDDC
:1013000000CAB0EE6C8A361DD5ED00CAF0EE6C5AFC
:101310002D1D30EE280A70EE890A31EE291A71EE81
:101320008A1A32EE2A2A72EE8B2A33EE2B3A73EEA9
:101330008C3A66EE08CAF0EE6C8A66EE88CAB0EEA9
:101340006C9A67EE08CAF0EE6C9A67EE88CAB0EE47
:101350006CAA64EE08CAF0EE6CAA64EE88CAB0EE1D
:101360006CBA65EE08CAF0EE6CBA65EE88CAB0EEEB
:101370006CCAD6ED00CAB0EE6C8A361DD5ED00CA37
:10138000B0EE6C6A2D1D30EE280A70EE890A31EE3F
:10139000291A71EE8A1A32EE2A2A72EE8B2A33EE5D
:1013A0002B3A73EE8C3A66EE88CAF0EE6C8A67EEE2
:1013B00008CAB0EE6C9A67EE88CAF0EE6C9A64EEDA
:1013C00008CAB0EE6CAA64EE88CAF0EE6CAA65EEAC
:1013D00008CAB0EE6CBA65EE88CAF0EE6CBA66EE7A
:1013E00008CAB0EE6CCAD6ED00CAB0EE6C8A361DE3
:1013F000D5ED00CAF0EE6C6A2D1D30EE280A70EEB5
:10140000890A31EE291A71EE8A1A32EE2A2A72EE10
:101410008B2A33EE2B3A73EE8C3A67EE08CAF0EE65
:101420006C8A67EE88CAB0EE6C9A64EE08CAF0EE79
:101430006C9A64EE88CAB0EE6CAA65EE08CAF0EE4B
:101440006CAA65EE88CAB0EE6CBA66EE08CAF0EE19
:101450006CBA66EE88CAB0EE6CCAD6ED00CAB0EEC1
:101460006C8A361DD5ED00CAB0EE6C7A2D1D30EEBB
:10147000280A70EE890A31EE291A71EE8A1A32EEC4
:101480002A2A72EE8B2A33EE2B3A73EE8C3A67EEF1
:1014900088CAF0EE6C8A64EE08CAB0EE6C9A64EE0C
:1014A00088CAF0EE6C9A65EE08CAB0EE6CAA65EEDA
:1014B00088CAF0EE6CAA66EE08CAB0EE6CBA66EEA8
:1014C00088CAF0EE6CBA67EE08CAB0EE6CCABEF11C
:1014D000010E30EE280A70EE890A31EE291A71EEFB
:1014E0008A1A32EE2A2A72EE8B2A33EE2B3A73EEE8
:1014F0008C3A28E65FF00809B7FBF9FA0AFB197A7B
:10150000D646BEF1000F4AD0D6ED00CAB0EE6C8AC6
:10151000361DD5ED00CAF0EE6C7A2D1D64EE08CABA
:10152000F0EE6C8A64EE88CAB0EE6C9A65EE08CA7A
:10153000F0EE6C9A65EE88CAB0EE6CAA66EE08CA48
:10154000F0EE6CAA66EE88CAB0EE6CBA67EE08CA16
:10155000F0EE6CBA67EE88CAB0EE6CCAB0EE644AC0
:10156000F0EE454AB0EE655AF0EE465AB0EE666AC5
:10157000F0EE476AB0EE677A30EE280A70EE890A1C
:1015800031EE291A71EE8A1A32EE2A2A72EE8B2A6D
:1015900033EE2B3A73EE8C3ABEF1010EB1E72033F5
:1015A00082ED000A121DC2ED000A121D82ED001A22
:1015B000121DC2ED001A121D82ED002A121DC2ED8D
:1015C000002A121D82ED003A121DC2ED003A121DD2
:1015D000B8F1010829E5DDF834905FF0080AB9FB9D
:1015E000FAFB0BFB1A9BD846B8F1000F24D0D1F8B8
:1015F0000090C4F80090091D241D5FF000090CEE56
:10160000909AB0EE6C0A1D00DDF800904E46BC4684
:10161000D5ED00CA96ED00DA0CEE8D0A361D2D1DB3
:10162000BCF1010CBCF1000FF2D182ED000A121DD9
:101630001B1DB8F10108D7E7D0F804904C46B7F16C
:1016400001095FEA9909CE46BEF1000F1AD0D3F81E
:101650000090C4F800901B1D241DD3F80090C4F81E
:1016600000901B1D241DD3F80090C4F800901B1D92
:10167000241DD3F80090C4F800901B1D241DBEF15A
:10168000010EE1E7B7F101095FF0040AB9FBFAFBCB
:101690000BFB1A9BDE46BEF1000F08D0D3F800907A
:1016A000C4F800901B1D241DBEF1010EF3E701B02C
:1016B000BDEC0C8BBDE8F18F2DE9F04385B0040043
:1016C0000D0016005FF020085FEA5619CDF8008083
:1016D00047F20003C2F2010342F20002C0F6000228
:1016E0001D2101A800F015F8002007004F450DD27C
:1016F000434608FB07F015EB800208FB07F014EBEC
:10170000800101A8FFF77CFC7F1CEFE705B0BDE876
:10171000F0832DE9F04104000D0016001F00DDF8F4
:1017200018802580A66018FA85F0401E82000021EE
:10173000380000F003F86760BDE8F081002A04D0AB
:0C174000131803F8011C521EF8E7704754
:10200000B9E1EEBA1222D0BA00000000F755723BD7
:10201000CF4E043C58C20B3C000000809E858EBC15
:1020200088DC0BBD9CA308BD000000000A828A3D2D
:10203000F0DB1B3E5F46643E0641803E5F46643EE9
:10204000F0DB1B3E0A828A3D000000009CA308BD15
:1020500088DC0BBD9E858EBC0000008058C20B3C06
:10206000CF4E043CF755723B000000001222D0BA5C
:04207000B9E1EEBA2A
:103000002DE9F84C2DED068B154603B4C1F30A509B
:1030100040F2FF7188420CD101980024000304BFE4
:103020000098002802D1019800281DD4DDE9000194
:1030300079E1012811DA00A800F07AF901280CDB07
:1030400000F097F92221016002B00021BDEC068B4F
:103050000020CFF6F071BDE8F48C019A40F2FE3109
:1030600061F31E520192441A019800280CD500F019
:1030700080F92121016002B04FF0FF30BDEC068BDA
:103080006FF00041BDE8F48CDDE9000143F6CD327C
:103090004AF29E03C6F27F62C3F6E67300F070F94F
:1030A00009D2DDE9002300204FF0804100F080F9D3
:1030B000CDE90001641EDDE9002300210020CBF6EC
:1030C000F07100F047FADDE9002341EC180B002114
:1030D0000020C3F6F07100F03DFA02460B4651ECB9
:1030E000180B00F0ABFA41EC190B53EC192B00F064
:1030F0005FF941EC1A0B4DF6F7604FF6D80153EC2F
:103100001A2BCBF62970C3F6C27100F051F94BF2BD
:10311000F43249F61A13CCF6FE42C3F6C37300F03C
:1031200019FA53EC1A2B00F043F94CF6623244F2D0
:103130006F63CDF66812C3F6C77300F00BFA53EC59
:103140001A2B00F035F94CF6C61247F2C413CDF62F
:103150001222C3F6CC7300F0FDF953EC1A2B00F0E9
:1031600027F94EF64A1244F62413C9F28A42C3F6EE
:10317000D27300F0EFF953EC1A2B00F019F945F671
:10318000F77249F69913C9F69712C3F6D97300F08E
:10319000E1F953EC1A2B00F00BF945F2BC5245F261
:1031A0005553C5F25552C3F6E57300F0D3F953EC0D
:1031B0001A2B00F0FDF802460B4651EC180B00F0FC
:1031C00069FB53EC192B00F0F3F841EC190B20B21A
:1031D00000F020FC41EC1A0B15BB4BF69E4047F665
:1031E0001C5153EC1A2BCFF29A70C3F67F6100F09A
:1031F000DFF853EC192B00F04DFB53EC182B00F0CB
:10320000A9F90D46044642F6426153EC1A2B4FF0E1
:103210004040C3F6E67100F0CBF822462B4680E032
:10322000012D53EC182B4CDB4CF67B310020C3F600
:10323000DB7100F0BDF882468B464AF2AB6042F289
:10324000E56153EC182BC0F63260C3F6556100F00F
:10325000AFF806460F464CF27C4042F2DE7153EC6A
:103260001A2BC7F6BC70C3F6746100F0A1F80446CF
:103270000D464EF20E504CF67B3153EC192BC1F239
:103280002650C3F6DB7100F093F802460B46204649
:10329000294600F0FFFA32463B4600F05BF9524601
:1032A0005B4600F057F90D46044644F2134153ECD7
:1032B0001A2B0020C3F6D37100F07AF822462B4671
:1032C0002FE041F247514FF0C040C3F6F77100F0D4
:1032D0006FF804460D464DF644704AF60B6153EC08
:1032E000182BCFF65D00C3F6546100F061F8064676
:1032F0000F4648F2FE2041F2475153EC192BC6F21B
:103300002B50C3F6F77100F053F802460B463046D7
:10331000394600F0BFFA22462B4600F01BF953EC69
:103320001A2B00F017F902B0BDEC068BBDE8F48C47
:1033300030B4436803F0004201211B031B0B4360C0
:1033400004BF0368002B08D10DE00368DD0F45EAD8
:10335000440444605B000360491E4468E302F4D502
:1033600023031B0B436043681A434260084630BC8A
:10337000704740F64020C2F2000000F061BB000040
:103380004FF4001C1CEB410F94BF1CEB430F09E0F2
:1033900041EA030C50EA4C0C52EA0C0C03D299425D
:1033A00008BF9042704714BF8B42824270470000B2
:1033B000B0B581EA030C0CF0004C40F2FF7515EA41
:1033C00011541DBF15EA1357AC42AF4239E0E4195E
:1033D00023EA455343F48013C90241F0004141EA16
:1033E000505EC7021100A7FB020200284FF0000048
:1033F000EEFB01204FF00001E3FB072118BF42F074
:103400000102401800214941E3FB0E01A4F580644C
:103410000F0302D252004041494154F101046CDDD6
:10342000470872F1004250F1000051EB0451A1F540
:1034300080115CBF41EA0C01B0BD4CEA055100208F
:10344000B0BD05EA1357AC4214BFAF4241E050EAA9
:10345000410E1CBF52EA430E02E061460020B0BD9F
:1034600024423C441BD15FEA070EF6D0090302BF99
:1034700001460020AEF1140EB1FA81F7AEEB07045D
:1034800001FA07FE0C37C7F1200100FA07F7C84020
:103490004EEA000E23EA455343F48013A2E733F0CB
:1034A0000043B3FA83F704BFB2FA82FE77440B3FBE
:1034B000E41BB7F1200E2FBF02FA0EF3BB40C7F199
:1034C000200E22FA0EFE38BF43EA0E03BA40641CF7
:1034D00082E750EA410E14BF52EA430E6FF000013A
:1034E0004FF4001717EB430F8ABF194617EB410F34
:1034F000B5E74CEA05510020B0BDD4F10104B4F1A8
:1035000020070FDAC4F12007520828BF42F0010259
:1035100010FA07F501FA07F7E1BF2A43E040384304
:10352000E1400FE0352C98DCC7F1200452EA40025C
:1035300020FA07F218BF42F0010231FA07F0A14069
:103540000A43002172F1004250F1000051EB0C01DE
:10355000B0BD0000F0B44FF0004591EA030C44BF49
:103560006B4000F0A1B900BF841A71EB030603D2CF
:10357000001BB141121973414FF4001C1CEB410FA9
:1035800034BF7CEB430443E00C0DA4EB1356352E03
:1035900050DC45EAC323DB0A45EAC121C912B6F172
:1035A00020050DDD63FA05F6EB4086EA03051242BD
:1035B00018BF45F00105C01851F100010CD213E00D
:1035C00062FA06F5F2405540F3415A40B340F340E9
:1035D0005A408018594107D349085FEA30005FEA32
:1035E000350528BF45F0010501F58011420875F148
:1035F000004250F1000041EB0451F0BC4FF4001CBC
:103600001CEB410F38BF70470020090D09057047BA
:103610001CEB410F10D252EA43060BD0BCEB410F1A
:1036200005D80C0DAB43661E342EB5DD02E0AB436E
:1036300080185941F0BC7047F0BC70472DE9F0414B
:1036400040F2FF7581EA030C0CF0004C15EA1154AE
:103650001DBF15EA1357AC42AF42E9E0BC41C1F3CC
:103660001301C3F31303801A994143F4801304D266
:10367000641E4000494180185941C90241EA505135
:10368000B1FBF3F603FB1611A2FB0675D7EBC020C6
:10369000A94102D2761E80185941C90241EA50510F
:1036A000B1FBF3FE03FB1E11A2FB0E75D7EBC0208E
:1036B000A94103D2AEF1010E80185941890241EAB5
:1036C0009051760546EA8E2EB1FBF3F603FB1611F8
:1036D000A2FB0675D7EB8020A94102D2761E801886
:1036E0005941C90241EA50514EEA060EB1FBF3F6C8
:1036F00003FB1611A2FB0675D7EBC020A94102D22D
:10370000761E80185941C90241EA5051B1FBF3F7C6
:1037100003FB1711A2FB0735D3EBC020A94167F1CA
:1037200000070CBF004247F0010766F3D5274FEAB8
:103730001E31B80814F5806414DDBD0775F1004230
:1037400050EB0E5051EB045111F5801F5CBF41EA64
:103750000C01BDE8F0814CF07F6141F0E0410020B8
:10376000BDE8F081BD076D0840EA0E5041F48011BC
:10377000D4F10104B4F120060ADAC4F120060200F3
:10378000E04001FA06F3E1401843B24015430EE071
:10379000342C14DCC6F1200445EA40056D0820FAFB
:1037A00006F2154321FA06F0A1400D43002175F100
:1037B000004250F1000051EB0C01BDE8F081002007
:1037C0005FEA0C01BDE8F081CFB992185B41B3FA12
:1037D00083F704BFB2FA82F6BF190B3FB7F1200698
:1037E0002FBF02FA06F3BB40C7F1200622FA06F605
:1037F00038BF3343BA401CB1E419641E2FE77F423F
:1038000031F00041B1FA81F404BFB0FA80F6A41996
:103810000B3CB4F120062FBF00FA06F1A140C4F121
:10382000200620FA06F638BF3143A0403C1B16E7BD
:10383000AC421ABF05EA1357AF4214E050EA410602
:103840001CBF52EA4306BFE750EA410730466146D3
:103850001CBF41EA0551BDE8F08152EA430C08BFA4
:10386000C143BDE8F08100204FF4001616EB410F74
:1038700098BF16EB430F08BF16EB410F24BFC1439F
:1038800005E016EB430F0CBF61464CEA0551BDE85D
:10389000F0810000F0B44FF0004591EA030F44BFFF
:1038A0006B40FFF761BE00BF841A71EB030604D2C0
:1038B0006E40001BB141121973414FF4001C1CEB08
:1038C000410F34BF7CEB430684E00C0DA4EB135690
:1038D000362E7DDC012E43DC45EAC32343EA5253F6
:1038E00012BFD20292025B08240545EAC12141EAD7
:1038F0005051D2EBC020994125D407D1B0FA80F6BF
:1039000010FA06F164D00020203608E0B1FA81F602
:10391000B140C6F1200220FA02F21143B0404FEA52
:10392000F474B4EB465434F001064FEA74040AD838
:10393000D6F50016760D04F00044F04061FA06F268
:103940005040F1404840C00A40EA415021F0004157
:1039500028BF5FEA500550F1000044EBD12137E069
:1039600045EAC323DB0A45EAC121C90AB6F12005AD
:103970000EDD42EA0242120CC5F1200603FA06F6F9
:10398000EB4042EA06056D42984161F100010DE00D
:1039900062FA06F5F240554063FA06FC82EA0C0230
:1039A000F3405A406D42904161EB030111F4801FD6
:1039B00005D1641E620502D06D004041494121F4E9
:1039C0008011430875F1004350F1000041EB0451B0
:1039D000F0BC70471CEB410F15D223F0004352EAB4
:1039E00043060BD04FEA4C0CBCEB410F04D80C0D36
:1039F000661E342EB7DDEBE7801A994150EA410686
:103A000008BF0021E4E708BF1CEB430F28BF6FF09D
:103A10000001DDE7010040F10780F446404200F07C
:103A200003F851F00041604709D0B0FA80F18840B6
:103A3000C91CC1F58461090501EBD021400570471F
:103A40007047000080B500F091F8012000F041F8C7
:103A5000022000F03EF8032000F03BF8012000F0C7
:103A600059F8022000F056F8032000F053F8002027
:103A700000F004F8012000F001F801BD10B582B09B
:103A8000040001216B48E4B250F8240000F0EAF889
:103A900000A800F0A6F96848E4B230F81400ADF8C8
:103AA000000028208DF8030000A96448E4B250F813
:103AB000240000F0FBF813BD10B504005E48E4B22A
:103AC00030F814105D48E4B250F8240000F091F989
:103AD00010BD10B582B0040001215948E4B250F87D
:103AE000240000F0BFF800A800F07BF95548E4B2CC
:103AF00030F81400ADF8000010208DF8030002200B
:103B00008DF8020000A95048E4B250F8240000F0FB
:103B1000CDF813BDC0B204280EDA4A49C0B231F85C
:103B20001010002908D04749C0B231F81010464A99
:103B3000C0B252F8202011617047C0B2042814DAD4
:103B40004049C0B231F8101000290ED03E49C0B231
:103B500051F82010C9683B4AC0B232F810205140D9
:103B6000394AC0B252F82020D160704780B57FF04A
:103B7000040000F081F9354890ED000AB8EE400AE3
:103B8000DFED290A80EE200A314880ED000A304836
:103B900090ED000ADFED250A20EE200A2D4880ED89
:103BA000000A01BD80B200283DD080B2B0F5FA7F96
:103BB0000EDD284A92ED000ADFED1D0A20EE200AF4
:103BC000BCEEC00A244A82ED000AB0F5FA7010E09B
:103BD00080B200EE100AB8EE400A1E4AD2ED000A8A
:103BE00020EE200ABCEEC00A1B4A82ED000A002229
:103BF00010000022194B1A60194A126852F0010293
:103C0000174B1A60164A1268110011F00112012AAE
:103C1000F8D0134A126852085200114B1A60002261
:103C20000E4B1A60BEE770470024F44A00007A4445
:103C30000000FA43300A0020380A0020280A002039
:103C4000100A0020200A0020000A00203C0A002060
:103C5000440F0020480F002014E000E018E000E0CE
:103C600010E000E0C9B2002905D00E4A12680243F4
:103C70000C4B1A6004E00B4A12688243094B1A602D
:103C80007047C0B2012806D10749096851F03001D8
:103C9000054A116005E00449096831F03001024A23
:103CA000116070471810024054100240F0B5002710
:103CB0000022002300240025002691F803C01CF0F8
:103CC0000F0C674691F803C05FEACC6C03D591F8FE
:103CD00002C05CEA070791F800C05FEA0C6C3AD0BA
:103CE000D0F800C065465FF0000C6346082B31D267
:103CF0005FF0010C1CFA03FC6446B1F800C014EA42
:103D00000C0C6246A24223D15FEA830C64465FF04A
:103D10000F0C1CFA04FC6646B54317FA04FC5CEA77
:103D2000050591F803C0BCF1280F06D15FF0010C26
:103D30001CFA03FCC0F814C00AE091F803C0BCF1FF
:103D4000480F05D15FF0010C1CFA03FCC0F810C04D
:103D50005B1CCBE70560B1F800C0BCF1FF0F3FDD95
:103D6000D0F804C065465FF0000C6346082B36D2DD
:103D70005FF0010C13F1080E1CFA0EFC6446B1F85A
:103D800000C014EA0C0C6246A24226D15FEA830C02
:103D900064465FF00F0C1CFA04FC6646B54317FA44
:103DA00004FC5CEA050591F803C0BCF1280F07D1BB
:103DB0005FF0010C13F1080E1CFA0EFCC0F814C0E1
:103DC00091F803C0BCF1480F07D15FF0010C13F16B
:103DD000080E1CFA0EFCC0F810C05B1CC6E745605C
:103DE000F0BD4FF6FF710180022181700421C17086
:103DF000704702000020936889B20B4202D0012371
:103E0000180001E000231800C0B2704770B400240D
:103E100000220F23C178002922D01F49096811F41C
:103E2000E061D1F5E061090A0C00D4F104010A0057
:103E300019000B00E340417891400C008178194053
:103E40000C432401154905786C540121057815F0BF
:103E50001F05A940124D0678761145F8261009E095
:103E60000121057815F01F05A9400E4D0678761141
:103E700045F8261070BC7047042806D10A49096825
:103E800051F00401084A116005E00749096831F062
:103E90000401054A116070470CED00E000E400E009
:103EA00000E100E080E100E010E000E0816807E070
:103EB00002681168536889185B18C3600832026091
:103EC000C2689142F4D04A1C82600878704738B5C5
:103ED00004460D46A068E168884212D120686168F6
:103EE000884208BF00F0C3F82068227C016802B154
:103EF0004944A16042685218E26008309142206053
:103F0000ECD0A068401CA06000F8015D31BD2DE937
:103F1000F0418AB000F1080105910268520801EBF6
:103F2000C20106910021079108910168490800EB40
:103F3000C10108310091017901F001018DF81010E3
:103F400040680099400801EBC000019000200290F9
:103F5000039084E005A8FFF7A9FF044614F00306C8
:103F600003D105A8FFF7A2FFC61C25090F2D1BD101
:103F700005A8FFF79BFF00F10F0515E00598016804
:103F8000081805990790496808180890059808309E
:103F90000590079808998842F0D0401C079010F8C7
:103FA000011D00A8FFF793FF761EF2D1002D51D01E
:103FB00005A8FFF77BFF0646A00800F003000328D2
:103FC00004BF05A8FFF772FFDDF800800299039F88
:103FD00006EB002008E0A8F10808A8F10801801A03
:103FE0000A6849688F18394658F8082C8A1A82429C
:103FF000F1D30C1AAE1C2DD0BC4206D158F8044B9C
:1040000058F8040B0719BC42F8D00298039914F829
:10401000015B884217D100980199884208BF00F0DF
:1040200026F8009800689DF81010029009B14844E5
:104030000290009902984968009A0918083288424B
:1040400003910092E7D00298401C0290761E00F87F
:10405000015DD1D10298039988427FF47BAF01982A
:10406000009981427FF476AF0AB0BDE8F08101206B
:1040700000F000B880B5C046C0462623C0F2020357
:1040800019461820ABBEFBE780B55548006850F4D0
:104090007000534908605348006850F001005149CE
:1040A000086051480068514908404F4908604D4830
:1040B00000684F4908404B4908604A48006830F49E
:1040C000802048490860484800684A4908404649F5
:1040D00008604948006849490840474908605FF45A
:1040E0001F004749086000F005F85FF0006045498F
:1040F000086001BD80B500F001F801BD00B583B0D6
:1041000000200190002000903648006850F4803074
:10411000344908603348006810F40030009001987A
:10412000401C01900098002803D10198B0F5405F31
:10413000F0D12C480068800302D50120009001E0F6
:10414000002000900098012849D12748006826499E
:1041500008602548006830F4605023490860224810
:10416000006850F40050204908601F48006830F48F
:10417000E0601D4908601C48006850F480601A49DE
:104180000860194800682049084017490860164827
:1041900000681E490843144908601248006850F03E
:1041A0008070104908600F4800688001FBD501202D
:1041B000FFF767FD0C480068800880000A49086026
:1041C0000948006850F00200074908600648006886
:1041D00010F00C000828F9D10020FFF752FD07BDB0
:1041E00088ED00E000100240041002400C00FFE8DF
:1041F000FFFFF6FEFFFF00173010024000FFFEFE3B
:104200000810024008ED00E0FFFFC01F000035A0CD
:104210002DE9F8432DED028B82B004000D0091468C
:10422000DFED378A00200090002007004F453DD287
:1042300014EB8700060030688046DFF8C800804530
:1042400002D19FED2F0A55E015EB8700060030687C
:104250008046DFF8B000804502D19FED290A49E091
:1042600014EB870090ED000A14EB8700D0ED000AF4
:1042700040EE208A14EB870090ED000A15EB8700D2
:10428000D0ED000A30EE600A14EB8700D0ED000A92
:1042900015EB870090ED001A70EEC10A9DED001A33
:1042A00000EE201A8DED001A7F1CBFE700A8060063
:1042B00030688046DFF84C00804502D19FED100A3F
:1042C00018E09DED000A88EE800A10EE100A00F05A
:1042D0001DF841EC100B00F040F853EC102B0020BF
:1042E000DFF82410FFF764F800F040F808EE100A39
:1042F000B0EE480A02B0BDEC028BBDE8F1830000CD
:10430000000000000000C07F000024405FF0FF0CB0
:104310001CEAD05114BF614506E0C110400721F0EE
:10432000E04101F16051704779B900F000410002AD
:104330000AD0B0FA80FC00FA0CF001F16051A1EB58
:104340000C5101EBD0214005704741020CBF40F4F5
:10435000E0016FF000010020704780B5012251ECB0
:10436000100BFEF74DFE41EC100B01BD4FEAF17C46
:10437000BCF1E04C2CBFBCF5001F11E05FEA4C0C17
:1043800034BFBCF17F5F2EE05FEA9C0C4FEA0C1C4F
:104390004FEA3C0CC10071F100414CEB507070478A
:1043A000C90241EA5051C00218BF41F0010141F079
:1043B00000414FEA6C50C0F10900212810D240EAB8
:1043C000CC7CCCF1200C11FA0CF070F10040CCF157
:1043D000200C21FA0CF00CF0004C40EB0C00704764
:1043E0004FEACC707047490011F5001F04D84FEA1E
:1043F000CC10FF30C0057047C8177047DFF8C40005
:10440000DFF8C4100860DFF8C400DFF8BC100860F3
:10441000DFF8B000DFF8B8100860DFF8B000DFF8B0
:10442000B01008607047DFF8AC00006850F0800002
:10443000DFF8A0100860DFF8A400006850F08000EA
:10444000DFF8981008607047002816D5C9B2002917
:1044500009D0DFF88820126843005B081A43DFF8B0
:104460007C301A602CE0DFF87420126843005B088F
:104470009A43DFF868301A6022E0420012D5C9B2D0
:10448000002907D0144A126830F080431A43124BB7
:104490001A6015E0104A126830F080439A430E4BC0
:1044A0001A600DE0C9B2002905D00A4A1268024319
:1044B000084B1A6004E0074A12688243054B1A60F1
:1044C000704700002301674504200240AB89EFCD0F
:1044D0004420024010200240902002405020024020
:1044E00070B52DED028B2748050027480600FFF721
:1044F000A9FA00F04DF80020FFF7DEFA002807D1F6
:104500000220FFF71AFB4FF49670FFF74BFBF2E720
:104510000220FFF7FFFA0020FFF7CEFA0028FAD0BA
:104520004FF4A07231002800FDF7C6F84FF4A072D6
:1045300015491648FFF76CFEB0EE408A9FED100A51
:10454000B4EE408AF1EE10FA03D57FF005000400C6
:1045500001E00020040064B214F1060F07D101202D
:10456000FFF7EBFA4FF4FA70FFF71CFBF3E70320B9
:10457000FFF7E3FA4FF4FA70FFF714FBEBE70000E4
:1045800000000C4300000020440A00200005002029
:1045900080B5FFF733FF01214FF48060FFF754FF30
:1045A000FFF741FF04208DF8000003208DF8010083
:1045B00003208DF8020001208DF8030000A8FFF70A
:1045C00025FC01BD19E050F8041BCB0744BFA9F13D
:1045D00001035918121F0023042A41F8043BF9D2A1
:1045E0005FEA827C0B4604D54FF0000CA1F800C0B6
:1045F0009B1CD10744BF0021197050F8042B002ADE
:10460000E1D170477047FEE7FEE7FEE7FEE770473F
:1046100070477047704780B5054800684FF4FA70DE
:10462000FFF7C0FA024800680149086001BD0000B8
:104630000C20024010B540F25201C0F20001794452
:10464000A1F10C0140F27804C0F200047C44A4F112
:104650000C0404E00A68081D511888470146A1426D
:10466000F8D110BD4EF68851CEF20001086840F432
:1046700070000860BFF34F8FBFF36F8F4FF0007073
:10468000E1EE100A704700003DFFFFFFF000000060
:104690000070012008050000440A0020000000000E
:1046A0006FF8FFFF0200000002000000D0BAFFFF19
:1046B000C501000000000020440A000000F00BF8D3
:1046C000002801D0FFF7B6FF0020C046C046FFF724
:1046D00007FF00F002F80120704700F001B8000069
:1046E00007463846FFF7C6FCFBE700000148804755
:1046F0000148004789400008FD460008C046C04602
:10470000FFF7B0FFFFF7DAFFFFF7FEBFFFF7FEBFCF
:10471000FFF7FEBFFFF7FEBFFFF7FEBFFFF7FEBFCD
:10472000FFF7FEBFFFF7FEBFFFF7FEBFFFF7FEBFBD
:10473000FFF7FEBFFFF7FEBFFFF7FEBFFFF7FEBFAD
:10474000FFF7FEBFFFF7FEBFFFF7FEBFFFF7FEBF9D
:10475000FFF7FEBFFFF7FEBFFFF7FEBFFFF7FEBF8D
:10476000FFF7FEBFFFF7FEBFFFF7FEBFFFF7FEBF7D
:10477000FFF7FEBFFFF7FEBFFFF7FEBFFFF7FEBF6D
:10478000FFF7FEBFFFF7FEBFFFF7FEBFFFF7FEBF5D
:10479000FFF7FEBFFFF7FEBFFFF7FEBFFFF7FEBF4D
:1047A000FFF7FEBFFFF7FEBFFFF7FEBFFFF7FEBF3D
:1047B000FFF7FEBFFFF7FEBFFFF7FEBFFFF7FEBF2D
:1047C000FFF7FEBFFFF7FEBFFFF7FEBFFFF7FEBF1D
:1047D000FFF7FEBFFFF7FEBFFFF7FEBFFFF7FEBF0D
:1047E000FFF7FEBFFFF7FEBFFFF7FEBFFFF7FEBFFD
:1047F000FFF7FEBFFFF7FEBFFFF7FEBFFFF7FEBFED
:10480000FFF7FEBFFFF7FEBFFFF7FEBFFFF7FEBFDC
:10481000FFF7FEBFFFF7FEBFFFF7FEBFFFF7FEBFCC
:10482000FFF7FEBFFFF7FEBFFFF7FEBFFFF7FEBFBC
:04000005080046FDAC
:00000001FF
